{
  "contractName": "AgreementDeliver",
  "abi": [
    {
      "constant": true,
      "inputs": [
        {
          "name": "",
          "type": "address"
        }
      ],
      "name": "arrivalTime",
      "outputs": [
        {
          "name": "",
          "type": "uint256"
        }
      ],
      "payable": false,
      "stateMutability": "view",
      "type": "function"
    },
    {
      "constant": false,
      "inputs": [
        {
          "name": "purchase",
          "type": "address"
        },
        {
          "name": "_returnAddress",
          "type": "string"
        }
      ],
      "name": "transport",
      "outputs": [],
      "payable": false,
      "stateMutability": "nonpayable",
      "type": "function"
    },
    {
      "constant": true,
      "inputs": [
        {
          "name": "",
          "type": "address"
        }
      ],
      "name": "returnAddress",
      "outputs": [
        {
          "name": "",
          "type": "string"
        }
      ],
      "payable": false,
      "stateMutability": "view",
      "type": "function"
    },
    {
      "constant": false,
      "inputs": [
        {
          "name": "purchase",
          "type": "address"
        }
      ],
      "name": "success",
      "outputs": [],
      "payable": false,
      "stateMutability": "nonpayable",
      "type": "function"
    },
    {
      "constant": true,
      "inputs": [],
      "name": "day",
      "outputs": [
        {
          "name": "",
          "type": "uint256"
        }
      ],
      "payable": false,
      "stateMutability": "view",
      "type": "function"
    },
    {
      "constant": false,
      "inputs": [
        {
          "name": "purchase",
          "type": "address"
        }
      ],
      "name": "abort",
      "outputs": [],
      "payable": false,
      "stateMutability": "nonpayable",
      "type": "function"
    },
    {
      "constant": false,
      "inputs": [
        {
          "name": "purchase",
          "type": "address"
        }
      ],
      "name": "dissatisfied",
      "outputs": [],
      "payable": false,
      "stateMutability": "nonpayable",
      "type": "function"
    },
    {
      "constant": false,
      "inputs": [],
      "name": "setAgreementData",
      "outputs": [
        {
          "name": "",
          "type": "bool"
        }
      ],
      "payable": false,
      "stateMutability": "nonpayable",
      "type": "function"
    },
    {
      "constant": true,
      "inputs": [
        {
          "name": "",
          "type": "address"
        }
      ],
      "name": "deliveryCompany",
      "outputs": [
        {
          "name": "",
          "type": "address"
        }
      ],
      "payable": false,
      "stateMutability": "view",
      "type": "function"
    },
    {
      "constant": false,
      "inputs": [
        {
          "name": "purchase",
          "type": "address"
        }
      ],
      "name": "deliver",
      "outputs": [],
      "payable": false,
      "stateMutability": "nonpayable",
      "type": "function"
    },
    {
      "inputs": [],
      "payable": false,
      "stateMutability": "nonpayable",
      "type": "constructor"
    },
    {
      "anonymous": false,
      "inputs": [
        {
          "indexed": false,
          "name": "from",
          "type": "address"
        }
      ],
      "name": "Delivered",
      "type": "event"
    },
    {
      "anonymous": false,
      "inputs": [
        {
          "indexed": false,
          "name": "from",
          "type": "address"
        }
      ],
      "name": "Satisfied",
      "type": "event"
    },
    {
      "anonymous": false,
      "inputs": [
        {
          "indexed": false,
          "name": "from",
          "type": "address"
        }
      ],
      "name": "Dissatisfied",
      "type": "event"
    }
  ],
  "bytecode": "0x6060604052341561000f57600080fd5b611aae8061001e6000396000f3006060604052600436106100a4576000357c0100000000000000000000000000000000000000000000000000000000900463ffffffff1680630285af4c146100a957806305eeb564146100f65780632421101f1461017257806326e4baae146102245780637b76ac911461025d57806390cbfa1914610286578063911d2ead146102bf57806399d32f57146102f8578063e21a899114610325578063e515cd381461039e575b600080fd5b34156100b457600080fd5b6100e0600480803573ffffffffffffffffffffffffffffffffffffffff169060200190919050506103d7565b6040518082815260200191505060405180910390f35b341561010157600080fd5b610170600480803573ffffffffffffffffffffffffffffffffffffffff1690602001909190803590602001908201803590602001908080601f016020809104026020016040519081016040528093929190818152602001838380828437820191505050505050919050506103ef565b005b341561017d57600080fd5b6101a9600480803573ffffffffffffffffffffffffffffffffffffffff16906020019091905050610846565b6040518080602001828103825283818151815260200191508051906020019080838360005b838110156101e95780820151818401526020810190506101ce565b50505050905090810190601f1680156102165780820380516001836020036101000a031916815260200191505b509250505060405180910390f35b341561022f57600080fd5b61025b600480803573ffffffffffffffffffffffffffffffffffffffff169060200190919050506108f6565b005b341561026857600080fd5b610270610f28565b6040518082815260200191505060405180910390f35b341561029157600080fd5b6102bd600480803573ffffffffffffffffffffffffffffffffffffffff16906020019091905050610f2d565b005b34156102ca57600080fd5b6102f6600480803573ffffffffffffffffffffffffffffffffffffffff16906020019091905050611237565b005b341561030357600080fd5b61030b6115f7565b604051808215151515815260200191505060405180910390f35b341561033057600080fd5b61035c600480803573ffffffffffffffffffffffffffffffffffffffff16906020019091905050611678565b604051808273ffffffffffffffffffffffffffffffffffffffff1673ffffffffffffffffffffffffffffffffffffffff16815260200191505060405180910390f35b34156103a957600080fd5b6103d5600480803573ffffffffffffffffffffffffffffffffffffffff169060200190919050506116ab565b005b60036020528060005260406000206000915090505481565b81600180600a8111156103fe57fe5b6000809054906101000a900473ffffffffffffffffffffffffffffffffffffffff1673ffffffffffffffffffffffffffffffffffffffff166331e658a5846000604051602001526040518263ffffffff167c0100000000000000000000000000000000000000000000000000000000028152600401808273ffffffffffffffffffffffffffffffffffffffff1673ffffffffffffffffffffffffffffffffffffffff168152602001915050602060405180830381600087803b15156104c257600080fd5b6102c65a03f115156104d357600080fd5b50505060405180519050600a8111156104e857fe5b1415156104f457600080fd5b6000809054906101000a900473ffffffffffffffffffffffffffffffffffffffff1673ffffffffffffffffffffffffffffffffffffffff166327737d588560026040518363ffffffff167c0100000000000000000000000000000000000000000000000000000000028152600401808373ffffffffffffffffffffffffffffffffffffffff1673ffffffffffffffffffffffffffffffffffffffff16815260200182600a8111156105a157fe5b60ff16815260200192505050600060405180830381600087803b15156105c657600080fd5b6102c65a03f115156105d757600080fd5b50505033600160008673ffffffffffffffffffffffffffffffffffffffff1673ffffffffffffffffffffffffffffffffffffffff16815260200190815260200160002060006101000a81548173ffffffffffffffffffffffffffffffffffffffff021916908373ffffffffffffffffffffffffffffffffffffffff16021790555082600260008673ffffffffffffffffffffffffffffffffffffffff1673ffffffffffffffffffffffffffffffffffffffff16815260200190815260200160002090805190602001906106ab9291906119dd565b508373ffffffffffffffffffffffffffffffffffffffff166301c6adc3336000809054906101000a900473ffffffffffffffffffffffffffffffffffffffff1673ffffffffffffffffffffffffffffffffffffffff1663aea91078886000604051602001526040518263ffffffff167c0100000000000000000000000000000000000000000000000000000000028152600401808273ffffffffffffffffffffffffffffffffffffffff1673ffffffffffffffffffffffffffffffffffffffff168152602001915050602060405180830381600087803b151561078d57600080fd5b6102c65a03f1151561079e57600080fd5b505050604051805190506040518363ffffffff167c0100000000000000000000000000000000000000000000000000000000028152600401808373ffffffffffffffffffffffffffffffffffffffff1673ffffffffffffffffffffffffffffffffffffffff16815260200182815260200192505050600060405180830381600087803b151561082c57600080fd5b6102c65a03f1151561083d57600080fd5b50505050505050565b60026020528060005260406000206000915090508054600181600116156101000203166002900480601f0160208091040260200160405190810160405280929190818152602001828054600181600116156101000203166002900480156108ee5780601f106108c3576101008083540402835291602001916108ee565b820191906000526020600020905b8154815290600101906020018083116108d157829003601f168201915b505050505081565b60006002600360008473ffffffffffffffffffffffffffffffffffffffff1673ffffffffffffffffffffffffffffffffffffffff1681526020019081526020016000205401421180151561094957600080fd5b82600380600a81111561095857fe5b6000809054906101000a900473ffffffffffffffffffffffffffffffffffffffff1673ffffffffffffffffffffffffffffffffffffffff166331e658a5846000604051602001526040518263ffffffff167c0100000000000000000000000000000000000000000000000000000000028152600401808273ffffffffffffffffffffffffffffffffffffffff1673ffffffffffffffffffffffffffffffffffffffff168152602001915050602060405180830381600087803b1515610a1c57600080fd5b6102c65a03f11515610a2d57600080fd5b50505060405180519050600a811115610a4257fe5b141515610a4e57600080fd5b6000809054906101000a900473ffffffffffffffffffffffffffffffffffffffff1673ffffffffffffffffffffffffffffffffffffffff166327737d5886600a6040518363ffffffff167c0100000000000000000000000000000000000000000000000000000000028152600401808373ffffffffffffffffffffffffffffffffffffffff1673ffffffffffffffffffffffffffffffffffffffff16815260200182600a811115610afb57fe5b60ff16815260200192505050600060405180830381600087803b1515610b2057600080fd5b6102c65a03f11515610b3157600080fd5b5050506000809054906101000a900473ffffffffffffffffffffffffffffffffffffffff1673ffffffffffffffffffffffffffffffffffffffff1663aea91078866000604051602001526040518263ffffffff167c0100000000000000000000000000000000000000000000000000000000028152600401808273ffffffffffffffffffffffffffffffffffffffff1673ffffffffffffffffffffffffffffffffffffffff168152602001915050602060405180830381600087803b1515610bf857600080fd5b6102c65a03f11515610c0957600080fd5b5050506040518051905093508473ffffffffffffffffffffffffffffffffffffffff1663095ea7b36000809054906101000a900473ffffffffffffffffffffffffffffffffffffffff1673ffffffffffffffffffffffffffffffffffffffff166339b9c30c886000604051602001526040518263ffffffff167c0100000000000000000000000000000000000000000000000000000000028152600401808273ffffffffffffffffffffffffffffffffffffffff1673ffffffffffffffffffffffffffffffffffffffff168152602001915050602060405180830381600087803b1515610cf557600080fd5b6102c65a03f11515610d0657600080fd5b50505060405180519050866040518363ffffffff167c0100000000000000000000000000000000000000000000000000000000028152600401808373ffffffffffffffffffffffffffffffffffffffff1673ffffffffffffffffffffffffffffffffffffffff16815260200182815260200192505050600060405180830381600087803b1515610d9557600080fd5b6102c65a03f11515610da657600080fd5b5050508473ffffffffffffffffffffffffffffffffffffffff1663095ea7b3600160008873ffffffffffffffffffffffffffffffffffffffff1673ffffffffffffffffffffffffffffffffffffffff16815260200190815260200160002060009054906101000a900473ffffffffffffffffffffffffffffffffffffffff16866040518363ffffffff167c0100000000000000000000000000000000000000000000000000000000028152600401808373ffffffffffffffffffffffffffffffffffffffff1673ffffffffffffffffffffffffffffffffffffffff16815260200182815260200192505050600060405180830381600087803b1515610eaa57600080fd5b6102c65a03f11515610ebb57600080fd5b5050507f9ec7b216d0d49c831803147af7d867a1d83edb2f405644e662c5618196dd666933604051808273ffffffffffffffffffffffffffffffffffffffff1673ffffffffffffffffffffffffffffffffffffffff16815260200191505060405180910390a15050505050565b600281565b803373ffffffffffffffffffffffffffffffffffffffff166000809054906101000a900473ffffffffffffffffffffffffffffffffffffffff1673ffffffffffffffffffffffffffffffffffffffff166339b9c30c836000604051602001526040518263ffffffff167c0100000000000000000000000000000000000000000000000000000000028152600401808273ffffffffffffffffffffffffffffffffffffffff1673ffffffffffffffffffffffffffffffffffffffff168152602001915050602060405180830381600087803b151561100957600080fd5b6102c65a03f1151561101a57600080fd5b5050506040518051905073ffffffffffffffffffffffffffffffffffffffff1614151561104657600080fd5b81600080600a81111561105557fe5b6000809054906101000a900473ffffffffffffffffffffffffffffffffffffffff1673ffffffffffffffffffffffffffffffffffffffff166331e658a5846000604051602001526040518263ffffffff167c0100000000000000000000000000000000000000000000000000000000028152600401808273ffffffffffffffffffffffffffffffffffffffff1673ffffffffffffffffffffffffffffffffffffffff168152602001915050602060405180830381600087803b151561111957600080fd5b6102c65a03f1151561112a57600080fd5b50505060405180519050600a81111561113f57fe5b14151561114b57600080fd5b6000809054906101000a900473ffffffffffffffffffffffffffffffffffffffff1673ffffffffffffffffffffffffffffffffffffffff166327737d5885600a6040518363ffffffff167c0100000000000000000000000000000000000000000000000000000000028152600401808373ffffffffffffffffffffffffffffffffffffffff1673ffffffffffffffffffffffffffffffffffffffff16815260200182600a8111156111f857fe5b60ff16815260200192505050600060405180830381600087803b151561121d57600080fd5b6102c65a03f1151561122e57600080fd5b50505050505050565b803373ffffffffffffffffffffffffffffffffffffffff166000809054906101000a900473ffffffffffffffffffffffffffffffffffffffff1673ffffffffffffffffffffffffffffffffffffffff1663b7748208836000604051602001526040518263ffffffff167c0100000000000000000000000000000000000000000000000000000000028152600401808273ffffffffffffffffffffffffffffffffffffffff1673ffffffffffffffffffffffffffffffffffffffff168152602001915050602060405180830381600087803b151561131357600080fd5b6102c65a03f1151561132457600080fd5b5050506040518051905073ffffffffffffffffffffffffffffffffffffffff1614151561135057600080fd5b81600380600a81111561135f57fe5b6000809054906101000a900473ffffffffffffffffffffffffffffffffffffffff1673ffffffffffffffffffffffffffffffffffffffff166331e658a5846000604051602001526040518263ffffffff167c0100000000000000000000000000000000000000000000000000000000028152600401808273ffffffffffffffffffffffffffffffffffffffff1673ffffffffffffffffffffffffffffffffffffffff168152602001915050602060405180830381600087803b151561142357600080fd5b6102c65a03f1151561143457600080fd5b50505060405180519050600a81111561144957fe5b14151561145557600080fd5b6002600360008673ffffffffffffffffffffffffffffffffffffffff1673ffffffffffffffffffffffffffffffffffffffff16815260200190815260200160002054014211158015156114a757600080fd5b6000809054906101000a900473ffffffffffffffffffffffffffffffffffffffff1673ffffffffffffffffffffffffffffffffffffffff166327737d588660046040518363ffffffff167c0100000000000000000000000000000000000000000000000000000000028152600401808373ffffffffffffffffffffffffffffffffffffffff1673ffffffffffffffffffffffffffffffffffffffff16815260200182600a81111561155457fe5b60ff16815260200192505050600060405180830381600087803b151561157957600080fd5b6102c65a03f1151561158a57600080fd5b5050507f94e153ca59e1a836d1088fae9a0acbe26f443d461ce85486281c43293541c8b933604051808273ffffffffffffffffffffffffffffffffffffffff1673ffffffffffffffffffffffffffffffffffffffff16815260200191505060405180910390a15050505050565b60008060149054906101000a900460ff161580151561161557600080fd5b6001600060146101000a81548160ff021916908315150217905550336000806101000a81548173ffffffffffffffffffffffffffffffffffffffff021916908373ffffffffffffffffffffffffffffffffffffffff160217905550600191505090565b60016020528060005260406000206000915054906101000a900473ffffffffffffffffffffffffffffffffffffffff1681565b80600280600a8111156116ba57fe5b6000809054906101000a900473ffffffffffffffffffffffffffffffffffffffff1673ffffffffffffffffffffffffffffffffffffffff166331e658a5846000604051602001526040518263ffffffff167c0100000000000000000000000000000000000000000000000000000000028152600401808273ffffffffffffffffffffffffffffffffffffffff1673ffffffffffffffffffffffffffffffffffffffff168152602001915050602060405180830381600087803b151561177e57600080fd5b6102c65a03f1151561178f57600080fd5b50505060405180519050600a8111156117a457fe5b1415156117b057600080fd5b823373ffffffffffffffffffffffffffffffffffffffff16600160008373ffffffffffffffffffffffffffffffffffffffff1673ffffffffffffffffffffffffffffffffffffffff16815260200190815260200160002060009054906101000a900473ffffffffffffffffffffffffffffffffffffffff1673ffffffffffffffffffffffffffffffffffffffff1614151561184a57600080fd5b6000809054906101000a900473ffffffffffffffffffffffffffffffffffffffff1673ffffffffffffffffffffffffffffffffffffffff166327737d588560036040518363ffffffff167c0100000000000000000000000000000000000000000000000000000000028152600401808373ffffffffffffffffffffffffffffffffffffffff1673ffffffffffffffffffffffffffffffffffffffff16815260200182600a8111156118f757fe5b60ff16815260200192505050600060405180830381600087803b151561191c57600080fd5b6102c65a03f1151561192d57600080fd5b50505042600360008673ffffffffffffffffffffffffffffffffffffffff1673ffffffffffffffffffffffffffffffffffffffff168152602001908152602001600020819055507ffedf826d9b4a1fe2a221dc900337fc72788ddb41c7ae6600c110ca2858365da433604051808273ffffffffffffffffffffffffffffffffffffffff1673ffffffffffffffffffffffffffffffffffffffff16815260200191505060405180910390a150505050565b828054600181600116156101000203166002900490600052602060002090601f016020900481019282601f10611a1e57805160ff1916838001178555611a4c565b82800160010185558215611a4c579182015b82811115611a4b578251825591602001919060010190611a30565b5b509050611a599190611a5d565b5090565b611a7f91905b80821115611a7b576000816000905550600101611a63565b5090565b905600a165627a7a7230582049807be49aefd58b96b08636c74cecdbf2d2c8e76a900a3feb5538883935e4fa0029",
  "source": "pragma solidity ^0.4.0;\r\n\r\nimport \"./AgreementData.sol\";\r\nimport \"./MinimalPurchase.sol\";\r\n\r\ncontract AgreementDeliver {\r\n\r\n  AgreementData p;\r\n  bool agreementDataSet;\r\n\r\n  mapping(address => address) public deliveryCompany;\r\n  mapping(address => string) public returnAddress;\r\n  mapping(address => uint) public arrivalTime;\r\n  uint constant public day = 2;\r\n\r\n  modifier condition(bool _condition) {\r\n    require(_condition);\r\n    _;\r\n  }\r\n\r\n  modifier inState(address purchase, AgreementData.State _state) {\r\n    require(p.state(purchase) == _state);\r\n    _;\r\n  }\r\n\r\n  modifier onlySeller(address purchase) {\r\n    require(p.seller(purchase) == msg.sender);\r\n    _;\r\n  }\r\n\r\n  modifier onlyDeliveryCompany(address purchase) {\r\n    require(deliveryCompany[purchase] == msg.sender);\r\n    _;\r\n  }\r\n\r\n  modifier onlyBuyer(address purchase) {\r\n    require(p.buyer(purchase) == msg.sender);\r\n    _;\r\n  }\r\n\r\n  event Delivered(address from);\r\n  event Satisfied(address from);\r\n  event Dissatisfied(address from);\r\n\r\n  function AgreementDeliver(){\r\n  }\r\n\r\n  function setAgreementData()\r\n    public\r\n    condition(!agreementDataSet)\r\n    returns(bool)\r\n  {\r\n    agreementDataSet = true;\r\n    p = AgreementData(msg.sender);\r\n    return true;\r\n  }\r\n\r\n  ///////////////////\r\n  ///---Created---///\r\n  ///////////////////\r\n\r\n  /** @dev Abort the agreement\r\n    * @param purchase The address of the agreement\r\n    */\r\n  function abort(address purchase)\r\n    public\r\n    onlySeller(purchase)\r\n    inState(purchase, AgreementData.State.Created)\r\n  {\r\n    p.setState(purchase, AgreementData.State.Inactive);\r\n  }\r\n\r\n  //////////////////\r\n  ///---Locked---///\r\n  //////////////////\r\n\r\n  /** @dev Starts the transportation\r\n    * @param purchase The address of the agreement\r\n    * @param _returnAddress The location the goods are being transported from\r\n    */\r\n  function transport(address purchase, string _returnAddress)\r\n    public\r\n    inState(purchase, AgreementData.State.Locked)\r\n  {\r\n    p.setState(purchase, AgreementData.State.Transit);\r\n    deliveryCompany[purchase] = msg.sender;\r\n    returnAddress[purchase] = _returnAddress;\r\n    MinimalPurchase(purchase).transferFrom(msg.sender, p.price(purchase));\r\n  }\r\n\r\n  ///////////////////\r\n  ///---Transit---///\r\n  ///////////////////\r\n\r\n  /** @dev Deliver the goods\r\n    * @param purchase The address of the agreement\r\n    */\r\n  function deliver(address purchase)\r\n    public\r\n    inState(purchase, AgreementData.State.Transit)\r\n    onlyDeliveryCompany(purchase)\r\n  {\r\n    p.setState(purchase, AgreementData.State.Confirm);\r\n    arrivalTime[purchase] = now;\r\n    Delivered(msg.sender);\r\n  }\r\n\r\n  ///////////////////\r\n  ///---Confirm---///\r\n  ///////////////////\r\n\r\n  /** @dev Successful agreement. Can be called by anyone after a certain time.\r\n    * @param purchase The address of the agreement\r\n    */\r\n  function success(address purchase)\r\n    public\r\n    condition(now > arrivalTime[purchase] + day)\r\n    inState(purchase, AgreementData.State.Confirm)\r\n  {\r\n    p.setState(purchase, AgreementData.State.Inactive);\r\n    uint _price = p.price(purchase);\r\n    MinimalPurchase(purchase).approve(p.seller(purchase), _price);\r\n    MinimalPurchase(purchase).approve(deliveryCompany[purchase], _price);\r\n    Satisfied(msg.sender);\r\n  }\r\n\r\n  /** @dev Can be called by the buyer to return the goods.\r\n    * @param purchase The address of the agreement\r\n    */\r\n  function dissatisfied(address purchase)\r\n    public\r\n    onlyBuyer(purchase)\r\n    inState(purchase, AgreementData.State.Confirm)\r\n    condition(now <= arrivalTime[purchase] + day)\r\n  {\r\n    p.setState(purchase, AgreementData.State.Dissatisfied);\r\n    Dissatisfied(msg.sender);\r\n  }\r\n}\r\n",
  "sourcePath": "C:\\Users\\axevalli\\IdeaProjects\\smart-package-2\\smart-package\\contracts\\Purchase\\AgreementDeliver.sol",
  "compiler": {
    "name": "solc",
    "version": "0.4.18+commit.9cf6e910.Emscripten.clang"
  },
  "schemaVersion": "1.0.1",
  "updatedAt": "2018-05-14T06:45:05.494Z"
}