{
  "contractName": "AgreementReturn",
  "abi": [
    {
      "constant": true,
      "inputs": [
        {
          "name": "",
          "type": "address"
        }
      ],
      "name": "arrivalTime",
      "outputs": [
        {
          "name": "",
          "type": "uint256"
        }
      ],
      "payable": false,
      "stateMutability": "view",
      "type": "function"
    },
    {
      "constant": false,
      "inputs": [
        {
          "name": "purchase",
          "type": "address"
        }
      ],
      "name": "deliverReturn",
      "outputs": [],
      "payable": false,
      "stateMutability": "nonpayable",
      "type": "function"
    },
    {
      "constant": true,
      "inputs": [
        {
          "name": "",
          "type": "address"
        }
      ],
      "name": "logisticsTokens",
      "outputs": [
        {
          "name": "",
          "type": "uint256"
        }
      ],
      "payable": false,
      "stateMutability": "view",
      "type": "function"
    },
    {
      "constant": true,
      "inputs": [
        {
          "name": "",
          "type": "address"
        }
      ],
      "name": "currentClerk",
      "outputs": [
        {
          "name": "",
          "type": "address"
        }
      ],
      "payable": false,
      "stateMutability": "view",
      "type": "function"
    },
    {
      "constant": false,
      "inputs": [
        {
          "name": "purchase",
          "type": "address"
        },
        {
          "name": "payment",
          "type": "uint256"
        }
      ],
      "name": "clerk",
      "outputs": [],
      "payable": false,
      "stateMutability": "nonpayable",
      "type": "function"
    },
    {
      "constant": false,
      "inputs": [
        {
          "name": "purchase",
          "type": "address"
        }
      ],
      "name": "successReturn",
      "outputs": [],
      "payable": false,
      "stateMutability": "nonpayable",
      "type": "function"
    },
    {
      "constant": true,
      "inputs": [
        {
          "name": "",
          "type": "address"
        }
      ],
      "name": "returnToPrevState",
      "outputs": [
        {
          "name": "",
          "type": "bool"
        }
      ],
      "payable": false,
      "stateMutability": "view",
      "type": "function"
    },
    {
      "constant": false,
      "inputs": [
        {
          "name": "purchase",
          "type": "address"
        }
      ],
      "name": "finalizeClerkDecision",
      "outputs": [],
      "payable": false,
      "stateMutability": "nonpayable",
      "type": "function"
    },
    {
      "constant": false,
      "inputs": [
        {
          "name": "purchase",
          "type": "address"
        },
        {
          "name": "amount",
          "type": "uint256"
        }
      ],
      "name": "increaseClerkPayment",
      "outputs": [],
      "payable": false,
      "stateMutability": "nonpayable",
      "type": "function"
    },
    {
      "constant": false,
      "inputs": [
        {
          "name": "purchase",
          "type": "address"
        }
      ],
      "name": "transportReturn",
      "outputs": [],
      "payable": false,
      "stateMutability": "nonpayable",
      "type": "function"
    },
    {
      "constant": false,
      "inputs": [],
      "name": "setAgreementData",
      "outputs": [
        {
          "name": "",
          "type": "bool"
        }
      ],
      "payable": false,
      "stateMutability": "nonpayable",
      "type": "function"
    },
    {
      "constant": true,
      "inputs": [
        {
          "name": "",
          "type": "address"
        }
      ],
      "name": "sellerTokens",
      "outputs": [
        {
          "name": "",
          "type": "uint256"
        }
      ],
      "payable": false,
      "stateMutability": "view",
      "type": "function"
    },
    {
      "constant": false,
      "inputs": [
        {
          "name": "purchase",
          "type": "address"
        }
      ],
      "name": "goodsDamaged",
      "outputs": [],
      "payable": false,
      "stateMutability": "nonpayable",
      "type": "function"
    },
    {
      "constant": false,
      "inputs": [
        {
          "name": "purchase",
          "type": "address"
        }
      ],
      "name": "compensate",
      "outputs": [],
      "payable": false,
      "stateMutability": "nonpayable",
      "type": "function"
    },
    {
      "constant": false,
      "inputs": [
        {
          "name": "purchase",
          "type": "address"
        }
      ],
      "name": "returnToPreviousState",
      "outputs": [],
      "payable": false,
      "stateMutability": "nonpayable",
      "type": "function"
    },
    {
      "constant": false,
      "inputs": [
        {
          "name": "purchase",
          "type": "address"
        }
      ],
      "name": "rejectClerkDecision",
      "outputs": [],
      "payable": false,
      "stateMutability": "nonpayable",
      "type": "function"
    },
    {
      "constant": true,
      "inputs": [
        {
          "name": "",
          "type": "address"
        }
      ],
      "name": "clerkPayment",
      "outputs": [
        {
          "name": "",
          "type": "uint256"
        }
      ],
      "payable": false,
      "stateMutability": "view",
      "type": "function"
    },
    {
      "constant": false,
      "inputs": [
        {
          "name": "purchase",
          "type": "address"
        },
        {
          "name": "_seller",
          "type": "uint256"
        },
        {
          "name": "_buyer",
          "type": "uint256"
        },
        {
          "name": "_delivery",
          "type": "uint256"
        }
      ],
      "name": "solve",
      "outputs": [],
      "payable": false,
      "stateMutability": "nonpayable",
      "type": "function"
    },
    {
      "constant": true,
      "inputs": [
        {
          "name": "",
          "type": "address"
        }
      ],
      "name": "buyerTokens",
      "outputs": [
        {
          "name": "",
          "type": "uint256"
        }
      ],
      "payable": false,
      "stateMutability": "view",
      "type": "function"
    },
    {
      "inputs": [
        {
          "name": "_token",
          "type": "address"
        },
        {
          "name": "_clerk",
          "type": "address"
        },
        {
          "name": "_agreementDeliver",
          "type": "address"
        }
      ],
      "payable": false,
      "stateMutability": "nonpayable",
      "type": "constructor"
    },
    {
      "anonymous": false,
      "inputs": [
        {
          "indexed": false,
          "name": "from",
          "type": "address"
        }
      ],
      "name": "Proposed",
      "type": "event"
    },
    {
      "anonymous": false,
      "inputs": [
        {
          "indexed": false,
          "name": "from",
          "type": "address"
        }
      ],
      "name": "Declined",
      "type": "event"
    },
    {
      "anonymous": false,
      "inputs": [
        {
          "indexed": false,
          "name": "from",
          "type": "address"
        }
      ],
      "name": "Accepted",
      "type": "event"
    },
    {
      "anonymous": false,
      "inputs": [
        {
          "indexed": false,
          "name": "from",
          "type": "address"
        }
      ],
      "name": "Delivered",
      "type": "event"
    },
    {
      "anonymous": false,
      "inputs": [
        {
          "indexed": false,
          "name": "from",
          "type": "address"
        }
      ],
      "name": "Satisfied",
      "type": "event"
    },
    {
      "anonymous": false,
      "inputs": [
        {
          "indexed": false,
          "name": "from",
          "type": "address"
        }
      ],
      "name": "Dissatisfied",
      "type": "event"
    }
  ],
  "bytecode": "0x6060604052341561000f57600080fd5b60405160608061464883398101604052808051906020019091908051906020019091908051906020019091905050826000806101000a81548173ffffffffffffffffffffffffffffffffffffffff021916908373ffffffffffffffffffffffffffffffffffffffff16021790555081600160006101000a81548173ffffffffffffffffffffffffffffffffffffffff021916908373ffffffffffffffffffffffffffffffffffffffff16021790555080600360006101000a81548173ffffffffffffffffffffffffffffffffffffffff021916908373ffffffffffffffffffffffffffffffffffffffff160217905550505050614537806101116000396000f300606060405260043610610107576000357c0100000000000000000000000000000000000000000000000000000000900463ffffffff1680630285af4c1461010c57806302bf217114610159578063194d8cb7146101925780631db0a04c146101df5780632da2b37c146102585780634bb66d511461029a5780636acb1f1b146102d35780636e8d65e9146103245780637c0e76dd1461035d5780638802c5871461039f57806399d32f57146103d8578063afe4c6f114610405578063bf9303fc14610452578063ca7a08ef1461048b578063d0ecf0c5146104c4578063d984d332146104fd578063e3bc968614610536578063e43b82c914610583578063f13656eb146105d7575b600080fd5b341561011757600080fd5b610143600480803573ffffffffffffffffffffffffffffffffffffffff16906020019091905050610624565b6040518082815260200191505060405180910390f35b341561016457600080fd5b610190600480803573ffffffffffffffffffffffffffffffffffffffff1690602001909190505061063c565b005b341561019d57600080fd5b6101c9600480803573ffffffffffffffffffffffffffffffffffffffff1690602001909190505061098d565b6040518082815260200191505060405180910390f35b34156101ea57600080fd5b610216600480803573ffffffffffffffffffffffffffffffffffffffff169060200190919050506109a5565b604051808273ffffffffffffffffffffffffffffffffffffffff1673ffffffffffffffffffffffffffffffffffffffff16815260200191505060405180910390f35b341561026357600080fd5b610298600480803573ffffffffffffffffffffffffffffffffffffffff169060200190919080359060200190919050506109d8565b005b34156102a557600080fd5b6102d1600480803573ffffffffffffffffffffffffffffffffffffffff16906020019091905050611157565b005b34156102de57600080fd5b61030a600480803573ffffffffffffffffffffffffffffffffffffffff16906020019091905050611883565b604051808215151515815260200191505060405180910390f35b341561032f57600080fd5b61035b600480803573ffffffffffffffffffffffffffffffffffffffff169060200190919050506118a3565b005b341561036857600080fd5b61039d600480803573ffffffffffffffffffffffffffffffffffffffff1690602001909190803590602001909190505061238c565b005b34156103aa57600080fd5b6103d6600480803573ffffffffffffffffffffffffffffffffffffffff1690602001909190505061259b565b005b34156103e357600080fd5b6103eb6128a8565b604051808215151515815260200191505060405180910390f35b341561041057600080fd5b61043c600480803573ffffffffffffffffffffffffffffffffffffffff1690602001909190505061292b565b6040518082815260200191505060405180910390f35b341561045d57600080fd5b610489600480803573ffffffffffffffffffffffffffffffffffffffff16906020019091905050612943565b005b341561049657600080fd5b6104c2600480803573ffffffffffffffffffffffffffffffffffffffff16906020019091905050612ca3565b005b34156104cf57600080fd5b6104fb600480803573ffffffffffffffffffffffffffffffffffffffff16906020019091905050613498565b005b341561050857600080fd5b610534600480803573ffffffffffffffffffffffffffffffffffffffff1690602001909190505061388f565b005b341561054157600080fd5b61056d600480803573ffffffffffffffffffffffffffffffffffffffff16906020019091905050613f3a565b6040518082815260200191505060405180910390f35b341561058e57600080fd5b6105d5600480803573ffffffffffffffffffffffffffffffffffffffff16906020019091908035906020019091908035906020019091908035906020019091905050613f52565b005b34156105e257600080fd5b61060e600480803573ffffffffffffffffffffffffffffffffffffffff169060200190919050506144f3565b6040518082815260200191505060405180910390f35b60066020528060005260406000206000915090505481565b80600580600a81111561064b57fe5b600260009054906101000a900473ffffffffffffffffffffffffffffffffffffffff1673ffffffffffffffffffffffffffffffffffffffff166331e658a5846000604051602001526040518263ffffffff167c0100000000000000000000000000000000000000000000000000000000028152600401808273ffffffffffffffffffffffffffffffffffffffff1673ffffffffffffffffffffffffffffffffffffffff168152602001915050602060405180830381600087803b151561071057600080fd5b6102c65a03f1151561072157600080fd5b50505060405180519050600a81111561073657fe5b14151561074257600080fd5b823373ffffffffffffffffffffffffffffffffffffffff16600360009054906101000a900473ffffffffffffffffffffffffffffffffffffffff1673ffffffffffffffffffffffffffffffffffffffff1663e21a8991836000604051602001526040518263ffffffff167c0100000000000000000000000000000000000000000000000000000000028152600401808273ffffffffffffffffffffffffffffffffffffffff1673ffffffffffffffffffffffffffffffffffffffff168152602001915050602060405180830381600087803b151561081f57600080fd5b6102c65a03f1151561083057600080fd5b5050506040518051905073ffffffffffffffffffffffffffffffffffffffff1614151561085c57600080fd5b600260009054906101000a900473ffffffffffffffffffffffffffffffffffffffff1673ffffffffffffffffffffffffffffffffffffffff166327737d588560066040518363ffffffff167c0100000000000000000000000000000000000000000000000000000000028152600401808373ffffffffffffffffffffffffffffffffffffffff1673ffffffffffffffffffffffffffffffffffffffff16815260200182600a81111561090a57fe5b60ff16815260200192505050600060405180830381600087803b151561092f57600080fd5b6102c65a03f1151561094057600080fd5b50505042600660008673ffffffffffffffffffffffffffffffffffffffff1673ffffffffffffffffffffffffffffffffffffffff1681526020019081526020016000208190555050505050565b60096020528060005260406000206000915090505481565b600b6020528060005260406000206000915054906101000a900473ffffffffffffffffffffffffffffffffffffffff1681565b60006008600a8111156109e757fe5b600260009054906101000a900473ffffffffffffffffffffffffffffffffffffffff1673ffffffffffffffffffffffffffffffffffffffff166331e658a5856000604051602001526040518263ffffffff167c0100000000000000000000000000000000000000000000000000000000028152600401808273ffffffffffffffffffffffffffffffffffffffff1673ffffffffffffffffffffffffffffffffffffffff168152602001915050602060405180830381600087803b1515610aac57600080fd5b6102c65a03f11515610abd57600080fd5b50505060405180519050600a811115610ad257fe5b1415801515610ae057600080fd5b600260009054906101000a900473ffffffffffffffffffffffffffffffffffffffff1673ffffffffffffffffffffffffffffffffffffffff166339b9c30c856000604051602001526040518263ffffffff167c0100000000000000000000000000000000000000000000000000000000028152600401808273ffffffffffffffffffffffffffffffffffffffff1673ffffffffffffffffffffffffffffffffffffffff168152602001915050602060405180830381600087803b1515610ba557600080fd5b6102c65a03f11515610bb657600080fd5b5050506040518051905073ffffffffffffffffffffffffffffffffffffffff163373ffffffffffffffffffffffffffffffffffffffff161480610d035750600260009054906101000a900473ffffffffffffffffffffffffffffffffffffffff1673ffffffffffffffffffffffffffffffffffffffff1663b7748208856000604051602001526040518263ffffffff167c0100000000000000000000000000000000000000000000000000000000028152600401808273ffffffffffffffffffffffffffffffffffffffff1673ffffffffffffffffffffffffffffffffffffffff168152602001915050602060405180830381600087803b1515610cb957600080fd5b6102c65a03f11515610cca57600080fd5b5050506040518051905073ffffffffffffffffffffffffffffffffffffffff163373ffffffffffffffffffffffffffffffffffffffff16145b80610e185750600360009054906101000a900473ffffffffffffffffffffffffffffffffffffffff1673ffffffffffffffffffffffffffffffffffffffff1663e21a8991856000604051602001526040518263ffffffff167c0100000000000000000000000000000000000000000000000000000000028152600401808273ffffffffffffffffffffffffffffffffffffffff1673ffffffffffffffffffffffffffffffffffffffff168152602001915050602060405180830381600087803b1515610dce57600080fd5b6102c65a03f11515610ddf57600080fd5b5050506040518051905073ffffffffffffffffffffffffffffffffffffffff163373ffffffffffffffffffffffffffffffffffffffff16145b801515610e2457600080fd5b600260009054906101000a900473ffffffffffffffffffffffffffffffffffffffff1673ffffffffffffffffffffffffffffffffffffffff166331e658a5866000604051602001526040518263ffffffff167c0100000000000000000000000000000000000000000000000000000000028152600401808273ffffffffffffffffffffffffffffffffffffffff1673ffffffffffffffffffffffffffffffffffffffff168152602001915050602060405180830381600087803b1515610ee957600080fd5b6102c65a03f11515610efa57600080fd5b505050604051805190509250600260009054906101000a900473ffffffffffffffffffffffffffffffffffffffff1673ffffffffffffffffffffffffffffffffffffffff166327737d588660086040518363ffffffff167c0100000000000000000000000000000000000000000000000000000000028152600401808373ffffffffffffffffffffffffffffffffffffffff1673ffffffffffffffffffffffffffffffffffffffff16815260200182600a811115610fb457fe5b60ff16815260200192505050600060405180830381600087803b1515610fd957600080fd5b6102c65a03f11515610fea57600080fd5b50505082600560008773ffffffffffffffffffffffffffffffffffffffff1673ffffffffffffffffffffffffffffffffffffffff16815260200190815260200160002060006101000a81548160ff0219169083600a81111561104857fe5b021790555083600460008773ffffffffffffffffffffffffffffffffffffffff1673ffffffffffffffffffffffffffffffffffffffff168152602001908152602001600020600082825401925050819055508473ffffffffffffffffffffffffffffffffffffffff166301c6adc333866040518363ffffffff167c0100000000000000000000000000000000000000000000000000000000028152600401808373ffffffffffffffffffffffffffffffffffffffff1673ffffffffffffffffffffffffffffffffffffffff16815260200182815260200192505050600060405180830381600087803b151561113c57600080fd5b6102c65a03f1151561114d57600080fd5b5050505050505050565b80600680600a81111561116657fe5b600260009054906101000a900473ffffffffffffffffffffffffffffffffffffffff1673ffffffffffffffffffffffffffffffffffffffff166331e658a5846000604051602001526040518263ffffffff167c0100000000000000000000000000000000000000000000000000000000028152600401808273ffffffffffffffffffffffffffffffffffffffff1673ffffffffffffffffffffffffffffffffffffffff168152602001915050602060405180830381600087803b151561122b57600080fd5b6102c65a03f1151561123c57600080fd5b50505060405180519050600a81111561125157fe5b14151561125d57600080fd5b6002600660008573ffffffffffffffffffffffffffffffffffffffff1673ffffffffffffffffffffffffffffffffffffffff168152602001908152602001600020540142118015156112ae57600080fd5b600260009054906101000a900473ffffffffffffffffffffffffffffffffffffffff1673ffffffffffffffffffffffffffffffffffffffff166327737d5885600a6040518363ffffffff167c0100000000000000000000000000000000000000000000000000000000028152600401808373ffffffffffffffffffffffffffffffffffffffff1673ffffffffffffffffffffffffffffffffffffffff16815260200182600a81111561135c57fe5b60ff16815260200192505050600060405180830381600087803b151561138157600080fd5b6102c65a03f1151561139257600080fd5b5050508373ffffffffffffffffffffffffffffffffffffffff1663095ea7b3600260009054906101000a900473ffffffffffffffffffffffffffffffffffffffff1673ffffffffffffffffffffffffffffffffffffffff1663b7748208876000604051602001526040518263ffffffff167c0100000000000000000000000000000000000000000000000000000000028152600401808273ffffffffffffffffffffffffffffffffffffffff1673ffffffffffffffffffffffffffffffffffffffff168152602001915050602060405180830381600087803b151561147657600080fd5b6102c65a03f1151561148757600080fd5b50505060405180519050600260009054906101000a900473ffffffffffffffffffffffffffffffffffffffff1673ffffffffffffffffffffffffffffffffffffffff1663aea91078886000604051602001526040518263ffffffff167c0100000000000000000000000000000000000000000000000000000000028152600401808273ffffffffffffffffffffffffffffffffffffffff1673ffffffffffffffffffffffffffffffffffffffff168152602001915050602060405180830381600087803b151561155657600080fd5b6102c65a03f1151561156757600080fd5b505050604051805190506040518363ffffffff167c0100000000000000000000000000000000000000000000000000000000028152600401808373ffffffffffffffffffffffffffffffffffffffff1673ffffffffffffffffffffffffffffffffffffffff16815260200182815260200192505050600060405180830381600087803b15156115f557600080fd5b6102c65a03f1151561160657600080fd5b5050508373ffffffffffffffffffffffffffffffffffffffff1663095ea7b3600360009054906101000a900473ffffffffffffffffffffffffffffffffffffffff1673ffffffffffffffffffffffffffffffffffffffff1663e21a8991876000604051602001526040518263ffffffff167c0100000000000000000000000000000000000000000000000000000000028152600401808273ffffffffffffffffffffffffffffffffffffffff1673ffffffffffffffffffffffffffffffffffffffff168152602001915050602060405180830381600087803b15156116ea57600080fd5b6102c65a03f115156116fb57600080fd5b50505060405180519050600260009054906101000a900473ffffffffffffffffffffffffffffffffffffffff1673ffffffffffffffffffffffffffffffffffffffff1663aea91078886000604051602001526040518263ffffffff167c0100000000000000000000000000000000000000000000000000000000028152600401808273ffffffffffffffffffffffffffffffffffffffff1673ffffffffffffffffffffffffffffffffffffffff168152602001915050602060405180830381600087803b15156117ca57600080fd5b6102c65a03f115156117db57600080fd5b505050604051805190506040518363ffffffff167c0100000000000000000000000000000000000000000000000000000000028152600401808373ffffffffffffffffffffffffffffffffffffffff1673ffffffffffffffffffffffffffffffffffffffff16815260200182815260200192505050600060405180830381600087803b151561186957600080fd5b6102c65a03f1151561187a57600080fd5b50505050505050565b600a6020528060005260406000206000915054906101000a900460ff1681565b600081600980600a8111156118b457fe5b600260009054906101000a900473ffffffffffffffffffffffffffffffffffffffff1673ffffffffffffffffffffffffffffffffffffffff166331e658a5846000604051602001526040518263ffffffff167c0100000000000000000000000000000000000000000000000000000000028152600401808273ffffffffffffffffffffffffffffffffffffffff1673ffffffffffffffffffffffffffffffffffffffff168152602001915050602060405180830381600087803b151561197957600080fd5b6102c65a03f1151561198a57600080fd5b50505060405180519050600a81111561199f57fe5b1415156119ab57600080fd5b6002600660008673ffffffffffffffffffffffffffffffffffffffff1673ffffffffffffffffffffffffffffffffffffffff168152602001908152602001600020540142118015156119fc57600080fd5b600a60008673ffffffffffffffffffffffffffffffffffffffff1673ffffffffffffffffffffffffffffffffffffffff16815260200190815260200160002060009054906101000a900460ff1615611b8557600260009054906101000a900473ffffffffffffffffffffffffffffffffffffffff1673ffffffffffffffffffffffffffffffffffffffff166327737d5886600560008973ffffffffffffffffffffffffffffffffffffffff1673ffffffffffffffffffffffffffffffffffffffff16815260200190815260200160002060009054906101000a900460ff166040518363ffffffff167c0100000000000000000000000000000000000000000000000000000000028152600401808373ffffffffffffffffffffffffffffffffffffffff1673ffffffffffffffffffffffffffffffffffffffff16815260200182600a811115611b4757fe5b60ff16815260200192505050600060405180830381600087803b1515611b6c57600080fd5b6102c65a03f11515611b7d57600080fd5b5050506121e9565b600260009054906101000a900473ffffffffffffffffffffffffffffffffffffffff1673ffffffffffffffffffffffffffffffffffffffff166327737d5886600a6040518363ffffffff167c0100000000000000000000000000000000000000000000000000000000028152600401808373ffffffffffffffffffffffffffffffffffffffff1673ffffffffffffffffffffffffffffffffffffffff16815260200182600a811115611c3357fe5b60ff16815260200192505050600060405180830381600087803b1515611c5857600080fd5b6102c65a03f11515611c6957600080fd5b5050508473ffffffffffffffffffffffffffffffffffffffff1663095ea7b3600260009054906101000a900473ffffffffffffffffffffffffffffffffffffffff1673ffffffffffffffffffffffffffffffffffffffff166339b9c30c886000604051602001526040518263ffffffff167c0100000000000000000000000000000000000000000000000000000000028152600401808273ffffffffffffffffffffffffffffffffffffffff1673ffffffffffffffffffffffffffffffffffffffff168152602001915050602060405180830381600087803b1515611d4d57600080fd5b6102c65a03f11515611d5e57600080fd5b50505060405180519050600760008973ffffffffffffffffffffffffffffffffffffffff1673ffffffffffffffffffffffffffffffffffffffff168152602001908152602001600020546040518363ffffffff167c0100000000000000000000000000000000000000000000000000000000028152600401808373ffffffffffffffffffffffffffffffffffffffff1673ffffffffffffffffffffffffffffffffffffffff16815260200182815260200192505050600060405180830381600087803b1515611e2c57600080fd5b6102c65a03f11515611e3d57600080fd5b5050508473ffffffffffffffffffffffffffffffffffffffff1663095ea7b3600360009054906101000a900473ffffffffffffffffffffffffffffffffffffffff1673ffffffffffffffffffffffffffffffffffffffff1663e21a8991886000604051602001526040518263ffffffff167c0100000000000000000000000000000000000000000000000000000000028152600401808273ffffffffffffffffffffffffffffffffffffffff1673ffffffffffffffffffffffffffffffffffffffff168152602001915050602060405180830381600087803b1515611f2157600080fd5b6102c65a03f11515611f3257600080fd5b50505060405180519050600960008973ffffffffffffffffffffffffffffffffffffffff1673ffffffffffffffffffffffffffffffffffffffff168152602001908152602001600020546040518363ffffffff167c0100000000000000000000000000000000000000000000000000000000028152600401808373ffffffffffffffffffffffffffffffffffffffff1673ffffffffffffffffffffffffffffffffffffffff16815260200182815260200192505050600060405180830381600087803b151561200057600080fd5b6102c65a03f1151561201157600080fd5b5050508473ffffffffffffffffffffffffffffffffffffffff1663095ea7b3600260009054906101000a900473ffffffffffffffffffffffffffffffffffffffff1673ffffffffffffffffffffffffffffffffffffffff1663b7748208886000604051602001526040518263ffffffff167c0100000000000000000000000000000000000000000000000000000000028152600401808273ffffffffffffffffffffffffffffffffffffffff1673ffffffffffffffffffffffffffffffffffffffff168152602001915050602060405180830381600087803b15156120f557600080fd5b6102c65a03f1151561210657600080fd5b50505060405180519050600860008973ffffffffffffffffffffffffffffffffffffffff1673ffffffffffffffffffffffffffffffffffffffff168152602001908152602001600020546040518363ffffffff167c0100000000000000000000000000000000000000000000000000000000028152600401808373ffffffffffffffffffffffffffffffffffffffff1673ffffffffffffffffffffffffffffffffffffffff16815260200182815260200192505050600060405180830381600087803b15156121d457600080fd5b6102c65a03f115156121e557600080fd5b5050505b600460008673ffffffffffffffffffffffffffffffffffffffff1673ffffffffffffffffffffffffffffffffffffffff1681526020019081526020016000205493506000600460008773ffffffffffffffffffffffffffffffffffffffff1673ffffffffffffffffffffffffffffffffffffffff168152602001908152602001600020819055508473ffffffffffffffffffffffffffffffffffffffff1663095ea7b3600b60008873ffffffffffffffffffffffffffffffffffffffff1673ffffffffffffffffffffffffffffffffffffffff16815260200190815260200160002060009054906101000a900473ffffffffffffffffffffffffffffffffffffffff16866040518363ffffffff167c0100000000000000000000000000000000000000000000000000000000028152600401808373ffffffffffffffffffffffffffffffffffffffff1673ffffffffffffffffffffffffffffffffffffffff16815260200182815260200192505050600060405180830381600087803b151561237157600080fd5b6102c65a03f1151561238257600080fd5b5050505050505050565b81600880600a81111561239b57fe5b600260009054906101000a900473ffffffffffffffffffffffffffffffffffffffff1673ffffffffffffffffffffffffffffffffffffffff166331e658a5846000604051602001526040518263ffffffff167c0100000000000000000000000000000000000000000000000000000000028152600401808273ffffffffffffffffffffffffffffffffffffffff1673ffffffffffffffffffffffffffffffffffffffff168152602001915050602060405180830381600087803b151561246057600080fd5b6102c65a03f1151561247157600080fd5b50505060405180519050600a81111561248657fe5b14151561249257600080fd5b82600460008673ffffffffffffffffffffffffffffffffffffffff1673ffffffffffffffffffffffffffffffffffffffff168152602001908152602001600020600082825401925050819055508373ffffffffffffffffffffffffffffffffffffffff166301c6adc333856040518363ffffffff167c0100000000000000000000000000000000000000000000000000000000028152600401808373ffffffffffffffffffffffffffffffffffffffff1673ffffffffffffffffffffffffffffffffffffffff16815260200182815260200192505050600060405180830381600087803b151561258157600080fd5b6102c65a03f1151561259257600080fd5b50505050505050565b80600480600a8111156125aa57fe5b600260009054906101000a900473ffffffffffffffffffffffffffffffffffffffff1673ffffffffffffffffffffffffffffffffffffffff166331e658a5846000604051602001526040518263ffffffff167c0100000000000000000000000000000000000000000000000000000000028152600401808273ffffffffffffffffffffffffffffffffffffffff1673ffffffffffffffffffffffffffffffffffffffff168152602001915050602060405180830381600087803b151561266f57600080fd5b6102c65a03f1151561268057600080fd5b50505060405180519050600a81111561269557fe5b1415156126a157600080fd5b823373ffffffffffffffffffffffffffffffffffffffff16600360009054906101000a900473ffffffffffffffffffffffffffffffffffffffff1673ffffffffffffffffffffffffffffffffffffffff1663e21a8991836000604051602001526040518263ffffffff167c0100000000000000000000000000000000000000000000000000000000028152600401808273ffffffffffffffffffffffffffffffffffffffff1673ffffffffffffffffffffffffffffffffffffffff168152602001915050602060405180830381600087803b151561277e57600080fd5b6102c65a03f1151561278f57600080fd5b5050506040518051905073ffffffffffffffffffffffffffffffffffffffff161415156127bb57600080fd5b600260009054906101000a900473ffffffffffffffffffffffffffffffffffffffff1673ffffffffffffffffffffffffffffffffffffffff166327737d588560056040518363ffffffff167c0100000000000000000000000000000000000000000000000000000000028152600401808373ffffffffffffffffffffffffffffffffffffffff1673ffffffffffffffffffffffffffffffffffffffff16815260200182600a81111561286957fe5b60ff16815260200192505050600060405180830381600087803b151561288e57600080fd5b6102c65a03f1151561289f57600080fd5b50505050505050565b6000600360149054906101000a900460ff16158015156128c757600080fd5b6001600360146101000a81548160ff02191690831515021790555033600260006101000a81548173ffffffffffffffffffffffffffffffffffffffff021916908373ffffffffffffffffffffffffffffffffffffffff160217905550600191505090565b60076020528060005260406000206000915090505481565b803373ffffffffffffffffffffffffffffffffffffffff16600260009054906101000a900473ffffffffffffffffffffffffffffffffffffffff1673ffffffffffffffffffffffffffffffffffffffff166339b9c30c836000604051602001526040518263ffffffff167c0100000000000000000000000000000000000000000000000000000000028152600401808273ffffffffffffffffffffffffffffffffffffffff1673ffffffffffffffffffffffffffffffffffffffff168152602001915050602060405180830381600087803b1515612a2057600080fd5b6102c65a03f11515612a3157600080fd5b5050506040518051905073ffffffffffffffffffffffffffffffffffffffff16141515612a5d57600080fd5b81600680600a811115612a6c57fe5b600260009054906101000a900473ffffffffffffffffffffffffffffffffffffffff1673ffffffffffffffffffffffffffffffffffffffff166331e658a5846000604051602001526040518263ffffffff167c0100000000000000000000000000000000000000000000000000000000028152600401808273ffffffffffffffffffffffffffffffffffffffff1673ffffffffffffffffffffffffffffffffffffffff168152602001915050602060405180830381600087803b1515612b3157600080fd5b6102c65a03f11515612b4257600080fd5b50505060405180519050600a811115612b5757fe5b141515612b6357600080fd5b6002600660008673ffffffffffffffffffffffffffffffffffffffff1673ffffffffffffffffffffffffffffffffffffffff1681526020019081526020016000205401421115801515612bb557600080fd5b600260009054906101000a900473ffffffffffffffffffffffffffffffffffffffff1673ffffffffffffffffffffffffffffffffffffffff166327737d588660076040518363ffffffff167c0100000000000000000000000000000000000000000000000000000000028152600401808373ffffffffffffffffffffffffffffffffffffffff1673ffffffffffffffffffffffffffffffffffffffff16815260200182600a811115612c6357fe5b60ff16815260200192505050600060405180830381600087803b1515612c8857600080fd5b6102c65a03f11515612c9957600080fd5b5050505050505050565b803373ffffffffffffffffffffffffffffffffffffffff16600360009054906101000a900473ffffffffffffffffffffffffffffffffffffffff1673ffffffffffffffffffffffffffffffffffffffff1663e21a8991836000604051602001526040518263ffffffff167c0100000000000000000000000000000000000000000000000000000000028152600401808273ffffffffffffffffffffffffffffffffffffffff1673ffffffffffffffffffffffffffffffffffffffff168152602001915050602060405180830381600087803b1515612d8057600080fd5b6102c65a03f11515612d9157600080fd5b5050506040518051905073ffffffffffffffffffffffffffffffffffffffff16141515612dbd57600080fd5b81600780600a811115612dcc57fe5b600260009054906101000a900473ffffffffffffffffffffffffffffffffffffffff1673ffffffffffffffffffffffffffffffffffffffff166331e658a5846000604051602001526040518263ffffffff167c0100000000000000000000000000000000000000000000000000000000028152600401808273ffffffffffffffffffffffffffffffffffffffff1673ffffffffffffffffffffffffffffffffffffffff168152602001915050602060405180830381600087803b1515612e9157600080fd5b6102c65a03f11515612ea257600080fd5b50505060405180519050600a811115612eb757fe5b141515612ec357600080fd5b600260009054906101000a900473ffffffffffffffffffffffffffffffffffffffff1673ffffffffffffffffffffffffffffffffffffffff166327737d5885600a6040518363ffffffff167c0100000000000000000000000000000000000000000000000000000000028152600401808373ffffffffffffffffffffffffffffffffffffffff1673ffffffffffffffffffffffffffffffffffffffff16815260200182600a811115612f7157fe5b60ff16815260200192505050600060405180830381600087803b1515612f9657600080fd5b6102c65a03f11515612fa757600080fd5b5050508373ffffffffffffffffffffffffffffffffffffffff1663095ea7b3600260009054906101000a900473ffffffffffffffffffffffffffffffffffffffff1673ffffffffffffffffffffffffffffffffffffffff1663b7748208876000604051602001526040518263ffffffff167c0100000000000000000000000000000000000000000000000000000000028152600401808273ffffffffffffffffffffffffffffffffffffffff1673ffffffffffffffffffffffffffffffffffffffff168152602001915050602060405180830381600087803b151561308b57600080fd5b6102c65a03f1151561309c57600080fd5b50505060405180519050600260009054906101000a900473ffffffffffffffffffffffffffffffffffffffff1673ffffffffffffffffffffffffffffffffffffffff1663aea91078886000604051602001526040518263ffffffff167c0100000000000000000000000000000000000000000000000000000000028152600401808273ffffffffffffffffffffffffffffffffffffffff1673ffffffffffffffffffffffffffffffffffffffff168152602001915050602060405180830381600087803b151561316b57600080fd5b6102c65a03f1151561317c57600080fd5b505050604051805190506040518363ffffffff167c0100000000000000000000000000000000000000000000000000000000028152600401808373ffffffffffffffffffffffffffffffffffffffff1673ffffffffffffffffffffffffffffffffffffffff16815260200182815260200192505050600060405180830381600087803b151561320a57600080fd5b6102c65a03f1151561321b57600080fd5b5050508373ffffffffffffffffffffffffffffffffffffffff1663095ea7b3600260009054906101000a900473ffffffffffffffffffffffffffffffffffffffff1673ffffffffffffffffffffffffffffffffffffffff166339b9c30c876000604051602001526040518263ffffffff167c0100000000000000000000000000000000000000000000000000000000028152600401808273ffffffffffffffffffffffffffffffffffffffff1673ffffffffffffffffffffffffffffffffffffffff168152602001915050602060405180830381600087803b15156132ff57600080fd5b6102c65a03f1151561331057600080fd5b50505060405180519050600260009054906101000a900473ffffffffffffffffffffffffffffffffffffffff1673ffffffffffffffffffffffffffffffffffffffff1663aea91078886000604051602001526040518263ffffffff167c0100000000000000000000000000000000000000000000000000000000028152600401808273ffffffffffffffffffffffffffffffffffffffff1673ffffffffffffffffffffffffffffffffffffffff168152602001915050602060405180830381600087803b15156133df57600080fd5b6102c65a03f115156133f057600080fd5b505050604051805190506040518363ffffffff167c0100000000000000000000000000000000000000000000000000000000028152600401808373ffffffffffffffffffffffffffffffffffffffff1673ffffffffffffffffffffffffffffffffffffffff16815260200182815260200192505050600060405180830381600087803b151561347e57600080fd5b6102c65a03f1151561348f57600080fd5b50505050505050565b600160009054906101000a900473ffffffffffffffffffffffffffffffffffffffff1673ffffffffffffffffffffffffffffffffffffffff166356ff942d336000604051602001526040518263ffffffff167c0100000000000000000000000000000000000000000000000000000000028152600401808273ffffffffffffffffffffffffffffffffffffffff1673ffffffffffffffffffffffffffffffffffffffff168152602001915050602060405180830381600087803b151561355d57600080fd5b6102c65a03f1151561356e57600080fd5b50505060405180519050151561358357600080fd5b80600880600a81111561359257fe5b600260009054906101000a900473ffffffffffffffffffffffffffffffffffffffff1673ffffffffffffffffffffffffffffffffffffffff166331e658a5846000604051602001526040518263ffffffff167c0100000000000000000000000000000000000000000000000000000000028152600401808273ffffffffffffffffffffffffffffffffffffffff1673ffffffffffffffffffffffffffffffffffffffff168152602001915050602060405180830381600087803b151561365757600080fd5b6102c65a03f1151561366857600080fd5b50505060405180519050600a81111561367d57fe5b14151561368957600080fd5b600260009054906101000a900473ffffffffffffffffffffffffffffffffffffffff1673ffffffffffffffffffffffffffffffffffffffff166327737d588460096040518363ffffffff167c0100000000000000000000000000000000000000000000000000000000028152600401808373ffffffffffffffffffffffffffffffffffffffff1673ffffffffffffffffffffffffffffffffffffffff16815260200182600a81111561373757fe5b60ff16815260200192505050600060405180830381600087803b151561375c57600080fd5b6102c65a03f1151561376d57600080fd5b50505033600b60008573ffffffffffffffffffffffffffffffffffffffff1673ffffffffffffffffffffffffffffffffffffffff16815260200190815260200160002060006101000a81548173ffffffffffffffffffffffffffffffffffffffff021916908373ffffffffffffffffffffffffffffffffffffffff16021790555042600660008573ffffffffffffffffffffffffffffffffffffffff1673ffffffffffffffffffffffffffffffffffffffff168152602001908152602001600020819055506001600a60008573ffffffffffffffffffffffffffffffffffffffff1673ffffffffffffffffffffffffffffffffffffffff16815260200190815260200160002060006101000a81548160ff021916908315150217905550505050565b80600980600a81111561389e57fe5b600260009054906101000a900473ffffffffffffffffffffffffffffffffffffffff1673ffffffffffffffffffffffffffffffffffffffff166331e658a5846000604051602001526040518263ffffffff167c0100000000000000000000000000000000000000000000000000000000028152600401808273ffffffffffffffffffffffffffffffffffffffff1673ffffffffffffffffffffffffffffffffffffffff168152602001915050602060405180830381600087803b151561396357600080fd5b6102c65a03f1151561397457600080fd5b50505060405180519050600a81111561398957fe5b14151561399557600080fd5b6002600660008573ffffffffffffffffffffffffffffffffffffffff1673ffffffffffffffffffffffffffffffffffffffff16815260200190815260200160002054014211158015156139e757600080fd5b600260009054906101000a900473ffffffffffffffffffffffffffffffffffffffff1673ffffffffffffffffffffffffffffffffffffffff166339b9c30c856000604051602001526040518263ffffffff167c0100000000000000000000000000000000000000000000000000000000028152600401808273ffffffffffffffffffffffffffffffffffffffff1673ffffffffffffffffffffffffffffffffffffffff168152602001915050602060405180830381600087803b1515613aac57600080fd5b6102c65a03f11515613abd57600080fd5b5050506040518051905073ffffffffffffffffffffffffffffffffffffffff163373ffffffffffffffffffffffffffffffffffffffff161480613c0a5750600260009054906101000a900473ffffffffffffffffffffffffffffffffffffffff1673ffffffffffffffffffffffffffffffffffffffff1663b7748208856000604051602001526040518263ffffffff167c0100000000000000000000000000000000000000000000000000000000028152600401808273ffffffffffffffffffffffffffffffffffffffff1673ffffffffffffffffffffffffffffffffffffffff168152602001915050602060405180830381600087803b1515613bc057600080fd5b6102c65a03f11515613bd157600080fd5b5050506040518051905073ffffffffffffffffffffffffffffffffffffffff163373ffffffffffffffffffffffffffffffffffffffff16145b80613d1f5750600360009054906101000a900473ffffffffffffffffffffffffffffffffffffffff1673ffffffffffffffffffffffffffffffffffffffff1663e21a8991856000604051602001526040518263ffffffff167c0100000000000000000000000000000000000000000000000000000000028152600401808273ffffffffffffffffffffffffffffffffffffffff1673ffffffffffffffffffffffffffffffffffffffff168152602001915050602060405180830381600087803b1515613cd557600080fd5b6102c65a03f11515613ce657600080fd5b5050506040518051905073ffffffffffffffffffffffffffffffffffffffff163373ffffffffffffffffffffffffffffffffffffffff16145b801515613d2b57600080fd5b600260009054906101000a900473ffffffffffffffffffffffffffffffffffffffff1673ffffffffffffffffffffffffffffffffffffffff166327737d588660086040518363ffffffff167c0100000000000000000000000000000000000000000000000000000000028152600401808373ffffffffffffffffffffffffffffffffffffffff1673ffffffffffffffffffffffffffffffffffffffff16815260200182600a811115613dd957fe5b60ff16815260200192505050600060405180830381600087803b1515613dfe57600080fd5b6102c65a03f11515613e0f57600080fd5b505050600760008673ffffffffffffffffffffffffffffffffffffffff1673ffffffffffffffffffffffffffffffffffffffff16815260200190815260200160002060009055600860008673ffffffffffffffffffffffffffffffffffffffff1673ffffffffffffffffffffffffffffffffffffffff16815260200190815260200160002060009055600960008673ffffffffffffffffffffffffffffffffffffffff1673ffffffffffffffffffffffffffffffffffffffff168152602001908152602001600020600090556000600a60008773ffffffffffffffffffffffffffffffffffffffff1673ffffffffffffffffffffffffffffffffffffffff16815260200190815260200160002060006101000a81548160ff0219169083151502179055505050505050565b60046020528060005260406000206000915090505481565b600160009054906101000a900473ffffffffffffffffffffffffffffffffffffffff1673ffffffffffffffffffffffffffffffffffffffff166356ff942d336000604051602001526040518263ffffffff167c0100000000000000000000000000000000000000000000000000000000028152600401808273ffffffffffffffffffffffffffffffffffffffff1673ffffffffffffffffffffffffffffffffffffffff168152602001915050602060405180830381600087803b151561401757600080fd5b6102c65a03f1151561402857600080fd5b50505060405180519050151561403d57600080fd5b83600880600a81111561404c57fe5b600260009054906101000a900473ffffffffffffffffffffffffffffffffffffffff1673ffffffffffffffffffffffffffffffffffffffff166331e658a5846000604051602001526040518263ffffffff167c0100000000000000000000000000000000000000000000000000000000028152600401808273ffffffffffffffffffffffffffffffffffffffff1673ffffffffffffffffffffffffffffffffffffffff168152602001915050602060405180830381600087803b151561411157600080fd5b6102c65a03f1151561412257600080fd5b50505060405180519050600a81111561413757fe5b14151561414357600080fd5b6000809054906101000a900473ffffffffffffffffffffffffffffffffffffffff1673ffffffffffffffffffffffffffffffffffffffff166370a08231876000604051602001526040518263ffffffff167c0100000000000000000000000000000000000000000000000000000000028152600401808273ffffffffffffffffffffffffffffffffffffffff1673ffffffffffffffffffffffffffffffffffffffff168152602001915050602060405180830381600087803b151561420757600080fd5b6102c65a03f1151561421857600080fd5b50505060405180519050600460008873ffffffffffffffffffffffffffffffffffffffff1673ffffffffffffffffffffffffffffffffffffffff168152602001908152602001600020548486880101011480151561427557600080fd5b600260009054906101000a900473ffffffffffffffffffffffffffffffffffffffff1673ffffffffffffffffffffffffffffffffffffffff166327737d588860096040518363ffffffff167c0100000000000000000000000000000000000000000000000000000000028152600401808373ffffffffffffffffffffffffffffffffffffffff1673ffffffffffffffffffffffffffffffffffffffff16815260200182600a81111561432357fe5b60ff16815260200192505050600060405180830381600087803b151561434857600080fd5b6102c65a03f1151561435957600080fd5b50505033600b60008973ffffffffffffffffffffffffffffffffffffffff1673ffffffffffffffffffffffffffffffffffffffff16815260200190815260200160002060006101000a81548173ffffffffffffffffffffffffffffffffffffffff021916908373ffffffffffffffffffffffffffffffffffffffff16021790555042600660008973ffffffffffffffffffffffffffffffffffffffff1673ffffffffffffffffffffffffffffffffffffffff1681526020019081526020016000208190555085600760008973ffffffffffffffffffffffffffffffffffffffff1673ffffffffffffffffffffffffffffffffffffffff1681526020019081526020016000208190555084600860008973ffffffffffffffffffffffffffffffffffffffff1673ffffffffffffffffffffffffffffffffffffffff1681526020019081526020016000208190555083600960008973ffffffffffffffffffffffffffffffffffffffff1673ffffffffffffffffffffffffffffffffffffffff1681526020019081526020016000208190555050505050505050565b600860205280600052604060002060009150905054815600a165627a7a723058202440f725875b7c9f7eddbdfa3e68fda596f0a3afc5a1784d096b2eb3b775858c0029",
  "source": "pragma solidity ^0.4.0;\r\n\r\nimport \"../Token/Token.sol\";\r\nimport \"./SensorLibrary.sol\";\r\nimport \"./AgreementData.sol\";\r\nimport \"./AgreementDeliver.sol\";\r\nimport \"./MinimalPurchase.sol\";\r\nimport \"../Voting/Clerk.sol\";\r\n\r\ncontract AgreementReturn {\r\n\r\n  uint constant day = 2;\r\n\r\n  Token t;\r\n  Clerk c;\r\n  AgreementData p;\r\n  AgreementDeliver a;\r\n  bool agreementDataSet;\r\n\r\n  mapping(address => uint) public clerkPayment;\r\n  mapping(address => AgreementData.State) previousState;\r\n  mapping(address => uint) public arrivalTime;\r\n  mapping(address => uint) public sellerTokens;\r\n  mapping(address => uint) public buyerTokens;\r\n  mapping(address => uint) public logisticsTokens;\r\n  mapping(address => bool) public returnToPrevState;\r\n  mapping(address => address) public currentClerk;\r\n\r\n  modifier condition(bool _condition) {\r\n    require(_condition);\r\n    _;\r\n  }\r\n\r\n  modifier onlyBuyer(address purchase) {\r\n    require(p.buyer(purchase) == msg.sender);\r\n    _;\r\n  }\r\n\r\n  modifier onlySeller(address purchase) {\r\n    require(p.seller(purchase) == msg.sender);\r\n    _;\r\n  }\r\n\r\n  modifier onlyDeliveryCompany(address purchase) {\r\n    require(a.deliveryCompany(purchase) == msg.sender);\r\n    _;\r\n  }\r\n\r\n  modifier notSeller(address purchase) {\r\n    require(!(p.seller(purchase) == msg.sender));\r\n    _;\r\n  }\r\n\r\n  modifier inState(address purchase, AgreementData.State _state) {\r\n    require(p.state(purchase) == _state);\r\n    _;\r\n  }\r\n\r\n  modifier onlyClerk() {\r\n    require(c.isClerk(msg.sender));\r\n    _;\r\n  }\r\n\r\n  event Proposed(address from);\r\n  event Declined(address from);\r\n  event Accepted(address from);\r\n  event Delivered(address from);\r\n  event Satisfied(address from);\r\n  event Dissatisfied(address from);\r\n\r\n  function AgreementReturn(address _token, address _clerk, address _agreementDeliver) public {\r\n    t = Token(_token);\r\n    c = Clerk(_clerk);\r\n    a = AgreementDeliver(_agreementDeliver);\r\n  }\r\n\r\n  /** @dev Set the address of the contract handling the agreement data. Can only be called once.\r\n    */\r\n  function setAgreementData()\r\n    public\r\n    condition(!agreementDataSet)\r\n    returns(bool)\r\n  {\r\n    agreementDataSet = true;\r\n    p = AgreementData(msg.sender);\r\n    return true;\r\n  }\r\n\r\n  ////////////////////////\r\n  ///---Dissatisfied---///\r\n  ////////////////////////\r\n\r\n  /** @dev Begin the return of the goods\r\n    * @param purchase The address of the agreement\r\n    */\r\n  function transportReturn(address purchase)\r\n    public\r\n    inState(purchase, AgreementData.State.Dissatisfied)\r\n    onlyDeliveryCompany(purchase)\r\n  {\r\n    p.setState(purchase, AgreementData.State.Return);\r\n  }\r\n\r\n  //////////////////\r\n  ///---Return---///\r\n  //////////////////\r\n\r\n  /** @dev Deliver the returned goods\r\n    * @param purchase The address of the agreement\r\n    */\r\n  function deliverReturn(address purchase)\r\n    public\r\n    inState(purchase, AgreementData.State.Return)\r\n    onlyDeliveryCompany(purchase)\r\n  {\r\n    p.setState(purchase, AgreementData.State.Returned);\r\n    arrivalTime[purchase] = now;\r\n  }\r\n\r\n  ////////////////////\r\n  ///---Returned---///\r\n  ////////////////////\r\n\r\n  /** @dev Successful return of goods. Can be called by anyone after a certain time.\r\n    * @param purchase The address of the agreement\r\n    */\r\n  function successReturn(address purchase)\r\n    public\r\n    inState(purchase, AgreementData.State.Returned)\r\n    condition(now > arrivalTime[purchase] + day)\r\n  {\r\n    p.setState(purchase, AgreementData.State.Inactive);\r\n    MinimalPurchase(purchase).approve(p.buyer(purchase), p.price(purchase));\r\n    MinimalPurchase(purchase).approve(a.deliveryCompany(purchase), p.price(purchase));\r\n  }\r\n\r\n  /** @dev Can be called by the seller to ask for compensation for the goods.\r\n    * @param purchase The address of the agreement\r\n    */\r\n  function goodsDamaged(address purchase)\r\n    public\r\n    onlySeller(purchase)\r\n    inState(purchase, AgreementData.State.Returned)\r\n    condition(now <= arrivalTime[purchase] + day)\r\n  {\r\n    p.setState(purchase, AgreementData.State.Review);\r\n  }\r\n\r\n  //////////////////\r\n  ///---Review---///\r\n  //////////////////\r\n\r\n  /** @dev Can be called by the seller to ask for compensation for the goods.\r\n    * @param purchase The address of the agreement\r\n    */\r\n  function compensate(address purchase)\r\n    public\r\n    onlyDeliveryCompany(purchase)\r\n    inState(purchase, AgreementData.State.Review)\r\n  {\r\n    p.setState(purchase, AgreementData.State.Inactive);\r\n    MinimalPurchase(purchase).approve(p.buyer(purchase), p.price(purchase));\r\n    MinimalPurchase(purchase).approve(p.seller(purchase), p.price(purchase));\r\n  }\r\n\r\n  /////////////////\r\n  ///---Clerk---///\r\n  /////////////////\r\n\r\n  /** @dev A clerk proposes a solution to a disagreement\r\n    * @param purchase The address of the agreement\r\n    * @param _seller Tokens to seller\r\n    * @param _seller Tokens to buyer\r\n    * @param _delivery Tokens to delivery company\r\n    */\r\n  function solve(address purchase, uint _seller, uint _buyer, uint _delivery)\r\n    public\r\n    onlyClerk()\r\n    inState(purchase, AgreementData.State.Clerk)\r\n    condition(_seller+_buyer+_delivery+clerkPayment[purchase] == t.balanceOf(purchase))\r\n  {\r\n    p.setState(purchase, AgreementData.State.Appeal);\r\n    currentClerk[purchase] = msg.sender;\r\n    arrivalTime[purchase] = now;\r\n\r\n    sellerTokens[purchase] = _seller;\r\n    buyerTokens[purchase] = _buyer;\r\n    logisticsTokens[purchase] = _delivery;\r\n  }\r\n\r\n  /** @dev A clerk proposes a return to the previous state\r\n    * @param purchase The address of the agreement\r\n    */\r\n  function returnToPreviousState(address purchase)\r\n    public\r\n    onlyClerk()\r\n    inState(purchase, AgreementData.State.Clerk)\r\n  {\r\n    p.setState(purchase, AgreementData.State.Appeal);\r\n    currentClerk[purchase] = msg.sender;\r\n    arrivalTime[purchase] = now;\r\n    returnToPrevState[purchase] = true;\r\n  }\r\n\r\n  /** @dev Increase the reward given to a clerk with an acceptable solution\r\n    * @param purchase The address of the agreement\r\n    * @param amount The amount to increase the reward with\r\n    */\r\n  function increaseClerkPayment(address purchase, uint amount)\r\n    public\r\n    inState(purchase, AgreementData.State.Clerk)\r\n  {\r\n    clerkPayment[purchase] += amount;\r\n    MinimalPurchase(purchase).transferFrom(msg.sender, amount);\r\n  }\r\n\r\n  //////////////////\r\n  ///---Appeal---///\r\n  //////////////////\r\n\r\n  /** @dev Appeal against a clerk's decision\r\n    * @param purchase The address of the agreement\r\n    */\r\n  function rejectClerkDecision(address purchase)\r\n    public\r\n    inState(purchase, AgreementData.State.Appeal)\r\n    condition(now <= arrivalTime[purchase] + day)\r\n    condition(msg.sender == p.seller(purchase)\r\n      || msg.sender == p.buyer(purchase)\r\n      || msg.sender == a.deliveryCompany(purchase))\r\n  {\r\n    p.setState(purchase, AgreementData.State.Clerk);\r\n\r\n    delete sellerTokens[purchase];\r\n    delete buyerTokens[purchase];\r\n    delete logisticsTokens[purchase];\r\n    returnToPrevState[purchase] = false;\r\n  }\r\n\r\n  /** @dev Accept the decision made by a clerk. Available for anyone after a certain time.\r\n    * @param purchase The address of the agreement\r\n    */\r\n  function finalizeClerkDecision(address purchase)\r\n    public\r\n    inState(purchase, AgreementData.State.Appeal)\r\n    condition(now > arrivalTime[purchase] + day)\r\n  {\r\n    if (returnToPrevState[purchase]) {\r\n      p.setState(purchase, previousState[purchase]);\r\n    } else {\r\n      p.setState(purchase, AgreementData.State.Inactive);\r\n\r\n      MinimalPurchase(purchase).approve(p.seller(purchase), sellerTokens[purchase]);\r\n      MinimalPurchase(purchase).approve(a.deliveryCompany(purchase), logisticsTokens[purchase]);\r\n      MinimalPurchase(purchase).approve(p.buyer(purchase), buyerTokens[purchase]);\r\n    }\r\n    uint tokens = clerkPayment[purchase];\r\n    clerkPayment[purchase] = 0;\r\n\r\n    MinimalPurchase(purchase).approve(currentClerk[purchase], tokens);\r\n  }\r\n\r\n  ///////////////////////////\r\n  ///---Other functions---///\r\n  ///////////////////////////\r\n\r\n  /** @dev Lock the contract and wait for a clerk to come up with a solution\r\n    * @param purchase The address of the agreement\r\n    * @param payment The reward promised to the clerk\r\n    */\r\n  function clerk(address purchase, uint payment)\r\n    public\r\n    condition(p.state(purchase) != AgreementData.State.Clerk)\r\n    condition(msg.sender == p.seller(purchase)\r\n      || msg.sender == p.buyer(purchase)\r\n      || msg.sender == a.deliveryCompany(purchase))\r\n  {\r\n    AgreementData.State s = p.state(purchase);\r\n\r\n    p.setState(purchase, AgreementData.State.Clerk);\r\n    previousState[purchase] = s;\r\n\r\n    clerkPayment[purchase] += payment;\r\n    MinimalPurchase(purchase).transferFrom(msg.sender, payment);\r\n  }\r\n}\r\n",
  "sourcePath": "C:\\Users\\axevalli\\IdeaProjects\\smart-package-2\\smart-package\\contracts\\Purchase\\AgreementReturn.sol",
  "compiler": {
    "name": "solc",
    "version": "0.4.18+commit.9cf6e910.Emscripten.clang"
  },
  "schemaVersion": "1.0.1",
  "updatedAt": "2018-05-14T06:45:05.520Z"
}