{
  "contractName": "AgreementData",
  "abi": [
    {
      "constant": false,
      "inputs": [
        {
          "name": "purchase",
          "type": "address"
        },
        {
          "name": "_price",
          "type": "uint256"
        }
      ],
      "name": "setPrice",
      "outputs": [],
      "payable": false,
      "stateMutability": "nonpayable",
      "type": "function"
    },
    {
      "constant": false,
      "inputs": [],
      "name": "setDapp",
      "outputs": [
        {
          "name": "",
          "type": "bool"
        }
      ],
      "payable": false,
      "stateMutability": "nonpayable",
      "type": "function"
    },
    {
      "constant": false,
      "inputs": [
        {
          "name": "purchase",
          "type": "address"
        },
        {
          "name": "_state",
          "type": "uint8"
        }
      ],
      "name": "setState",
      "outputs": [],
      "payable": false,
      "stateMutability": "nonpayable",
      "type": "function"
    },
    {
      "constant": true,
      "inputs": [
        {
          "name": "",
          "type": "address"
        }
      ],
      "name": "state",
      "outputs": [
        {
          "name": "",
          "type": "uint8"
        }
      ],
      "payable": false,
      "stateMutability": "view",
      "type": "function"
    },
    {
      "constant": true,
      "inputs": [
        {
          "name": "",
          "type": "address"
        }
      ],
      "name": "seller",
      "outputs": [
        {
          "name": "",
          "type": "address"
        }
      ],
      "payable": false,
      "stateMutability": "view",
      "type": "function"
    },
    {
      "constant": false,
      "inputs": [
        {
          "name": "purchase",
          "type": "address"
        },
        {
          "name": "_price",
          "type": "uint256"
        },
        {
          "name": "_seller",
          "type": "address"
        },
        {
          "name": "maxTemp",
          "type": "int256"
        },
        {
          "name": "minTemp",
          "type": "int256"
        },
        {
          "name": "acceleration",
          "type": "int256"
        },
        {
          "name": "humidity",
          "type": "int256"
        },
        {
          "name": "pressure",
          "type": "int256"
        },
        {
          "name": "gps",
          "type": "bool"
        }
      ],
      "name": "newPurchase",
      "outputs": [],
      "payable": false,
      "stateMutability": "nonpayable",
      "type": "function"
    },
    {
      "constant": false,
      "inputs": [
        {
          "name": "purchase",
          "type": "address"
        },
        {
          "name": "_deliveryAddress",
          "type": "string"
        },
        {
          "name": "maxTemp",
          "type": "int256"
        },
        {
          "name": "minTemp",
          "type": "int256"
        },
        {
          "name": "acceleration",
          "type": "int256"
        },
        {
          "name": "humidity",
          "type": "int256"
        },
        {
          "name": "pressure",
          "type": "int256"
        },
        {
          "name": "gps",
          "type": "bool"
        }
      ],
      "name": "propose",
      "outputs": [],
      "payable": false,
      "stateMutability": "nonpayable",
      "type": "function"
    },
    {
      "constant": false,
      "inputs": [
        {
          "name": "purchase",
          "type": "address"
        },
        {
          "name": "sensorType",
          "type": "uint256"
        },
        {
          "name": "value",
          "type": "int256"
        }
      ],
      "name": "sensorData",
      "outputs": [],
      "payable": false,
      "stateMutability": "nonpayable",
      "type": "function"
    },
    {
      "constant": true,
      "inputs": [
        {
          "name": "purchase",
          "type": "address"
        },
        {
          "name": "sensorType",
          "type": "uint256"
        },
        {
          "name": "_buyer",
          "type": "uint256"
        }
      ],
      "name": "getProposedTerms",
      "outputs": [
        {
          "name": "threshold",
          "type": "int256"
        },
        {
          "name": "warning",
          "type": "bool"
        },
        {
          "name": "provider",
          "type": "address"
        },
        {
          "name": "set",
          "type": "bool"
        }
      ],
      "payable": false,
      "stateMutability": "view",
      "type": "function"
    },
    {
      "constant": false,
      "inputs": [
        {
          "name": "purchase",
          "type": "address"
        },
        {
          "name": "_buyer",
          "type": "uint256"
        }
      ],
      "name": "decline",
      "outputs": [],
      "payable": false,
      "stateMutability": "nonpayable",
      "type": "function"
    },
    {
      "constant": true,
      "inputs": [
        {
          "name": "",
          "type": "address"
        },
        {
          "name": "",
          "type": "address"
        }
      ],
      "name": "deliveryAddress",
      "outputs": [
        {
          "name": "",
          "type": "string"
        }
      ],
      "payable": false,
      "stateMutability": "view",
      "type": "function"
    },
    {
      "constant": false,
      "inputs": [
        {
          "name": "purchase",
          "type": "address"
        },
        {
          "name": "sensorType",
          "type": "uint256"
        }
      ],
      "name": "setProvider",
      "outputs": [],
      "payable": false,
      "stateMutability": "nonpayable",
      "type": "function"
    },
    {
      "constant": true,
      "inputs": [
        {
          "name": "purchase",
          "type": "address"
        }
      ],
      "name": "getPotentialBuyers",
      "outputs": [
        {
          "name": "_proposals",
          "type": "address[]"
        }
      ],
      "payable": false,
      "stateMutability": "view",
      "type": "function"
    },
    {
      "constant": false,
      "inputs": [
        {
          "name": "purchase",
          "type": "address"
        },
        {
          "name": "sensorType",
          "type": "uint256"
        }
      ],
      "name": "requestData",
      "outputs": [],
      "payable": false,
      "stateMutability": "nonpayable",
      "type": "function"
    },
    {
      "constant": true,
      "inputs": [
        {
          "name": "",
          "type": "address"
        }
      ],
      "name": "price",
      "outputs": [
        {
          "name": "",
          "type": "uint256"
        }
      ],
      "payable": false,
      "stateMutability": "view",
      "type": "function"
    },
    {
      "constant": true,
      "inputs": [
        {
          "name": "",
          "type": "address"
        }
      ],
      "name": "buyer",
      "outputs": [
        {
          "name": "",
          "type": "address"
        }
      ],
      "payable": false,
      "stateMutability": "view",
      "type": "function"
    },
    {
      "constant": false,
      "inputs": [
        {
          "name": "purchase",
          "type": "address"
        },
        {
          "name": "_buyer",
          "type": "uint256"
        }
      ],
      "name": "accept",
      "outputs": [],
      "payable": false,
      "stateMutability": "nonpayable",
      "type": "function"
    },
    {
      "constant": true,
      "inputs": [
        {
          "name": "",
          "type": "address"
        },
        {
          "name": "",
          "type": "uint256"
        }
      ],
      "name": "potentialBuyers",
      "outputs": [
        {
          "name": "",
          "type": "address"
        }
      ],
      "payable": false,
      "stateMutability": "view",
      "type": "function"
    },
    {
      "constant": true,
      "inputs": [
        {
          "name": "purchase",
          "type": "address"
        },
        {
          "name": "sensorType",
          "type": "uint256"
        }
      ],
      "name": "getSensor",
      "outputs": [
        {
          "name": "threshold",
          "type": "int256"
        },
        {
          "name": "warning",
          "type": "bool"
        },
        {
          "name": "provider",
          "type": "address"
        },
        {
          "name": "set",
          "type": "bool"
        }
      ],
      "payable": false,
      "stateMutability": "view",
      "type": "function"
    },
    {
      "inputs": [
        {
          "name": "_token",
          "type": "address"
        },
        {
          "name": "agreementDeliver",
          "type": "address"
        },
        {
          "name": "agreementReturn",
          "type": "address"
        }
      ],
      "payable": false,
      "stateMutability": "nonpayable",
      "type": "constructor"
    },
    {
      "anonymous": false,
      "inputs": [
        {
          "indexed": false,
          "name": "from",
          "type": "address"
        }
      ],
      "name": "Proposed",
      "type": "event"
    },
    {
      "anonymous": false,
      "inputs": [
        {
          "indexed": false,
          "name": "from",
          "type": "address"
        }
      ],
      "name": "Declined",
      "type": "event"
    },
    {
      "anonymous": false,
      "inputs": [
        {
          "indexed": false,
          "name": "from",
          "type": "address"
        }
      ],
      "name": "Accepted",
      "type": "event"
    },
    {
      "anonymous": false,
      "inputs": [
        {
          "indexed": true,
          "name": "provider",
          "type": "address"
        }
      ],
      "name": "Request",
      "type": "event"
    }
  ],
  "bytecode": "0x606060405234156200001057600080fd5b6040516060806200274183398101604052808051906020019091908051906020019091908051906020019091905050826000806101000a81548173ffffffffffffffffffffffffffffffffffffffff021916908373ffffffffffffffffffffffffffffffffffffffff160217905550600180548060010182816200009591906200027c565b9160005260206000209001600084909190916101000a81548173ffffffffffffffffffffffffffffffffffffffff021916908373ffffffffffffffffffffffffffffffffffffffff1602179055505060018054806001018281620000fa91906200027c565b9160005260206000209001600083909190916101000a81548173ffffffffffffffffffffffffffffffffffffffff021916908373ffffffffffffffffffffffffffffffffffffffff160217905550508173ffffffffffffffffffffffffffffffffffffffff166399d32f576000604051602001526040518163ffffffff167c0100000000000000000000000000000000000000000000000000000000028152600401602060405180830381600087803b1515620001b657600080fd5b6102c65a03f11515620001c857600080fd5b505050604051805190501515620001de57600080fd5b8073ffffffffffffffffffffffffffffffffffffffff166399d32f576000604051602001526040518163ffffffff167c0100000000000000000000000000000000000000000000000000000000028152600401602060405180830381600087803b15156200024b57600080fd5b6102c65a03f115156200025d57600080fd5b5050506040518051905015156200027357600080fd5b505050620002d3565b815481835581811511620002a657818360005260206000209182019101620002a59190620002ab565b5b505050565b620002d091905b80821115620002cc576000816000905550600101620002b2565b5090565b90565b61245e80620002e36000396000f300606060405260043610610106576000357c0100000000000000000000000000000000000000000000000000000000900463ffffffff168062e4768b1461010b57806320a1e1b01461014d57806327737d581461017a57806331e658a5146101bf57806339b9c30c1461021a5780634e0c3172146102935780636f1d20831461032c57806381783698146103e05780638757a7bd1461042b57806392635c59146104d35780639452412a146105155780639a0ffe1a146105e6578063a2a432e014610628578063ad0301b7146106b6578063aea91078146106f8578063b774820814610745578063cd67571c146107be578063d4887e7d14610800578063fdaa453d14610882575b600080fd5b341561011657600080fd5b61014b600480803573ffffffffffffffffffffffffffffffffffffffff16906020019091908035906020019091905050610921565b005b341561015857600080fd5b610160610ac2565b604051808215151515815260200191505060405180910390f35b341561018557600080fd5b6101bd600480803573ffffffffffffffffffffffffffffffffffffffff1690602001909190803560ff16906020019091905050610b45565b005b34156101ca57600080fd5b6101f6600480803573ffffffffffffffffffffffffffffffffffffffff16906020019091905050610c8e565b6040518082600a81111561020657fe5b60ff16815260200191505060405180910390f35b341561022557600080fd5b610251600480803573ffffffffffffffffffffffffffffffffffffffff16906020019091905050610cae565b604051808273ffffffffffffffffffffffffffffffffffffffff1673ffffffffffffffffffffffffffffffffffffffff16815260200191505060405180910390f35b341561029e57600080fd5b61032a600480803573ffffffffffffffffffffffffffffffffffffffff1690602001909190803590602001909190803573ffffffffffffffffffffffffffffffffffffffff169060200190919080359060200190919080359060200190919080359060200190919080359060200190919080359060200190919080351515906020019091905050610ce1565b005b341561033757600080fd5b6103de600480803573ffffffffffffffffffffffffffffffffffffffff1690602001909190803590602001908201803590602001908080601f016020809104026020016040519081016040528093929190818152602001838380828437820191505050505050919080359060200190919080359060200190919080359060200190919080359060200190919080359060200190919080351515906020019091905050610f17565b005b34156103eb57600080fd5b610429600480803573ffffffffffffffffffffffffffffffffffffffff1690602001909190803590602001909190803590602001909190505061132a565b005b341561043657600080fd5b610474600480803573ffffffffffffffffffffffffffffffffffffffff1690602001909190803590602001909190803590602001909190505061150f565b60405180858152602001841515151581526020018373ffffffffffffffffffffffffffffffffffffffff1673ffffffffffffffffffffffffffffffffffffffff1681526020018215151515815260200194505050505060405180910390f35b34156104de57600080fd5b610513600480803573ffffffffffffffffffffffffffffffffffffffff1690602001909190803590602001909190505061161d565b005b341561052057600080fd5b61056b600480803573ffffffffffffffffffffffffffffffffffffffff1690602001909190803573ffffffffffffffffffffffffffffffffffffffff169060200190919050506117ab565b6040518080602001828103825283818151815260200191508051906020019080838360005b838110156105ab578082015181840152602081019050610590565b50505050905090810190601f1680156105d85780820380516001836020036101000a031916815260200191505b509250505060405180910390f35b34156105f157600080fd5b610626600480803573ffffffffffffffffffffffffffffffffffffffff16906020019091908035906020019091905050611868565b005b341561063357600080fd5b61065f600480803573ffffffffffffffffffffffffffffffffffffffff169060200190919050506119e1565b6040518080602001828103825283818151815260200191508051906020019060200280838360005b838110156106a2578082015181840152602081019050610687565b505050509050019250505060405180910390f35b34156106c157600080fd5b6106f6600480803573ffffffffffffffffffffffffffffffffffffffff16906020019091908035906020019091905050611ab4565b005b341561070357600080fd5b61072f600480803573ffffffffffffffffffffffffffffffffffffffff16906020019091905050611c51565b6040518082815260200191505060405180910390f35b341561075057600080fd5b61077c600480803573ffffffffffffffffffffffffffffffffffffffff16906020019091905050611c69565b604051808273ffffffffffffffffffffffffffffffffffffffff1673ffffffffffffffffffffffffffffffffffffffff16815260200191505060405180910390f35b34156107c957600080fd5b6107fe600480803573ffffffffffffffffffffffffffffffffffffffff16906020019091908035906020019091905050611c9c565b005b341561080b57600080fd5b610840600480803573ffffffffffffffffffffffffffffffffffffffff169060200190919080359060200190919050506121e1565b604051808273ffffffffffffffffffffffffffffffffffffffff1673ffffffffffffffffffffffffffffffffffffffff16815260200191505060405180910390f35b341561088d57600080fd5b6108c2600480803573ffffffffffffffffffffffffffffffffffffffff1690602001909190803590602001909190505061222f565b60405180858152602001841515151581526020018373ffffffffffffffffffffffffffffffffffffffff1673ffffffffffffffffffffffffffffffffffffffff1681526020018215151515815260200194505050505060405180910390f35b813373ffffffffffffffffffffffffffffffffffffffff16600560008373ffffffffffffffffffffffffffffffffffffffff1673ffffffffffffffffffffffffffffffffffffffff16815260200190815260200160002060009054906101000a900473ffffffffffffffffffffffffffffffffffffffff1673ffffffffffffffffffffffffffffffffffffffff161415156109bb57600080fd5b6000600a8111156109c857fe5b600460008573ffffffffffffffffffffffffffffffffffffffff1673ffffffffffffffffffffffffffffffffffffffff16815260200190815260200160002060009054906101000a900460ff16600a811115610a2057fe5b14801515610a2d57600080fd5b600960008573ffffffffffffffffffffffffffffffffffffffff1673ffffffffffffffffffffffffffffffffffffffff1681526020019081526020016000206000610a78919061232c565b82600360008673ffffffffffffffffffffffffffffffffffffffff1673ffffffffffffffffffffffffffffffffffffffff1681526020019081526020016000208190555050505050565b6000600260149054906101000a900460ff1615801515610ae157600080fd5b6001600260146101000a81548160ff02191690831515021790555033600260006101000a81548173ffffffffffffffffffffffffffffffffffffffff021916908373ffffffffffffffffffffffffffffffffffffffff160217905550600191505090565b60016000815481101515610b5557fe5b906000526020600020900160009054906101000a900473ffffffffffffffffffffffffffffffffffffffff1673ffffffffffffffffffffffffffffffffffffffff163373ffffffffffffffffffffffffffffffffffffffff161480610c1f5750600180815481101515610bc457fe5b906000526020600020900160009054906101000a900473ffffffffffffffffffffffffffffffffffffffff1673ffffffffffffffffffffffffffffffffffffffff163373ffffffffffffffffffffffffffffffffffffffff16145b1515610c2a57600080fd5b80600460008473ffffffffffffffffffffffffffffffffffffffff1673ffffffffffffffffffffffffffffffffffffffff16815260200190815260200160002060006101000a81548160ff0219169083600a811115610c8557fe5b02179055505050565b60046020528060005260406000206000915054906101000a900460ff1681565b60056020528060005260406000206000915054906101000a900473ffffffffffffffffffffffffffffffffffffffff1681565b600260009054906101000a900473ffffffffffffffffffffffffffffffffffffffff1673ffffffffffffffffffffffffffffffffffffffff163373ffffffffffffffffffffffffffffffffffffffff1614801515610d3e57600080fd5b88600360008c73ffffffffffffffffffffffffffffffffffffffff1673ffffffffffffffffffffffffffffffffffffffff1681526020019081526020016000208190555087600560008c73ffffffffffffffffffffffffffffffffffffffff1673ffffffffffffffffffffffffffffffffffffffff16815260200190815260200160002060006101000a81548173ffffffffffffffffffffffffffffffffffffffff021916908373ffffffffffffffffffffffffffffffffffffffff16021790555073__SensorLibrary_________________________631d6c248a600860008d73ffffffffffffffffffffffffffffffffffffffff1673ffffffffffffffffffffffffffffffffffffffff1681526020019081526020016000208989898989896000604051602001526040518863ffffffff167c0100000000000000000000000000000000000000000000000000000000028152600401808881526020018781526020018681526020018581526020018481526020018381526020018215151515815260200197505050505050505060206040518083038186803b1515610ee557600080fd5b6102c65a03f41515610ef657600080fd5b505050604051805190501515610f0b57600080fd5b50505050505050505050565b6000883373ffffffffffffffffffffffffffffffffffffffff16600560008373ffffffffffffffffffffffffffffffffffffffff1673ffffffffffffffffffffffffffffffffffffffff16815260200190815260200160002060009054906101000a900473ffffffffffffffffffffffffffffffffffffffff1673ffffffffffffffffffffffffffffffffffffffff1614151515610fb457600080fd5b89600080600a811115610fc357fe5b600460008473ffffffffffffffffffffffffffffffffffffffff1673ffffffffffffffffffffffffffffffffffffffff16815260200190815260200160002060009054906101000a900460ff16600a81111561101b57fe5b14151561102757600080fd5b600960008d73ffffffffffffffffffffffffffffffffffffffff1673ffffffffffffffffffffffffffffffffffffffff168152602001908152602001600020805490509350600960008d73ffffffffffffffffffffffffffffffffffffffff1673ffffffffffffffffffffffffffffffffffffffff16815260200190815260200160002080548060010182816110bd919061234d565b9160005260206000209001600033909190916101000a81548173ffffffffffffffffffffffffffffffffffffffff021916908373ffffffffffffffffffffffffffffffffffffffff160217905550508a600760008e73ffffffffffffffffffffffffffffffffffffffff1673ffffffffffffffffffffffffffffffffffffffff16815260200190815260200160002060003373ffffffffffffffffffffffffffffffffffffffff1673ffffffffffffffffffffffffffffffffffffffff168152602001908152602001600020908051906020019061119c929190612379565b5073__SensorLibrary_________________________631d6c248a600a60008f73ffffffffffffffffffffffffffffffffffffffff1673ffffffffffffffffffffffffffffffffffffffff16815260200190815260200160002060008781526020019081526020016000208c8c8c8c8c8c6000604051602001526040518863ffffffff167c0100000000000000000000000000000000000000000000000000000000028152600401808881526020018781526020018681526020018581526020018481526020018381526020018215151515815260200197505050505050505060206040518083038186803b151561129357600080fd5b6102c65a03f415156112a457600080fd5b5050506040518051905015156112b957600080fd5b7facf29ad8d63913d38e7e1176963a4afb76bf0918516051da68408ecb6f98065d33604051808273ffffffffffffffffffffffffffffffffffffffff1673ffffffffffffffffffffffffffffffffffffffff16815260200191505060405180910390a1505050505050505050505050565b6002600a81111561133757fe5b600460008573ffffffffffffffffffffffffffffffffffffffff1673ffffffffffffffffffffffffffffffffffffffff16815260200190815260200160002060009054906101000a900460ff16600a81111561138f57fe5b14806113fd57506005600a8111156113a357fe5b600460008573ffffffffffffffffffffffffffffffffffffffff1673ffffffffffffffffffffffffffffffffffffffff16815260200190815260200160002060009054906101000a900460ff16600a8111156113fb57fe5b145b80151561140957600080fd5b73__SensorLibrary_________________________63c86a6f37600860008773ffffffffffffffffffffffffffffffffffffffff1673ffffffffffffffffffffffffffffffffffffffff1681526020019081526020016000208533866040518563ffffffff167c0100000000000000000000000000000000000000000000000000000000028152600401808581526020018481526020018373ffffffffffffffffffffffffffffffffffffffff1673ffffffffffffffffffffffffffffffffffffffff16815260200182815260200194505050505060006040518083038186803b15156114f557600080fd5b6102c65a03f4151561150657600080fd5b50505050505050565b60008060008073__SensorLibrary_________________________6316f422fb600a60008a73ffffffffffffffffffffffffffffffffffffffff1673ffffffffffffffffffffffffffffffffffffffff1681526020019081526020016000206000888152602001908152602001600020886000604051608001526040518363ffffffff167c0100000000000000000000000000000000000000000000000000000000028152600401808381526020018281526020019250505060806040518083038186803b15156115df57600080fd5b6102c65a03f415156115f057600080fd5b50505060405180519060200180519060200180519060200180519050935093509350935093509350935093565b813373ffffffffffffffffffffffffffffffffffffffff16600560008373ffffffffffffffffffffffffffffffffffffffff1673ffffffffffffffffffffffffffffffffffffffff16815260200190815260200160002060009054906101000a900473ffffffffffffffffffffffffffffffffffffffff1673ffffffffffffffffffffffffffffffffffffffff161415156116b757600080fd5b82600080600a8111156116c657fe5b600460008473ffffffffffffffffffffffffffffffffffffffff1673ffffffffffffffffffffffffffffffffffffffff16815260200190815260200160002060009054906101000a900460ff16600a81111561171e57fe5b14151561172a57600080fd5b600960008673ffffffffffffffffffffffffffffffffffffffff1673ffffffffffffffffffffffffffffffffffffffff1681526020019081526020016000208481548110151561177657fe5b906000526020600020900160006101000a81549073ffffffffffffffffffffffffffffffffffffffff02191690555050505050565b6007602052816000526040600020602052806000526040600020600091509150508054600181600116156101000203166002900480601f0160208091040260200160405190810160405280929190818152602001828054600181600116156101000203166002900480156118605780601f1061183557610100808354040283529160200191611860565b820191906000526020600020905b81548152906001019060200180831161184357829003601f168201915b505050505081565b6001600a81111561187557fe5b600460008473ffffffffffffffffffffffffffffffffffffffff1673ffffffffffffffffffffffffffffffffffffffff16815260200190815260200160002060009054906101000a900460ff16600a8111156118cd57fe5b148061193b57506004600a8111156118e157fe5b600460008473ffffffffffffffffffffffffffffffffffffffff1673ffffffffffffffffffffffffffffffffffffffff16815260200190815260200160002060009054906101000a900460ff16600a81111561193957fe5b145b80151561194757600080fd5b33600860008573ffffffffffffffffffffffffffffffffffffffff1673ffffffffffffffffffffffffffffffffffffffff168152602001908152602001600020600001600084815260200190815260200160002060010160016101000a81548173ffffffffffffffffffffffffffffffffffffffff021916908373ffffffffffffffffffffffffffffffffffffffff160217905550505050565b6119e96123f9565b600960008373ffffffffffffffffffffffffffffffffffffffff1673ffffffffffffffffffffffffffffffffffffffff168152602001908152602001600020805480602002602001604051908101604052809291908181526020018280548015611aa857602002820191906000526020600020905b8160009054906101000a900473ffffffffffffffffffffffffffffffffffffffff1673ffffffffffffffffffffffffffffffffffffffff1681526020019060010190808311611a5e575b50505050509050919050565b6002600a811115611ac157fe5b600460008473ffffffffffffffffffffffffffffffffffffffff1673ffffffffffffffffffffffffffffffffffffffff16815260200190815260200160002060009054906101000a900460ff16600a811115611b1957fe5b1480611b8757506005600a811115611b2d57fe5b600460008473ffffffffffffffffffffffffffffffffffffffff1673ffffffffffffffffffffffffffffffffffffffff16815260200190815260200160002060009054906101000a900460ff16600a811115611b8557fe5b145b801515611b9357600080fd5b600860008473ffffffffffffffffffffffffffffffffffffffff1673ffffffffffffffffffffffffffffffffffffffff168152602001908152602001600020600001600083815260200190815260200160002060010160019054906101000a900473ffffffffffffffffffffffffffffffffffffffff1673ffffffffffffffffffffffffffffffffffffffff167f9a26a1f9def08abe958f09f08b27ca5d3dcc90dc0bd84ac65a66e096560f307160405160405180910390a2505050565b60036020528060005260406000206000915090505481565b60066020528060005260406000206000915054906101000a900473ffffffffffffffffffffffffffffffffffffffff1681565b813373ffffffffffffffffffffffffffffffffffffffff16600560008373ffffffffffffffffffffffffffffffffffffffff1673ffffffffffffffffffffffffffffffffffffffff16815260200190815260200160002060009054906101000a900473ffffffffffffffffffffffffffffffffffffffff1673ffffffffffffffffffffffffffffffffffffffff16141515611d3657600080fd5b82600080600a811115611d4557fe5b600460008473ffffffffffffffffffffffffffffffffffffffff1673ffffffffffffffffffffffffffffffffffffffff16815260200190815260200160002060009054906101000a900460ff16600a811115611d9d57fe5b141515611da957600080fd5b6001600460008773ffffffffffffffffffffffffffffffffffffffff1673ffffffffffffffffffffffffffffffffffffffff16815260200190815260200160002060006101000a81548160ff0219169083600a811115611e0557fe5b0217905550600960008673ffffffffffffffffffffffffffffffffffffffff1673ffffffffffffffffffffffffffffffffffffffff16815260200190815260200160002084815481101515611e5657fe5b906000526020600020900160009054906101000a900473ffffffffffffffffffffffffffffffffffffffff16600660008773ffffffffffffffffffffffffffffffffffffffff1673ffffffffffffffffffffffffffffffffffffffff16815260200190815260200160002060006101000a81548173ffffffffffffffffffffffffffffffffffffffff021916908373ffffffffffffffffffffffffffffffffffffffff16021790555073__SensorLibrary_________________________635a4751d5600860008873ffffffffffffffffffffffffffffffffffffffff1673ffffffffffffffffffffffffffffffffffffffff168152602001908152602001600020600a60008973ffffffffffffffffffffffffffffffffffffffff1673ffffffffffffffffffffffffffffffffffffffff16815260200190815260200160002060008881526020019081526020016000206000604051602001526040518363ffffffff167c0100000000000000000000000000000000000000000000000000000000028152600401808381526020018281526020019250505060206040518083038186803b151561200757600080fd5b6102c65a03f4151561201857600080fd5b50505060405180519050508473ffffffffffffffffffffffffffffffffffffffff166301c6adc3600660008873ffffffffffffffffffffffffffffffffffffffff1673ffffffffffffffffffffffffffffffffffffffff16815260200190815260200160002060009054906101000a900473ffffffffffffffffffffffffffffffffffffffff16600360008973ffffffffffffffffffffffffffffffffffffffff1673ffffffffffffffffffffffffffffffffffffffff168152602001908152602001600020546040518363ffffffff167c0100000000000000000000000000000000000000000000000000000000028152600401808373ffffffffffffffffffffffffffffffffffffffff1673ffffffffffffffffffffffffffffffffffffffff16815260200182815260200192505050600060405180830381600087803b151561216357600080fd5b6102c65a03f1151561217457600080fd5b5050507f2e7bcc1a1a1c1bea0ff9a677c29b43662d6560afbebd99c213389fc15a6279d233604051808273ffffffffffffffffffffffffffffffffffffffff1673ffffffffffffffffffffffffffffffffffffffff16815260200191505060405180910390a15050505050565b6009602052816000526040600020818154811015156121fc57fe5b90600052602060002090016000915091509054906101000a900473ffffffffffffffffffffffffffffffffffffffff1681565b60008060008073__SensorLibrary_________________________6316f422fb600860008973ffffffffffffffffffffffffffffffffffffffff1673ffffffffffffffffffffffffffffffffffffffff168152602001908152602001600020876000604051608001526040518363ffffffff167c0100000000000000000000000000000000000000000000000000000000028152600401808381526020018281526020019250505060806040518083038186803b15156122ee57600080fd5b6102c65a03f415156122ff57600080fd5b50505060405180519060200180519060200180519060200180519050935093509350935092959194509250565b508054600082559060005260206000209081019061234a919061240d565b50565b81548183558181151161237457818360005260206000209182019101612373919061240d565b5b505050565b828054600181600116156101000203166002900490600052602060002090601f016020900481019282601f106123ba57805160ff19168380011785556123e8565b828001600101855582156123e8579182015b828111156123e75782518255916020019190600101906123cc565b5b5090506123f5919061240d565b5090565b602060405190810160405280600081525090565b61242f91905b8082111561242b576000816000905550600101612413565b5090565b905600a165627a7a72305820f2b7b5b2387c10a3e192d7c30966048e32577dab30fcb4957579425578e28b810029",
  "source": "\r\npragma solidity ^0.4.0;\r\n\r\nimport \"../Token/Token.sol\";\r\nimport \"./SensorLibrary.sol\";\r\nimport \"./MinimalPurchase.sol\";\r\nimport \"./AgreementDeliver.sol\";\r\nimport \"./AgreementReturn.sol\";\r\n\r\ncontract AgreementData {\r\n\r\n  enum State { Created, Locked, Transit, Confirm, Dissatisfied, Return, Returned, Review, Clerk, Appeal, Inactive }\r\n\r\n  Token t;\r\n  //PurchaseData p;\r\n  address[] purchaseContracts;\r\n  address dapp;\r\n  bool dappSet;\r\n\r\n  mapping(address => uint) public price;\r\n  mapping(address => State) public state;\r\n  mapping(address => address) public seller;\r\n  mapping(address => address) public buyer;\r\n  mapping(address => mapping(address => string)) public deliveryAddress;\r\n  mapping(address => SensorLibrary.Sensors) internal terms;\r\n  mapping(address => address[]) public potentialBuyers;\r\n  mapping(address => mapping(uint => SensorLibrary.Sensors)) proposals;\r\n\r\n  event Proposed(address from);\r\n  event Declined(address from);\r\n  event Accepted(address from);\r\n  event Request(address indexed provider);\r\n\r\n  modifier condition(bool _condition) {\r\n    require(_condition);\r\n    _;\r\n  }\r\n\r\n  modifier onlySeller(address purchase) {\r\n    require(seller[purchase] == msg.sender);\r\n    _;\r\n  }\r\n\r\n  modifier notSeller(address purchase) {\r\n    require(!(seller[purchase] == msg.sender));\r\n    _;\r\n  }\r\n\r\n  modifier inState(address purchase, State _state) {\r\n    require(state[purchase] == _state);\r\n    _;\r\n  }\r\n\r\n  modifier onlyPurchaseContract() {\r\n    require(msg.sender == purchaseContracts[0] || msg.sender == purchaseContracts[1]);\r\n    _;\r\n  }\r\n\r\n  function AgreementData(address _token, address agreementDeliver, address agreementReturn) public {\r\n    t = Token(_token);\r\n    purchaseContracts.push(agreementDeliver);\r\n    purchaseContracts.push(agreementReturn);\r\n    require(AgreementDeliver(agreementDeliver).setAgreementData());\r\n    require(AgreementReturn(agreementReturn).setAgreementData());\r\n  }\r\n\r\n  function setDapp()\r\n    public\r\n    condition(!dappSet)\r\n    returns(bool)\r\n  {\r\n    dappSet = true;\r\n    dapp = msg.sender;\r\n    return true;\r\n  }\r\n\r\n  /** @dev Create a new agreement\r\n    * @param purchase The address of the agreement\r\n    * @param _price The price of the goods\r\n    * @param _seller The seller\r\n    * @param maxTemp Maximum temperature (-999 = not set)\r\n    * @param minTemp Minimum temperature (-999 = not set)\r\n    * @param acceleration Maximum acceleration (-999 = not set)\r\n    * @param humidity Maximum humidity (-999 = not set)\r\n    * @param pressure Maximum pressure (-999 = not set)\r\n    * @param gps True if gps included\r\n    */\r\n  function newPurchase\r\n  (\r\n    address purchase,\r\n    uint _price,\r\n    address _seller,\r\n    int maxTemp,\r\n    int minTemp,\r\n    int acceleration,\r\n    int humidity,\r\n    int pressure,\r\n    bool gps\r\n  )\r\n    public\r\n    condition(msg.sender == dapp)\r\n  {\r\n    price[purchase] = _price;\r\n    seller[purchase] = _seller;\r\n    require(SensorLibrary.setSensors(terms[purchase], maxTemp, minTemp, acceleration, humidity, pressure, gps));\r\n  }\r\n\r\n  ///////////////////\r\n  ///---Created---///\r\n  ///////////////////\r\n\r\n  /** @dev Update price\r\n    * @param purchase The address of the agreement\r\n    * @param _price The new price\r\n    */\r\n  function setPrice(address purchase, uint _price)\r\n    public\r\n    onlySeller(purchase)\r\n    condition(state[purchase] == State.Created)\r\n  {\r\n    delete potentialBuyers[purchase];\r\n    price[purchase] = _price;\r\n  }\r\n\r\n  /** @dev Propose additional terms\r\n    * @param purchase The address of the agreement\r\n    * @param _deliveryAddress The location where the goods should be delivered\r\n    * @param maxTemp Maximum temperature (-999 = not set)\r\n    * @param minTemp Minimum temperature (-999 = not set)\r\n    * @param acceleration Maximum acceleration (-999 = not set)\r\n    * @param humidity Maximum humidity (-999 = not set)\r\n    * @param pressure Maximum pressure (-999 = not set)\r\n    * @param gps True if gps included\r\n    */\r\n  function propose\r\n  (\r\n    address purchase,\r\n    string _deliveryAddress,\r\n    int maxTemp,\r\n    int minTemp,\r\n    int acceleration,\r\n    int humidity,\r\n    int pressure,\r\n    bool gps\r\n  )\r\n    public\r\n    notSeller(purchase)\r\n    inState(purchase, State.Created)\r\n  {\r\n    uint i =  potentialBuyers[purchase].length;\r\n    potentialBuyers[purchase].push(msg.sender);\r\n    deliveryAddress[purchase][msg.sender] = _deliveryAddress;\r\n    require(SensorLibrary.setSensors(proposals[purchase][i], maxTemp, minTemp, acceleration, humidity, pressure, gps));\r\n    Proposed(msg.sender);\r\n  }\r\n\r\n  /** @dev Decline a proposal\r\n    * @param purchase The address of the agreement\r\n    * @param _buyer The index of the proposal to decline\r\n    */\r\n  function decline(address purchase, uint _buyer)\r\n    public\r\n    onlySeller(purchase)\r\n    inState(purchase, State.Created)\r\n  {\r\n    delete potentialBuyers[purchase][_buyer];\r\n  }\r\n\r\n  /** @dev Accept a proposal\r\n    * @param purchase The address of the agreement\r\n    * @param _buyer The index of the proposal to accept\r\n    */\r\n  function accept(address purchase, uint _buyer)\r\n    public\r\n    onlySeller(purchase)\r\n    inState(purchase, State.Created)\r\n  {\r\n    state[purchase] = State.Locked;\r\n    buyer[purchase] = potentialBuyers[purchase][_buyer];\r\n\r\n    SensorLibrary.combineTerms(terms[purchase], proposals[purchase][_buyer]);\r\n    MinimalPurchase(purchase).transferFrom(buyer[purchase], price[purchase]);\r\n\r\n    Accepted(msg.sender);\r\n  }\r\n\r\n  //////////////////\r\n  ///---Locked---///\r\n  //////////////////\r\n\r\n  /** @dev Sets the address of the sensor\r\n    * @param purchase The address of the agreement\r\n    * @param sensorType The sensor to set the address for\r\n    */\r\n  function setProvider(address purchase, uint sensorType)\r\n    public\r\n    condition(state[purchase] == State.Locked || state[purchase] == State.Dissatisfied)\r\n  {\r\n    terms[purchase].sensors[sensorType].provider = msg.sender;\r\n  }\r\n\r\n  ///////////////////\r\n  ///---Transit---///\r\n  ///////////////////\r\n\r\n  /** @dev Sends sensor data to the contract\r\n    * @param purchase The address of the agreement\r\n    * @param sensorType The sensor that is sending the data\r\n    * @param value The value of the data\r\n    */\r\n  function sensorData(address purchase, uint sensorType, int value)\r\n    public\r\n    condition(state[purchase] == State.Transit || state[purchase] == State.Return)\r\n  {\r\n    SensorLibrary.sensorData(terms[purchase], sensorType, msg.sender, value);\r\n  }\r\n\r\n  /** @dev User requests data from a sensor\r\n    * @param purchase The address of the agreement\r\n    * @param sensorType The sensor that is being sent the request\r\n    */\r\n  function requestData(address purchase, uint sensorType)\r\n    public\r\n    condition(state[purchase] == State.Transit || state[purchase] == State.Return)\r\n  {\r\n    Request(terms[purchase].sensors[sensorType].provider);\r\n  }\r\n\r\n  ///////////////////\r\n  ///---Setters---///\r\n  ///////////////////\r\n\r\n  function setState(address purchase, State _state)\r\n    public\r\n    onlyPurchaseContract()\r\n  {\r\n    state[purchase] = _state;\r\n  }\r\n\r\n  ///////////////////\r\n  ///---Getters---///\r\n  ///////////////////\r\n\r\n  /** @dev Get the information about a sensor\r\n    * @param purchase The address of the agreement\r\n    * @param sensorType The sensor to get the information about\r\n    * @return threshold The threshold of the sensor\r\n    * @return warning True if the threshold has been violated\r\n    * @return provider The address of the sensor\r\n    * @return set True if the sensor is included\r\n    */\r\n  function getSensor(address purchase, uint sensorType)\r\n    public\r\n    constant\r\n    returns(int threshold, bool warning, address provider, bool set)\r\n  {\r\n    return(SensorLibrary.getSensor(terms[purchase], sensorType));\r\n  }\r\n\r\n  /** @dev Get the information about a proposed sensor\r\n    * @param purchase The address of the agreement\r\n    * @param sensorType The sensor to get the information about\r\n    * @param _buyer The index of the requested proposal\r\n    * @return threshold The threshold of the sensor\r\n    * @return warning True if the threshold has been violated\r\n    * @return provider The address of the sensor\r\n    * @return set True if the sensor is included\r\n    */\r\n  function getProposedTerms(address purchase, uint sensorType, uint _buyer)\r\n    public\r\n    constant\r\n    returns(int threshold, bool warning, address provider, bool set)\r\n  {\r\n    return(SensorLibrary.getSensor(proposals[purchase][_buyer], sensorType));\r\n  }\r\n\r\n  /** @dev Get the list of proposals\r\n    * @param purchase The address of the agreement\r\n    * @return proposals The list of proposals\r\n    */\r\n  function getPotentialBuyers(address purchase)\r\n    public\r\n    constant\r\n    returns(address[] _proposals)\r\n  {\r\n    return potentialBuyers[purchase];\r\n  }\r\n}\r\n\r\n",
  "sourcePath": "C:\\Users\\axevalli\\IdeaProjects\\smart-package-2\\smart-package\\contracts\\Purchase\\AgreementData.sol",
  "compiler": {
    "name": "solc",
    "version": "0.4.18+commit.9cf6e910.Emscripten.clang"
  },
  "schemaVersion": "1.0.1",
  "updatedAt": "2018-05-14T06:45:05.498Z"
}