{
  "contractName": "Purchase2",
  "abi": [
    {
      "constant": true,
      "inputs": [
        {
          "name": "",
          "type": "address"
        }
      ],
      "name": "arrivalTime",
      "outputs": [
        {
          "name": "",
          "type": "uint256"
        }
      ],
      "payable": false,
      "stateMutability": "view",
      "type": "function"
    },
    {
      "constant": false,
      "inputs": [
        {
          "name": "purchase",
          "type": "address"
        }
      ],
      "name": "deliverReturn",
      "outputs": [],
      "payable": false,
      "stateMutability": "nonpayable",
      "type": "function"
    },
    {
      "constant": true,
      "inputs": [
        {
          "name": "",
          "type": "address"
        }
      ],
      "name": "logisticsTokens",
      "outputs": [
        {
          "name": "",
          "type": "uint256"
        }
      ],
      "payable": false,
      "stateMutability": "view",
      "type": "function"
    },
    {
      "constant": true,
      "inputs": [
        {
          "name": "",
          "type": "address"
        }
      ],
      "name": "currentClerk",
      "outputs": [
        {
          "name": "",
          "type": "address"
        }
      ],
      "payable": false,
      "stateMutability": "view",
      "type": "function"
    },
    {
      "constant": false,
      "inputs": [
        {
          "name": "purchase",
          "type": "address"
        },
        {
          "name": "payment",
          "type": "uint256"
        }
      ],
      "name": "clerk",
      "outputs": [],
      "payable": false,
      "stateMutability": "nonpayable",
      "type": "function"
    },
    {
      "constant": false,
      "inputs": [
        {
          "name": "purchase",
          "type": "address"
        }
      ],
      "name": "successReturn",
      "outputs": [],
      "payable": false,
      "stateMutability": "nonpayable",
      "type": "function"
    },
    {
      "constant": true,
      "inputs": [
        {
          "name": "",
          "type": "address"
        }
      ],
      "name": "returnToPrevState",
      "outputs": [
        {
          "name": "",
          "type": "bool"
        }
      ],
      "payable": false,
      "stateMutability": "view",
      "type": "function"
    },
    {
      "constant": false,
      "inputs": [
        {
          "name": "purchase",
          "type": "address"
        }
      ],
      "name": "finalizeClerkDecision",
      "outputs": [],
      "payable": false,
      "stateMutability": "nonpayable",
      "type": "function"
    },
    {
      "constant": false,
      "inputs": [
        {
          "name": "_purchaseData",
          "type": "address"
        }
      ],
      "name": "setPurchaseData",
      "outputs": [
        {
          "name": "",
          "type": "bool"
        }
      ],
      "payable": false,
      "stateMutability": "nonpayable",
      "type": "function"
    },
    {
      "constant": false,
      "inputs": [
        {
          "name": "purchase",
          "type": "address"
        },
        {
          "name": "amount",
          "type": "uint256"
        }
      ],
      "name": "increaseClerkPayment",
      "outputs": [],
      "payable": false,
      "stateMutability": "nonpayable",
      "type": "function"
    },
    {
      "constant": false,
      "inputs": [
        {
          "name": "purchase",
          "type": "address"
        }
      ],
      "name": "transportReturn",
      "outputs": [],
      "payable": false,
      "stateMutability": "nonpayable",
      "type": "function"
    },
    {
      "constant": true,
      "inputs": [
        {
          "name": "",
          "type": "address"
        }
      ],
      "name": "sellerTokens",
      "outputs": [
        {
          "name": "",
          "type": "uint256"
        }
      ],
      "payable": false,
      "stateMutability": "view",
      "type": "function"
    },
    {
      "constant": false,
      "inputs": [
        {
          "name": "purchase",
          "type": "address"
        }
      ],
      "name": "goodsDamaged",
      "outputs": [],
      "payable": false,
      "stateMutability": "nonpayable",
      "type": "function"
    },
    {
      "constant": false,
      "inputs": [
        {
          "name": "purchase",
          "type": "address"
        }
      ],
      "name": "compensate",
      "outputs": [],
      "payable": false,
      "stateMutability": "nonpayable",
      "type": "function"
    },
    {
      "constant": false,
      "inputs": [
        {
          "name": "purchase",
          "type": "address"
        }
      ],
      "name": "returnToPreviousState",
      "outputs": [],
      "payable": false,
      "stateMutability": "nonpayable",
      "type": "function"
    },
    {
      "constant": false,
      "inputs": [
        {
          "name": "purchase",
          "type": "address"
        }
      ],
      "name": "rejectClerkDecision",
      "outputs": [],
      "payable": false,
      "stateMutability": "nonpayable",
      "type": "function"
    },
    {
      "constant": true,
      "inputs": [
        {
          "name": "",
          "type": "address"
        }
      ],
      "name": "clerkPayment",
      "outputs": [
        {
          "name": "",
          "type": "uint256"
        }
      ],
      "payable": false,
      "stateMutability": "view",
      "type": "function"
    },
    {
      "constant": false,
      "inputs": [
        {
          "name": "purchase",
          "type": "address"
        },
        {
          "name": "_seller",
          "type": "uint256"
        },
        {
          "name": "_buyer",
          "type": "uint256"
        },
        {
          "name": "_delivery",
          "type": "uint256"
        }
      ],
      "name": "solve",
      "outputs": [],
      "payable": false,
      "stateMutability": "nonpayable",
      "type": "function"
    },
    {
      "constant": true,
      "inputs": [
        {
          "name": "",
          "type": "address"
        }
      ],
      "name": "buyerTokens",
      "outputs": [
        {
          "name": "",
          "type": "uint256"
        }
      ],
      "payable": false,
      "stateMutability": "view",
      "type": "function"
    },
    {
      "inputs": [
        {
          "name": "_token",
          "type": "address"
        },
        {
          "name": "_clerk",
          "type": "address"
        }
      ],
      "payable": false,
      "stateMutability": "nonpayable",
      "type": "constructor"
    },
    {
      "anonymous": false,
      "inputs": [
        {
          "indexed": false,
          "name": "from",
          "type": "address"
        }
      ],
      "name": "Proposed",
      "type": "event"
    },
    {
      "anonymous": false,
      "inputs": [
        {
          "indexed": false,
          "name": "from",
          "type": "address"
        }
      ],
      "name": "Declined",
      "type": "event"
    },
    {
      "anonymous": false,
      "inputs": [
        {
          "indexed": false,
          "name": "from",
          "type": "address"
        }
      ],
      "name": "Accepted",
      "type": "event"
    },
    {
      "anonymous": false,
      "inputs": [
        {
          "indexed": false,
          "name": "from",
          "type": "address"
        }
      ],
      "name": "Delivered",
      "type": "event"
    },
    {
      "anonymous": false,
      "inputs": [
        {
          "indexed": false,
          "name": "from",
          "type": "address"
        }
      ],
      "name": "Satisfied",
      "type": "event"
    },
    {
      "anonymous": false,
      "inputs": [
        {
          "indexed": false,
          "name": "from",
          "type": "address"
        }
      ],
      "name": "Dissatisfied",
      "type": "event"
    }
  ],
  "bytecode": "0x6060604052341561000f57600080fd5b60405160408061462383398101604052808051906020019091908051906020019091905050816000806101000a81548173ffffffffffffffffffffffffffffffffffffffff021916908373ffffffffffffffffffffffffffffffffffffffff16021790555080600160006101000a81548173ffffffffffffffffffffffffffffffffffffffff021916908373ffffffffffffffffffffffffffffffffffffffff160217905550505061455d806100c66000396000f300606060405260043610610107576000357c0100000000000000000000000000000000000000000000000000000000900463ffffffff1680630285af4c1461010c57806302bf217114610159578063194d8cb7146101925780631db0a04c146101df5780632da2b37c146102585780634bb66d511461029a5780636acb1f1b146102d35780636e8d65e91461032457806373a847aa1461035d5780637c0e76dd146103ae5780638802c587146103f0578063afe4c6f114610429578063bf9303fc14610476578063ca7a08ef146104af578063d0ecf0c5146104e8578063d984d33214610521578063e3bc96861461055a578063e43b82c9146105a7578063f13656eb146105fb575b600080fd5b341561011757600080fd5b610143600480803573ffffffffffffffffffffffffffffffffffffffff16906020019091905050610648565b6040518082815260200191505060405180910390f35b341561016457600080fd5b610190600480803573ffffffffffffffffffffffffffffffffffffffff16906020019091905050610660565b005b341561019d57600080fd5b6101c9600480803573ffffffffffffffffffffffffffffffffffffffff169060200190919050506109b1565b6040518082815260200191505060405180910390f35b34156101ea57600080fd5b610216600480803573ffffffffffffffffffffffffffffffffffffffff169060200190919050506109c9565b604051808273ffffffffffffffffffffffffffffffffffffffff1673ffffffffffffffffffffffffffffffffffffffff16815260200191505060405180910390f35b341561026357600080fd5b610298600480803573ffffffffffffffffffffffffffffffffffffffff169060200190919080359060200190919050506109fc565b005b34156102a557600080fd5b6102d1600480803573ffffffffffffffffffffffffffffffffffffffff1690602001909190505061117b565b005b34156102de57600080fd5b61030a600480803573ffffffffffffffffffffffffffffffffffffffff169060200190919050506118a7565b604051808215151515815260200191505060405180910390f35b341561032f57600080fd5b61035b600480803573ffffffffffffffffffffffffffffffffffffffff169060200190919050506118c7565b005b341561036857600080fd5b610394600480803573ffffffffffffffffffffffffffffffffffffffff169060200190919050506123b0565b604051808215151515815260200191505060405180910390f35b34156103b957600080fd5b6103ee600480803573ffffffffffffffffffffffffffffffffffffffff16906020019091908035906020019091905050612435565b005b34156103fb57600080fd5b610427600480803573ffffffffffffffffffffffffffffffffffffffff16906020019091905050612644565b005b341561043457600080fd5b610460600480803573ffffffffffffffffffffffffffffffffffffffff16906020019091905050612951565b6040518082815260200191505060405180910390f35b341561048157600080fd5b6104ad600480803573ffffffffffffffffffffffffffffffffffffffff16906020019091905050612969565b005b34156104ba57600080fd5b6104e6600480803573ffffffffffffffffffffffffffffffffffffffff16906020019091905050612cc9565b005b34156104f357600080fd5b61051f600480803573ffffffffffffffffffffffffffffffffffffffff169060200190919050506134be565b005b341561052c57600080fd5b610558600480803573ffffffffffffffffffffffffffffffffffffffff169060200190919050506138b5565b005b341561056557600080fd5b610591600480803573ffffffffffffffffffffffffffffffffffffffff16906020019091905050613f60565b6040518082815260200191505060405180910390f35b34156105b257600080fd5b6105f9600480803573ffffffffffffffffffffffffffffffffffffffff16906020019091908035906020019091908035906020019091908035906020019091905050613f78565b005b341561060657600080fd5b610632600480803573ffffffffffffffffffffffffffffffffffffffff16906020019091905050614519565b6040518082815260200191505060405180910390f35b60056020528060005260406000206000915090505481565b80600580600a81111561066f57fe5b600260009054906101000a900473ffffffffffffffffffffffffffffffffffffffff1673ffffffffffffffffffffffffffffffffffffffff166331e658a5846000604051602001526040518263ffffffff167c0100000000000000000000000000000000000000000000000000000000028152600401808273ffffffffffffffffffffffffffffffffffffffff1673ffffffffffffffffffffffffffffffffffffffff168152602001915050602060405180830381600087803b151561073457600080fd5b6102c65a03f1151561074557600080fd5b50505060405180519050600a81111561075a57fe5b14151561076657600080fd5b823373ffffffffffffffffffffffffffffffffffffffff16600260009054906101000a900473ffffffffffffffffffffffffffffffffffffffff1673ffffffffffffffffffffffffffffffffffffffff1663e21a8991836000604051602001526040518263ffffffff167c0100000000000000000000000000000000000000000000000000000000028152600401808273ffffffffffffffffffffffffffffffffffffffff1673ffffffffffffffffffffffffffffffffffffffff168152602001915050602060405180830381600087803b151561084357600080fd5b6102c65a03f1151561085457600080fd5b5050506040518051905073ffffffffffffffffffffffffffffffffffffffff1614151561088057600080fd5b600260009054906101000a900473ffffffffffffffffffffffffffffffffffffffff1673ffffffffffffffffffffffffffffffffffffffff166327737d588560066040518363ffffffff167c0100000000000000000000000000000000000000000000000000000000028152600401808373ffffffffffffffffffffffffffffffffffffffff1673ffffffffffffffffffffffffffffffffffffffff16815260200182600a81111561092e57fe5b60ff16815260200192505050600060405180830381600087803b151561095357600080fd5b6102c65a03f1151561096457600080fd5b50505042600560008673ffffffffffffffffffffffffffffffffffffffff1673ffffffffffffffffffffffffffffffffffffffff1681526020019081526020016000208190555050505050565b60086020528060005260406000206000915090505481565b600a6020528060005260406000206000915054906101000a900473ffffffffffffffffffffffffffffffffffffffff1681565b60006008600a811115610a0b57fe5b600260009054906101000a900473ffffffffffffffffffffffffffffffffffffffff1673ffffffffffffffffffffffffffffffffffffffff166331e658a5856000604051602001526040518263ffffffff167c0100000000000000000000000000000000000000000000000000000000028152600401808273ffffffffffffffffffffffffffffffffffffffff1673ffffffffffffffffffffffffffffffffffffffff168152602001915050602060405180830381600087803b1515610ad057600080fd5b6102c65a03f11515610ae157600080fd5b50505060405180519050600a811115610af657fe5b1415801515610b0457600080fd5b600260009054906101000a900473ffffffffffffffffffffffffffffffffffffffff1673ffffffffffffffffffffffffffffffffffffffff166339b9c30c856000604051602001526040518263ffffffff167c0100000000000000000000000000000000000000000000000000000000028152600401808273ffffffffffffffffffffffffffffffffffffffff1673ffffffffffffffffffffffffffffffffffffffff168152602001915050602060405180830381600087803b1515610bc957600080fd5b6102c65a03f11515610bda57600080fd5b5050506040518051905073ffffffffffffffffffffffffffffffffffffffff163373ffffffffffffffffffffffffffffffffffffffff161480610d275750600260009054906101000a900473ffffffffffffffffffffffffffffffffffffffff1673ffffffffffffffffffffffffffffffffffffffff1663b7748208856000604051602001526040518263ffffffff167c0100000000000000000000000000000000000000000000000000000000028152600401808273ffffffffffffffffffffffffffffffffffffffff1673ffffffffffffffffffffffffffffffffffffffff168152602001915050602060405180830381600087803b1515610cdd57600080fd5b6102c65a03f11515610cee57600080fd5b5050506040518051905073ffffffffffffffffffffffffffffffffffffffff163373ffffffffffffffffffffffffffffffffffffffff16145b80610e3c5750600260009054906101000a900473ffffffffffffffffffffffffffffffffffffffff1673ffffffffffffffffffffffffffffffffffffffff1663e21a8991856000604051602001526040518263ffffffff167c0100000000000000000000000000000000000000000000000000000000028152600401808273ffffffffffffffffffffffffffffffffffffffff1673ffffffffffffffffffffffffffffffffffffffff168152602001915050602060405180830381600087803b1515610df257600080fd5b6102c65a03f11515610e0357600080fd5b5050506040518051905073ffffffffffffffffffffffffffffffffffffffff163373ffffffffffffffffffffffffffffffffffffffff16145b801515610e4857600080fd5b600260009054906101000a900473ffffffffffffffffffffffffffffffffffffffff1673ffffffffffffffffffffffffffffffffffffffff166331e658a5866000604051602001526040518263ffffffff167c0100000000000000000000000000000000000000000000000000000000028152600401808273ffffffffffffffffffffffffffffffffffffffff1673ffffffffffffffffffffffffffffffffffffffff168152602001915050602060405180830381600087803b1515610f0d57600080fd5b6102c65a03f11515610f1e57600080fd5b505050604051805190509250600260009054906101000a900473ffffffffffffffffffffffffffffffffffffffff1673ffffffffffffffffffffffffffffffffffffffff166327737d588660086040518363ffffffff167c0100000000000000000000000000000000000000000000000000000000028152600401808373ffffffffffffffffffffffffffffffffffffffff1673ffffffffffffffffffffffffffffffffffffffff16815260200182600a811115610fd857fe5b60ff16815260200192505050600060405180830381600087803b1515610ffd57600080fd5b6102c65a03f1151561100e57600080fd5b50505082600460008773ffffffffffffffffffffffffffffffffffffffff1673ffffffffffffffffffffffffffffffffffffffff16815260200190815260200160002060006101000a81548160ff0219169083600a81111561106c57fe5b021790555083600360008773ffffffffffffffffffffffffffffffffffffffff1673ffffffffffffffffffffffffffffffffffffffff168152602001908152602001600020600082825401925050819055508473ffffffffffffffffffffffffffffffffffffffff166301c6adc333866040518363ffffffff167c0100000000000000000000000000000000000000000000000000000000028152600401808373ffffffffffffffffffffffffffffffffffffffff1673ffffffffffffffffffffffffffffffffffffffff16815260200182815260200192505050600060405180830381600087803b151561116057600080fd5b6102c65a03f1151561117157600080fd5b5050505050505050565b80600680600a81111561118a57fe5b600260009054906101000a900473ffffffffffffffffffffffffffffffffffffffff1673ffffffffffffffffffffffffffffffffffffffff166331e658a5846000604051602001526040518263ffffffff167c0100000000000000000000000000000000000000000000000000000000028152600401808273ffffffffffffffffffffffffffffffffffffffff1673ffffffffffffffffffffffffffffffffffffffff168152602001915050602060405180830381600087803b151561124f57600080fd5b6102c65a03f1151561126057600080fd5b50505060405180519050600a81111561127557fe5b14151561128157600080fd5b6002600560008573ffffffffffffffffffffffffffffffffffffffff1673ffffffffffffffffffffffffffffffffffffffff168152602001908152602001600020540142118015156112d257600080fd5b600260009054906101000a900473ffffffffffffffffffffffffffffffffffffffff1673ffffffffffffffffffffffffffffffffffffffff166327737d5885600a6040518363ffffffff167c0100000000000000000000000000000000000000000000000000000000028152600401808373ffffffffffffffffffffffffffffffffffffffff1673ffffffffffffffffffffffffffffffffffffffff16815260200182600a81111561138057fe5b60ff16815260200192505050600060405180830381600087803b15156113a557600080fd5b6102c65a03f115156113b657600080fd5b5050508373ffffffffffffffffffffffffffffffffffffffff1663095ea7b3600260009054906101000a900473ffffffffffffffffffffffffffffffffffffffff1673ffffffffffffffffffffffffffffffffffffffff1663b7748208876000604051602001526040518263ffffffff167c0100000000000000000000000000000000000000000000000000000000028152600401808273ffffffffffffffffffffffffffffffffffffffff1673ffffffffffffffffffffffffffffffffffffffff168152602001915050602060405180830381600087803b151561149a57600080fd5b6102c65a03f115156114ab57600080fd5b50505060405180519050600260009054906101000a900473ffffffffffffffffffffffffffffffffffffffff1673ffffffffffffffffffffffffffffffffffffffff1663aea91078886000604051602001526040518263ffffffff167c0100000000000000000000000000000000000000000000000000000000028152600401808273ffffffffffffffffffffffffffffffffffffffff1673ffffffffffffffffffffffffffffffffffffffff168152602001915050602060405180830381600087803b151561157a57600080fd5b6102c65a03f1151561158b57600080fd5b505050604051805190506040518363ffffffff167c0100000000000000000000000000000000000000000000000000000000028152600401808373ffffffffffffffffffffffffffffffffffffffff1673ffffffffffffffffffffffffffffffffffffffff16815260200182815260200192505050600060405180830381600087803b151561161957600080fd5b6102c65a03f1151561162a57600080fd5b5050508373ffffffffffffffffffffffffffffffffffffffff1663095ea7b3600260009054906101000a900473ffffffffffffffffffffffffffffffffffffffff1673ffffffffffffffffffffffffffffffffffffffff1663e21a8991876000604051602001526040518263ffffffff167c0100000000000000000000000000000000000000000000000000000000028152600401808273ffffffffffffffffffffffffffffffffffffffff1673ffffffffffffffffffffffffffffffffffffffff168152602001915050602060405180830381600087803b151561170e57600080fd5b6102c65a03f1151561171f57600080fd5b50505060405180519050600260009054906101000a900473ffffffffffffffffffffffffffffffffffffffff1673ffffffffffffffffffffffffffffffffffffffff1663aea91078886000604051602001526040518263ffffffff167c0100000000000000000000000000000000000000000000000000000000028152600401808273ffffffffffffffffffffffffffffffffffffffff1673ffffffffffffffffffffffffffffffffffffffff168152602001915050602060405180830381600087803b15156117ee57600080fd5b6102c65a03f115156117ff57600080fd5b505050604051805190506040518363ffffffff167c0100000000000000000000000000000000000000000000000000000000028152600401808373ffffffffffffffffffffffffffffffffffffffff1673ffffffffffffffffffffffffffffffffffffffff16815260200182815260200192505050600060405180830381600087803b151561188d57600080fd5b6102c65a03f1151561189e57600080fd5b50505050505050565b60096020528060005260406000206000915054906101000a900460ff1681565b600081600980600a8111156118d857fe5b600260009054906101000a900473ffffffffffffffffffffffffffffffffffffffff1673ffffffffffffffffffffffffffffffffffffffff166331e658a5846000604051602001526040518263ffffffff167c0100000000000000000000000000000000000000000000000000000000028152600401808273ffffffffffffffffffffffffffffffffffffffff1673ffffffffffffffffffffffffffffffffffffffff168152602001915050602060405180830381600087803b151561199d57600080fd5b6102c65a03f115156119ae57600080fd5b50505060405180519050600a8111156119c357fe5b1415156119cf57600080fd5b6002600560008673ffffffffffffffffffffffffffffffffffffffff1673ffffffffffffffffffffffffffffffffffffffff16815260200190815260200160002054014211801515611a2057600080fd5b600960008673ffffffffffffffffffffffffffffffffffffffff1673ffffffffffffffffffffffffffffffffffffffff16815260200190815260200160002060009054906101000a900460ff1615611ba957600260009054906101000a900473ffffffffffffffffffffffffffffffffffffffff1673ffffffffffffffffffffffffffffffffffffffff166327737d5886600460008973ffffffffffffffffffffffffffffffffffffffff1673ffffffffffffffffffffffffffffffffffffffff16815260200190815260200160002060009054906101000a900460ff166040518363ffffffff167c0100000000000000000000000000000000000000000000000000000000028152600401808373ffffffffffffffffffffffffffffffffffffffff1673ffffffffffffffffffffffffffffffffffffffff16815260200182600a811115611b6b57fe5b60ff16815260200192505050600060405180830381600087803b1515611b9057600080fd5b6102c65a03f11515611ba157600080fd5b50505061220d565b600260009054906101000a900473ffffffffffffffffffffffffffffffffffffffff1673ffffffffffffffffffffffffffffffffffffffff166327737d5886600a6040518363ffffffff167c0100000000000000000000000000000000000000000000000000000000028152600401808373ffffffffffffffffffffffffffffffffffffffff1673ffffffffffffffffffffffffffffffffffffffff16815260200182600a811115611c5757fe5b60ff16815260200192505050600060405180830381600087803b1515611c7c57600080fd5b6102c65a03f11515611c8d57600080fd5b5050508473ffffffffffffffffffffffffffffffffffffffff1663095ea7b3600260009054906101000a900473ffffffffffffffffffffffffffffffffffffffff1673ffffffffffffffffffffffffffffffffffffffff166339b9c30c886000604051602001526040518263ffffffff167c0100000000000000000000000000000000000000000000000000000000028152600401808273ffffffffffffffffffffffffffffffffffffffff1673ffffffffffffffffffffffffffffffffffffffff168152602001915050602060405180830381600087803b1515611d7157600080fd5b6102c65a03f11515611d8257600080fd5b50505060405180519050600660008973ffffffffffffffffffffffffffffffffffffffff1673ffffffffffffffffffffffffffffffffffffffff168152602001908152602001600020546040518363ffffffff167c0100000000000000000000000000000000000000000000000000000000028152600401808373ffffffffffffffffffffffffffffffffffffffff1673ffffffffffffffffffffffffffffffffffffffff16815260200182815260200192505050600060405180830381600087803b1515611e5057600080fd5b6102c65a03f11515611e6157600080fd5b5050508473ffffffffffffffffffffffffffffffffffffffff1663095ea7b3600260009054906101000a900473ffffffffffffffffffffffffffffffffffffffff1673ffffffffffffffffffffffffffffffffffffffff1663e21a8991886000604051602001526040518263ffffffff167c0100000000000000000000000000000000000000000000000000000000028152600401808273ffffffffffffffffffffffffffffffffffffffff1673ffffffffffffffffffffffffffffffffffffffff168152602001915050602060405180830381600087803b1515611f4557600080fd5b6102c65a03f11515611f5657600080fd5b50505060405180519050600860008973ffffffffffffffffffffffffffffffffffffffff1673ffffffffffffffffffffffffffffffffffffffff168152602001908152602001600020546040518363ffffffff167c0100000000000000000000000000000000000000000000000000000000028152600401808373ffffffffffffffffffffffffffffffffffffffff1673ffffffffffffffffffffffffffffffffffffffff16815260200182815260200192505050600060405180830381600087803b151561202457600080fd5b6102c65a03f1151561203557600080fd5b5050508473ffffffffffffffffffffffffffffffffffffffff1663095ea7b3600260009054906101000a900473ffffffffffffffffffffffffffffffffffffffff1673ffffffffffffffffffffffffffffffffffffffff1663b7748208886000604051602001526040518263ffffffff167c0100000000000000000000000000000000000000000000000000000000028152600401808273ffffffffffffffffffffffffffffffffffffffff1673ffffffffffffffffffffffffffffffffffffffff168152602001915050602060405180830381600087803b151561211957600080fd5b6102c65a03f1151561212a57600080fd5b50505060405180519050600760008973ffffffffffffffffffffffffffffffffffffffff1673ffffffffffffffffffffffffffffffffffffffff168152602001908152602001600020546040518363ffffffff167c0100000000000000000000000000000000000000000000000000000000028152600401808373ffffffffffffffffffffffffffffffffffffffff1673ffffffffffffffffffffffffffffffffffffffff16815260200182815260200192505050600060405180830381600087803b15156121f857600080fd5b6102c65a03f1151561220957600080fd5b5050505b600360008673ffffffffffffffffffffffffffffffffffffffff1673ffffffffffffffffffffffffffffffffffffffff1681526020019081526020016000205493506000600360008773ffffffffffffffffffffffffffffffffffffffff1673ffffffffffffffffffffffffffffffffffffffff168152602001908152602001600020819055508473ffffffffffffffffffffffffffffffffffffffff1663095ea7b3600a60008873ffffffffffffffffffffffffffffffffffffffff1673ffffffffffffffffffffffffffffffffffffffff16815260200190815260200160002060009054906101000a900473ffffffffffffffffffffffffffffffffffffffff16866040518363ffffffff167c0100000000000000000000000000000000000000000000000000000000028152600401808373ffffffffffffffffffffffffffffffffffffffff1673ffffffffffffffffffffffffffffffffffffffff16815260200182815260200192505050600060405180830381600087803b151561239557600080fd5b6102c65a03f115156123a657600080fd5b5050505050505050565b6000600260149054906101000a900460ff16158015156123cf57600080fd5b6001600260146101000a81548160ff02191690831515021790555082600260006101000a81548173ffffffffffffffffffffffffffffffffffffffff021916908373ffffffffffffffffffffffffffffffffffffffff1602179055506001915050919050565b81600880600a81111561244457fe5b600260009054906101000a900473ffffffffffffffffffffffffffffffffffffffff1673ffffffffffffffffffffffffffffffffffffffff166331e658a5846000604051602001526040518263ffffffff167c0100000000000000000000000000000000000000000000000000000000028152600401808273ffffffffffffffffffffffffffffffffffffffff1673ffffffffffffffffffffffffffffffffffffffff168152602001915050602060405180830381600087803b151561250957600080fd5b6102c65a03f1151561251a57600080fd5b50505060405180519050600a81111561252f57fe5b14151561253b57600080fd5b82600360008673ffffffffffffffffffffffffffffffffffffffff1673ffffffffffffffffffffffffffffffffffffffff168152602001908152602001600020600082825401925050819055508373ffffffffffffffffffffffffffffffffffffffff166301c6adc333856040518363ffffffff167c0100000000000000000000000000000000000000000000000000000000028152600401808373ffffffffffffffffffffffffffffffffffffffff1673ffffffffffffffffffffffffffffffffffffffff16815260200182815260200192505050600060405180830381600087803b151561262a57600080fd5b6102c65a03f1151561263b57600080fd5b50505050505050565b80600480600a81111561265357fe5b600260009054906101000a900473ffffffffffffffffffffffffffffffffffffffff1673ffffffffffffffffffffffffffffffffffffffff166331e658a5846000604051602001526040518263ffffffff167c0100000000000000000000000000000000000000000000000000000000028152600401808273ffffffffffffffffffffffffffffffffffffffff1673ffffffffffffffffffffffffffffffffffffffff168152602001915050602060405180830381600087803b151561271857600080fd5b6102c65a03f1151561272957600080fd5b50505060405180519050600a81111561273e57fe5b14151561274a57600080fd5b823373ffffffffffffffffffffffffffffffffffffffff16600260009054906101000a900473ffffffffffffffffffffffffffffffffffffffff1673ffffffffffffffffffffffffffffffffffffffff1663e21a8991836000604051602001526040518263ffffffff167c0100000000000000000000000000000000000000000000000000000000028152600401808273ffffffffffffffffffffffffffffffffffffffff1673ffffffffffffffffffffffffffffffffffffffff168152602001915050602060405180830381600087803b151561282757600080fd5b6102c65a03f1151561283857600080fd5b5050506040518051905073ffffffffffffffffffffffffffffffffffffffff1614151561286457600080fd5b600260009054906101000a900473ffffffffffffffffffffffffffffffffffffffff1673ffffffffffffffffffffffffffffffffffffffff166327737d588560056040518363ffffffff167c0100000000000000000000000000000000000000000000000000000000028152600401808373ffffffffffffffffffffffffffffffffffffffff1673ffffffffffffffffffffffffffffffffffffffff16815260200182600a81111561291257fe5b60ff16815260200192505050600060405180830381600087803b151561293757600080fd5b6102c65a03f1151561294857600080fd5b50505050505050565b60066020528060005260406000206000915090505481565b803373ffffffffffffffffffffffffffffffffffffffff16600260009054906101000a900473ffffffffffffffffffffffffffffffffffffffff1673ffffffffffffffffffffffffffffffffffffffff166339b9c30c836000604051602001526040518263ffffffff167c0100000000000000000000000000000000000000000000000000000000028152600401808273ffffffffffffffffffffffffffffffffffffffff1673ffffffffffffffffffffffffffffffffffffffff168152602001915050602060405180830381600087803b1515612a4657600080fd5b6102c65a03f11515612a5757600080fd5b5050506040518051905073ffffffffffffffffffffffffffffffffffffffff16141515612a8357600080fd5b81600680600a811115612a9257fe5b600260009054906101000a900473ffffffffffffffffffffffffffffffffffffffff1673ffffffffffffffffffffffffffffffffffffffff166331e658a5846000604051602001526040518263ffffffff167c0100000000000000000000000000000000000000000000000000000000028152600401808273ffffffffffffffffffffffffffffffffffffffff1673ffffffffffffffffffffffffffffffffffffffff168152602001915050602060405180830381600087803b1515612b5757600080fd5b6102c65a03f11515612b6857600080fd5b50505060405180519050600a811115612b7d57fe5b141515612b8957600080fd5b6002600560008673ffffffffffffffffffffffffffffffffffffffff1673ffffffffffffffffffffffffffffffffffffffff1681526020019081526020016000205401421115801515612bdb57600080fd5b600260009054906101000a900473ffffffffffffffffffffffffffffffffffffffff1673ffffffffffffffffffffffffffffffffffffffff166327737d588660076040518363ffffffff167c0100000000000000000000000000000000000000000000000000000000028152600401808373ffffffffffffffffffffffffffffffffffffffff1673ffffffffffffffffffffffffffffffffffffffff16815260200182600a811115612c8957fe5b60ff16815260200192505050600060405180830381600087803b1515612cae57600080fd5b6102c65a03f11515612cbf57600080fd5b5050505050505050565b803373ffffffffffffffffffffffffffffffffffffffff16600260009054906101000a900473ffffffffffffffffffffffffffffffffffffffff1673ffffffffffffffffffffffffffffffffffffffff1663e21a8991836000604051602001526040518263ffffffff167c0100000000000000000000000000000000000000000000000000000000028152600401808273ffffffffffffffffffffffffffffffffffffffff1673ffffffffffffffffffffffffffffffffffffffff168152602001915050602060405180830381600087803b1515612da657600080fd5b6102c65a03f11515612db757600080fd5b5050506040518051905073ffffffffffffffffffffffffffffffffffffffff16141515612de357600080fd5b81600780600a811115612df257fe5b600260009054906101000a900473ffffffffffffffffffffffffffffffffffffffff1673ffffffffffffffffffffffffffffffffffffffff166331e658a5846000604051602001526040518263ffffffff167c0100000000000000000000000000000000000000000000000000000000028152600401808273ffffffffffffffffffffffffffffffffffffffff1673ffffffffffffffffffffffffffffffffffffffff168152602001915050602060405180830381600087803b1515612eb757600080fd5b6102c65a03f11515612ec857600080fd5b50505060405180519050600a811115612edd57fe5b141515612ee957600080fd5b600260009054906101000a900473ffffffffffffffffffffffffffffffffffffffff1673ffffffffffffffffffffffffffffffffffffffff166327737d5885600a6040518363ffffffff167c0100000000000000000000000000000000000000000000000000000000028152600401808373ffffffffffffffffffffffffffffffffffffffff1673ffffffffffffffffffffffffffffffffffffffff16815260200182600a811115612f9757fe5b60ff16815260200192505050600060405180830381600087803b1515612fbc57600080fd5b6102c65a03f11515612fcd57600080fd5b5050508373ffffffffffffffffffffffffffffffffffffffff1663095ea7b3600260009054906101000a900473ffffffffffffffffffffffffffffffffffffffff1673ffffffffffffffffffffffffffffffffffffffff1663b7748208876000604051602001526040518263ffffffff167c0100000000000000000000000000000000000000000000000000000000028152600401808273ffffffffffffffffffffffffffffffffffffffff1673ffffffffffffffffffffffffffffffffffffffff168152602001915050602060405180830381600087803b15156130b157600080fd5b6102c65a03f115156130c257600080fd5b50505060405180519050600260009054906101000a900473ffffffffffffffffffffffffffffffffffffffff1673ffffffffffffffffffffffffffffffffffffffff1663aea91078886000604051602001526040518263ffffffff167c0100000000000000000000000000000000000000000000000000000000028152600401808273ffffffffffffffffffffffffffffffffffffffff1673ffffffffffffffffffffffffffffffffffffffff168152602001915050602060405180830381600087803b151561319157600080fd5b6102c65a03f115156131a257600080fd5b505050604051805190506040518363ffffffff167c0100000000000000000000000000000000000000000000000000000000028152600401808373ffffffffffffffffffffffffffffffffffffffff1673ffffffffffffffffffffffffffffffffffffffff16815260200182815260200192505050600060405180830381600087803b151561323057600080fd5b6102c65a03f1151561324157600080fd5b5050508373ffffffffffffffffffffffffffffffffffffffff1663095ea7b3600260009054906101000a900473ffffffffffffffffffffffffffffffffffffffff1673ffffffffffffffffffffffffffffffffffffffff166339b9c30c876000604051602001526040518263ffffffff167c0100000000000000000000000000000000000000000000000000000000028152600401808273ffffffffffffffffffffffffffffffffffffffff1673ffffffffffffffffffffffffffffffffffffffff168152602001915050602060405180830381600087803b151561332557600080fd5b6102c65a03f1151561333657600080fd5b50505060405180519050600260009054906101000a900473ffffffffffffffffffffffffffffffffffffffff1673ffffffffffffffffffffffffffffffffffffffff1663aea91078886000604051602001526040518263ffffffff167c0100000000000000000000000000000000000000000000000000000000028152600401808273ffffffffffffffffffffffffffffffffffffffff1673ffffffffffffffffffffffffffffffffffffffff168152602001915050602060405180830381600087803b151561340557600080fd5b6102c65a03f1151561341657600080fd5b505050604051805190506040518363ffffffff167c0100000000000000000000000000000000000000000000000000000000028152600401808373ffffffffffffffffffffffffffffffffffffffff1673ffffffffffffffffffffffffffffffffffffffff16815260200182815260200192505050600060405180830381600087803b15156134a457600080fd5b6102c65a03f115156134b557600080fd5b50505050505050565b600160009054906101000a900473ffffffffffffffffffffffffffffffffffffffff1673ffffffffffffffffffffffffffffffffffffffff166356ff942d336000604051602001526040518263ffffffff167c0100000000000000000000000000000000000000000000000000000000028152600401808273ffffffffffffffffffffffffffffffffffffffff1673ffffffffffffffffffffffffffffffffffffffff168152602001915050602060405180830381600087803b151561358357600080fd5b6102c65a03f1151561359457600080fd5b5050506040518051905015156135a957600080fd5b80600880600a8111156135b857fe5b600260009054906101000a900473ffffffffffffffffffffffffffffffffffffffff1673ffffffffffffffffffffffffffffffffffffffff166331e658a5846000604051602001526040518263ffffffff167c0100000000000000000000000000000000000000000000000000000000028152600401808273ffffffffffffffffffffffffffffffffffffffff1673ffffffffffffffffffffffffffffffffffffffff168152602001915050602060405180830381600087803b151561367d57600080fd5b6102c65a03f1151561368e57600080fd5b50505060405180519050600a8111156136a357fe5b1415156136af57600080fd5b600260009054906101000a900473ffffffffffffffffffffffffffffffffffffffff1673ffffffffffffffffffffffffffffffffffffffff166327737d588460096040518363ffffffff167c0100000000000000000000000000000000000000000000000000000000028152600401808373ffffffffffffffffffffffffffffffffffffffff1673ffffffffffffffffffffffffffffffffffffffff16815260200182600a81111561375d57fe5b60ff16815260200192505050600060405180830381600087803b151561378257600080fd5b6102c65a03f1151561379357600080fd5b50505033600a60008573ffffffffffffffffffffffffffffffffffffffff1673ffffffffffffffffffffffffffffffffffffffff16815260200190815260200160002060006101000a81548173ffffffffffffffffffffffffffffffffffffffff021916908373ffffffffffffffffffffffffffffffffffffffff16021790555042600560008573ffffffffffffffffffffffffffffffffffffffff1673ffffffffffffffffffffffffffffffffffffffff168152602001908152602001600020819055506001600960008573ffffffffffffffffffffffffffffffffffffffff1673ffffffffffffffffffffffffffffffffffffffff16815260200190815260200160002060006101000a81548160ff021916908315150217905550505050565b80600980600a8111156138c457fe5b600260009054906101000a900473ffffffffffffffffffffffffffffffffffffffff1673ffffffffffffffffffffffffffffffffffffffff166331e658a5846000604051602001526040518263ffffffff167c0100000000000000000000000000000000000000000000000000000000028152600401808273ffffffffffffffffffffffffffffffffffffffff1673ffffffffffffffffffffffffffffffffffffffff168152602001915050602060405180830381600087803b151561398957600080fd5b6102c65a03f1151561399a57600080fd5b50505060405180519050600a8111156139af57fe5b1415156139bb57600080fd5b6002600560008573ffffffffffffffffffffffffffffffffffffffff1673ffffffffffffffffffffffffffffffffffffffff1681526020019081526020016000205401421115801515613a0d57600080fd5b600260009054906101000a900473ffffffffffffffffffffffffffffffffffffffff1673ffffffffffffffffffffffffffffffffffffffff166339b9c30c856000604051602001526040518263ffffffff167c0100000000000000000000000000000000000000000000000000000000028152600401808273ffffffffffffffffffffffffffffffffffffffff1673ffffffffffffffffffffffffffffffffffffffff168152602001915050602060405180830381600087803b1515613ad257600080fd5b6102c65a03f11515613ae357600080fd5b5050506040518051905073ffffffffffffffffffffffffffffffffffffffff163373ffffffffffffffffffffffffffffffffffffffff161480613c305750600260009054906101000a900473ffffffffffffffffffffffffffffffffffffffff1673ffffffffffffffffffffffffffffffffffffffff1663b7748208856000604051602001526040518263ffffffff167c0100000000000000000000000000000000000000000000000000000000028152600401808273ffffffffffffffffffffffffffffffffffffffff1673ffffffffffffffffffffffffffffffffffffffff168152602001915050602060405180830381600087803b1515613be657600080fd5b6102c65a03f11515613bf757600080fd5b5050506040518051905073ffffffffffffffffffffffffffffffffffffffff163373ffffffffffffffffffffffffffffffffffffffff16145b80613d455750600260009054906101000a900473ffffffffffffffffffffffffffffffffffffffff1673ffffffffffffffffffffffffffffffffffffffff1663e21a8991856000604051602001526040518263ffffffff167c0100000000000000000000000000000000000000000000000000000000028152600401808273ffffffffffffffffffffffffffffffffffffffff1673ffffffffffffffffffffffffffffffffffffffff168152602001915050602060405180830381600087803b1515613cfb57600080fd5b6102c65a03f11515613d0c57600080fd5b5050506040518051905073ffffffffffffffffffffffffffffffffffffffff163373ffffffffffffffffffffffffffffffffffffffff16145b801515613d5157600080fd5b600260009054906101000a900473ffffffffffffffffffffffffffffffffffffffff1673ffffffffffffffffffffffffffffffffffffffff166327737d588660086040518363ffffffff167c0100000000000000000000000000000000000000000000000000000000028152600401808373ffffffffffffffffffffffffffffffffffffffff1673ffffffffffffffffffffffffffffffffffffffff16815260200182600a811115613dff57fe5b60ff16815260200192505050600060405180830381600087803b1515613e2457600080fd5b6102c65a03f11515613e3557600080fd5b505050600660008673ffffffffffffffffffffffffffffffffffffffff1673ffffffffffffffffffffffffffffffffffffffff16815260200190815260200160002060009055600760008673ffffffffffffffffffffffffffffffffffffffff1673ffffffffffffffffffffffffffffffffffffffff16815260200190815260200160002060009055600860008673ffffffffffffffffffffffffffffffffffffffff1673ffffffffffffffffffffffffffffffffffffffff168152602001908152602001600020600090556000600960008773ffffffffffffffffffffffffffffffffffffffff1673ffffffffffffffffffffffffffffffffffffffff16815260200190815260200160002060006101000a81548160ff0219169083151502179055505050505050565b60036020528060005260406000206000915090505481565b600160009054906101000a900473ffffffffffffffffffffffffffffffffffffffff1673ffffffffffffffffffffffffffffffffffffffff166356ff942d336000604051602001526040518263ffffffff167c0100000000000000000000000000000000000000000000000000000000028152600401808273ffffffffffffffffffffffffffffffffffffffff1673ffffffffffffffffffffffffffffffffffffffff168152602001915050602060405180830381600087803b151561403d57600080fd5b6102c65a03f1151561404e57600080fd5b50505060405180519050151561406357600080fd5b83600880600a81111561407257fe5b600260009054906101000a900473ffffffffffffffffffffffffffffffffffffffff1673ffffffffffffffffffffffffffffffffffffffff166331e658a5846000604051602001526040518263ffffffff167c0100000000000000000000000000000000000000000000000000000000028152600401808273ffffffffffffffffffffffffffffffffffffffff1673ffffffffffffffffffffffffffffffffffffffff168152602001915050602060405180830381600087803b151561413757600080fd5b6102c65a03f1151561414857600080fd5b50505060405180519050600a81111561415d57fe5b14151561416957600080fd5b6000809054906101000a900473ffffffffffffffffffffffffffffffffffffffff1673ffffffffffffffffffffffffffffffffffffffff166370a08231876000604051602001526040518263ffffffff167c0100000000000000000000000000000000000000000000000000000000028152600401808273ffffffffffffffffffffffffffffffffffffffff1673ffffffffffffffffffffffffffffffffffffffff168152602001915050602060405180830381600087803b151561422d57600080fd5b6102c65a03f1151561423e57600080fd5b50505060405180519050600360008873ffffffffffffffffffffffffffffffffffffffff1673ffffffffffffffffffffffffffffffffffffffff168152602001908152602001600020548486880101011480151561429b57600080fd5b600260009054906101000a900473ffffffffffffffffffffffffffffffffffffffff1673ffffffffffffffffffffffffffffffffffffffff166327737d588860096040518363ffffffff167c0100000000000000000000000000000000000000000000000000000000028152600401808373ffffffffffffffffffffffffffffffffffffffff1673ffffffffffffffffffffffffffffffffffffffff16815260200182600a81111561434957fe5b60ff16815260200192505050600060405180830381600087803b151561436e57600080fd5b6102c65a03f1151561437f57600080fd5b50505033600a60008973ffffffffffffffffffffffffffffffffffffffff1673ffffffffffffffffffffffffffffffffffffffff16815260200190815260200160002060006101000a81548173ffffffffffffffffffffffffffffffffffffffff021916908373ffffffffffffffffffffffffffffffffffffffff16021790555042600560008973ffffffffffffffffffffffffffffffffffffffff1673ffffffffffffffffffffffffffffffffffffffff1681526020019081526020016000208190555085600660008973ffffffffffffffffffffffffffffffffffffffff1673ffffffffffffffffffffffffffffffffffffffff1681526020019081526020016000208190555084600760008973ffffffffffffffffffffffffffffffffffffffff1673ffffffffffffffffffffffffffffffffffffffff1681526020019081526020016000208190555083600860008973ffffffffffffffffffffffffffffffffffffffff1673ffffffffffffffffffffffffffffffffffffffff1681526020019081526020016000208190555050505050505050565b600760205280600052604060002060009150905054815600a165627a7a72305820eec82ba68f2c312953090a46e6ee62c902e7d03840950f12c66c2418d0dc582b0029",
  "source": "pragma solidity ^0.4.0;\r\n\r\nimport \"../Token/Token.sol\";\r\nimport \"./SensorLibrary.sol\";\r\nimport \"./PurchaseData.sol\";\r\nimport \"./MinimalPurchase.sol\";\r\nimport \"../Voting/Clerk.sol\";\r\n\r\ncontract Purchase2 {\r\n\r\n  uint constant day = 2;\r\n\r\n  Token t;\r\n  Clerk c;\r\n  PurchaseData p;\r\n  bool purchaseDataSet;\r\n  mapping(address => uint) public clerkPayment;\r\n  mapping(address => PurchaseData.State) previousState;\r\n  mapping(address => uint) public arrivalTime;\r\n  mapping(address => uint) public sellerTokens;\r\n  mapping(address => uint) public buyerTokens;\r\n  mapping(address => uint) public logisticsTokens;\r\n  mapping(address => bool) public returnToPrevState;\r\n  mapping(address => address) public currentClerk;\r\n\r\n  modifier condition(bool _condition) {\r\n    require(_condition);\r\n    _;\r\n  }\r\n\r\n  modifier onlyBuyer(address purchase) {\r\n    require(p.buyer(purchase) == msg.sender);\r\n    _;\r\n  }\r\n\r\n  modifier onlySeller(address purchase) {\r\n    require(p.seller(purchase) == msg.sender);\r\n    _;\r\n  }\r\n\r\n  modifier onlyDeliveryCompany(address purchase) {\r\n    require(p.deliveryCompany(purchase) == msg.sender);\r\n    _;\r\n  }\r\n\r\n  modifier notSeller(address purchase) {\r\n    require(!(p.seller(purchase) == msg.sender));\r\n    _;\r\n  }\r\n\r\n  modifier inState(address purchase, PurchaseData.State _state) {\r\n    require(p.state(purchase) == _state);\r\n    _;\r\n  }\r\n\r\n  modifier onlyClerk() {\r\n    require(c.isClerk(msg.sender));\r\n    _;\r\n  }\r\n\r\n  event Proposed(address from);\r\n  event Declined(address from);\r\n  event Accepted(address from);\r\n  event Delivered(address from);\r\n  event Satisfied(address from);\r\n  event Dissatisfied(address from);\r\n\r\n  function Purchase2(address _token, address _clerk) public {\r\n    t = Token(_token);\r\n    c = Clerk(_clerk);\r\n  }\r\n\r\n  function setPurchaseData(address _purchaseData)\r\n    public\r\n    condition(!purchaseDataSet)\r\n    returns(bool)\r\n  {\r\n    purchaseDataSet = true;\r\n    p = PurchaseData(_purchaseData);\r\n    return true;\r\n  }\r\n\r\n  ////////////////////////\r\n  ///---Dissatisfied---///\r\n  ////////////////////////\r\n\r\n  function transportReturn(address purchase)\r\n    public\r\n    inState(purchase, PurchaseData.State.Dissatisfied)\r\n    onlyDeliveryCompany(purchase)\r\n  {\r\n    p.setState(purchase, PurchaseData.State.Return);\r\n  }\r\n\r\n  //////////////////\r\n  ///---Return---///\r\n  //////////////////\r\n\r\n  function deliverReturn(address purchase)\r\n    public\r\n    inState(purchase, PurchaseData.State.Return)\r\n    onlyDeliveryCompany(purchase)\r\n  {\r\n    p.setState(purchase, PurchaseData.State.Returned);\r\n    arrivalTime[purchase] = now;\r\n  }\r\n\r\n  ////////////////////\r\n  ///---Returned---///\r\n  ////////////////////\r\n\r\n  function successReturn(address purchase)\r\n    public\r\n    inState(purchase, PurchaseData.State.Returned)\r\n    condition(now > arrivalTime[purchase] + day)\r\n  {\r\n    p.setState(purchase, PurchaseData.State.Inactive);\r\n    MinimalPurchase(purchase).approve(p.buyer(purchase), p.price(purchase));\r\n    MinimalPurchase(purchase).approve(p.deliveryCompany(purchase), p.price(purchase));\r\n  }\r\n\r\n  function goodsDamaged(address purchase)\r\n    public\r\n    onlySeller(purchase)\r\n    inState(purchase, PurchaseData.State.Returned)\r\n    condition(now <= arrivalTime[purchase] + day)\r\n  {\r\n    p.setState(purchase, PurchaseData.State.Review);\r\n  }\r\n\r\n  //////////////////\r\n  ///---Review---///\r\n  //////////////////\r\n\r\n  function compensate(address purchase)\r\n    public\r\n    onlyDeliveryCompany(purchase)\r\n    inState(purchase, PurchaseData.State.Review)\r\n  {\r\n    p.setState(purchase, PurchaseData.State.Inactive);\r\n    MinimalPurchase(purchase).approve(p.buyer(purchase), p.price(purchase));\r\n    MinimalPurchase(purchase).approve(p.seller(purchase), p.price(purchase));\r\n  }\r\n\r\n  /////////////////\r\n  ///---Clerk---///\r\n  /////////////////\r\n\r\n  function solve(address purchase, uint _seller, uint _buyer, uint _delivery)\r\n    public\r\n    onlyClerk()\r\n    inState(purchase, PurchaseData.State.Clerk)\r\n    condition(_seller+_buyer+_delivery+clerkPayment[purchase] == t.balanceOf(purchase))\r\n  {\r\n    p.setState(purchase, PurchaseData.State.Appeal);\r\n    currentClerk[purchase] = msg.sender;\r\n    arrivalTime[purchase] = now;\r\n\r\n    sellerTokens[purchase] = _seller;\r\n    buyerTokens[purchase] = _buyer;\r\n    logisticsTokens[purchase] = _delivery;\r\n  }\r\n\r\n  function returnToPreviousState(address purchase)\r\n    public\r\n    onlyClerk()\r\n    inState(purchase, PurchaseData.State.Clerk)\r\n  {\r\n    p.setState(purchase, PurchaseData.State.Appeal);\r\n    currentClerk[purchase] = msg.sender;\r\n    arrivalTime[purchase] = now;\r\n    returnToPrevState[purchase] = true;\r\n  }\r\n\r\n  function increaseClerkPayment(address purchase, uint amount)\r\n    public\r\n    inState(purchase, PurchaseData.State.Clerk)\r\n  {\r\n    clerkPayment[purchase] += amount;\r\n    MinimalPurchase(purchase).transferFrom(msg.sender, amount);\r\n  }\r\n\r\n  //////////////////\r\n  ///---Appeal---///\r\n  //////////////////\r\n\r\n  function rejectClerkDecision(address purchase)\r\n    public\r\n    inState(purchase, PurchaseData.State.Appeal)\r\n    condition(now <= arrivalTime[purchase] + day)\r\n    condition(msg.sender == p.seller(purchase)\r\n      || msg.sender == p.buyer(purchase)\r\n      || msg.sender == p.deliveryCompany(purchase))\r\n  {\r\n    p.setState(purchase, PurchaseData.State.Clerk);\r\n\r\n    delete sellerTokens[purchase];\r\n    delete buyerTokens[purchase];\r\n    delete logisticsTokens[purchase];\r\n    returnToPrevState[purchase] = false;\r\n  }\r\n\r\n  function finalizeClerkDecision(address purchase)\r\n    public\r\n    inState(purchase, PurchaseData.State.Appeal)\r\n    condition(now > arrivalTime[purchase] + day)\r\n  {\r\n    if (returnToPrevState[purchase]) {\r\n      p.setState(purchase, previousState[purchase]);\r\n    } else {\r\n      p.setState(purchase, PurchaseData.State.Inactive);\r\n\r\n\r\n\r\n      MinimalPurchase(purchase).approve(p.seller(purchase), sellerTokens[purchase]);\r\n      MinimalPurchase(purchase).approve(p.deliveryCompany(purchase), logisticsTokens[purchase]);\r\n      MinimalPurchase(purchase).approve(p.buyer(purchase), buyerTokens[purchase]);\r\n    }\r\n    uint tokens = clerkPayment[purchase];\r\n    clerkPayment[purchase] = 0;\r\n\r\n    MinimalPurchase(purchase).approve(currentClerk[purchase], tokens);\r\n  }\r\n\r\n  ///////////////////////////\r\n  ///---Other functions---///\r\n  ///////////////////////////\r\n\r\n  function clerk(address purchase, uint payment)\r\n    public\r\n    condition(p.state(purchase) != PurchaseData.State.Clerk)\r\n    condition(msg.sender == p.seller(purchase)\r\n      || msg.sender == p.buyer(purchase)\r\n      || msg.sender == p.deliveryCompany(purchase))\r\n  {\r\n    PurchaseData.State s = p.state(purchase);\r\n\r\n    p.setState(purchase, PurchaseData.State.Clerk);\r\n    previousState[purchase] = s;\r\n\r\n    clerkPayment[purchase] += payment;\r\n    MinimalPurchase(purchase).transferFrom(msg.sender, payment);\r\n  }\r\n}\r\n",
  "sourcePath": "C:\\Users\\axevalli\\IdeaProjects\\smart-package-2\\smart-package\\contracts\\Purchase\\Purchase2.sol",
  "compiler": {
    "name": "solc",
    "version": "0.4.18+commit.9cf6e910.Emscripten.clang"
  },
  "schemaVersion": "1.0.1",
  "updatedAt": "2018-04-17T14:01:51.655Z"
}