{
  "contractName": "PurchaseData",
  "abi": [
    {
      "constant": false,
      "inputs": [
        {
          "name": "purchase",
          "type": "address"
        },
        {
          "name": "_price",
          "type": "uint256"
        }
      ],
      "name": "setPrice",
      "outputs": [],
      "payable": false,
      "stateMutability": "nonpayable",
      "type": "function"
    },
    {
      "constant": false,
      "inputs": [
        {
          "name": "purchase",
          "type": "address"
        },
        {
          "name": "_buyer",
          "type": "uint256"
        }
      ],
      "name": "deleteBuyer",
      "outputs": [],
      "payable": false,
      "stateMutability": "nonpayable",
      "type": "function"
    },
    {
      "constant": false,
      "inputs": [
        {
          "name": "purchase",
          "type": "address"
        },
        {
          "name": "sensorType",
          "type": "string"
        },
        {
          "name": "sender",
          "type": "address"
        },
        {
          "name": "value",
          "type": "int256"
        }
      ],
      "name": "sensorData",
      "outputs": [],
      "payable": false,
      "stateMutability": "nonpayable",
      "type": "function"
    },
    {
      "constant": true,
      "inputs": [
        {
          "name": "",
          "type": "address"
        }
      ],
      "name": "returnAddress",
      "outputs": [
        {
          "name": "",
          "type": "string"
        }
      ],
      "payable": false,
      "stateMutability": "view",
      "type": "function"
    },
    {
      "constant": false,
      "inputs": [
        {
          "name": "purchase",
          "type": "address"
        },
        {
          "name": "_state",
          "type": "uint8"
        }
      ],
      "name": "setState",
      "outputs": [],
      "payable": false,
      "stateMutability": "nonpayable",
      "type": "function"
    },
    {
      "constant": true,
      "inputs": [
        {
          "name": "",
          "type": "address"
        }
      ],
      "name": "state",
      "outputs": [
        {
          "name": "",
          "type": "uint8"
        }
      ],
      "payable": false,
      "stateMutability": "view",
      "type": "function"
    },
    {
      "constant": true,
      "inputs": [
        {
          "name": "",
          "type": "address"
        }
      ],
      "name": "seller",
      "outputs": [
        {
          "name": "",
          "type": "address"
        }
      ],
      "payable": false,
      "stateMutability": "view",
      "type": "function"
    },
    {
      "constant": false,
      "inputs": [
        {
          "name": "purchase",
          "type": "address"
        },
        {
          "name": "_buyer",
          "type": "address"
        },
        {
          "name": "_deliveryAddress",
          "type": "string"
        },
        {
          "name": "maxTemp",
          "type": "int256"
        },
        {
          "name": "minTemp",
          "type": "int256"
        },
        {
          "name": "acceleration",
          "type": "int256"
        },
        {
          "name": "humidity",
          "type": "int256"
        },
        {
          "name": "pressure",
          "type": "int256"
        },
        {
          "name": "gps",
          "type": "bool"
        }
      ],
      "name": "addPotentialBuyer",
      "outputs": [],
      "payable": false,
      "stateMutability": "nonpayable",
      "type": "function"
    },
    {
      "constant": false,
      "inputs": [
        {
          "name": "purchase",
          "type": "address"
        },
        {
          "name": "_price",
          "type": "uint256"
        },
        {
          "name": "_seller",
          "type": "address"
        },
        {
          "name": "maxTemp",
          "type": "int256"
        },
        {
          "name": "minTemp",
          "type": "int256"
        },
        {
          "name": "acceleration",
          "type": "int256"
        },
        {
          "name": "humidity",
          "type": "int256"
        },
        {
          "name": "pressure",
          "type": "int256"
        },
        {
          "name": "gps",
          "type": "bool"
        }
      ],
      "name": "newPurchase",
      "outputs": [],
      "payable": false,
      "stateMutability": "nonpayable",
      "type": "function"
    },
    {
      "constant": false,
      "inputs": [
        {
          "name": "purchase",
          "type": "address"
        },
        {
          "name": "sensorType",
          "type": "string"
        }
      ],
      "name": "requestData",
      "outputs": [],
      "payable": false,
      "stateMutability": "nonpayable",
      "type": "function"
    },
    {
      "constant": false,
      "inputs": [
        {
          "name": "purchase",
          "type": "address"
        },
        {
          "name": "_buyer",
          "type": "uint256"
        }
      ],
      "name": "setBuyer",
      "outputs": [],
      "payable": false,
      "stateMutability": "nonpayable",
      "type": "function"
    },
    {
      "constant": true,
      "inputs": [
        {
          "name": "",
          "type": "address"
        },
        {
          "name": "",
          "type": "address"
        }
      ],
      "name": "deliveryAddress",
      "outputs": [
        {
          "name": "",
          "type": "string"
        }
      ],
      "payable": false,
      "stateMutability": "view",
      "type": "function"
    },
    {
      "constant": true,
      "inputs": [
        {
          "name": "purchase",
          "type": "address"
        },
        {
          "name": "name",
          "type": "string"
        },
        {
          "name": "_buyer",
          "type": "uint256"
        }
      ],
      "name": "getProposedTerms",
      "outputs": [
        {
          "name": "threshold",
          "type": "int256"
        },
        {
          "name": "warning",
          "type": "bool"
        },
        {
          "name": "provider",
          "type": "address"
        },
        {
          "name": "set",
          "type": "bool"
        }
      ],
      "payable": false,
      "stateMutability": "view",
      "type": "function"
    },
    {
      "constant": true,
      "inputs": [
        {
          "name": "purchase",
          "type": "address"
        }
      ],
      "name": "getPotentialBuyers",
      "outputs": [
        {
          "name": "",
          "type": "address[]"
        }
      ],
      "payable": false,
      "stateMutability": "view",
      "type": "function"
    },
    {
      "constant": true,
      "inputs": [
        {
          "name": "",
          "type": "address"
        }
      ],
      "name": "price",
      "outputs": [
        {
          "name": "",
          "type": "uint256"
        }
      ],
      "payable": false,
      "stateMutability": "view",
      "type": "function"
    },
    {
      "constant": true,
      "inputs": [
        {
          "name": "",
          "type": "address"
        }
      ],
      "name": "buyer",
      "outputs": [
        {
          "name": "",
          "type": "address"
        }
      ],
      "payable": false,
      "stateMutability": "view",
      "type": "function"
    },
    {
      "constant": true,
      "inputs": [
        {
          "name": "",
          "type": "address"
        },
        {
          "name": "",
          "type": "uint256"
        }
      ],
      "name": "potentialBuyers",
      "outputs": [
        {
          "name": "",
          "type": "address"
        }
      ],
      "payable": false,
      "stateMutability": "view",
      "type": "function"
    },
    {
      "constant": false,
      "inputs": [
        {
          "name": "purchase",
          "type": "address"
        },
        {
          "name": "_deliveryCompany",
          "type": "address"
        },
        {
          "name": "_returnAddress",
          "type": "string"
        }
      ],
      "name": "setDeliveryCompany",
      "outputs": [],
      "payable": false,
      "stateMutability": "nonpayable",
      "type": "function"
    },
    {
      "constant": true,
      "inputs": [
        {
          "name": "",
          "type": "address"
        }
      ],
      "name": "deliveryCompany",
      "outputs": [
        {
          "name": "",
          "type": "address"
        }
      ],
      "payable": false,
      "stateMutability": "view",
      "type": "function"
    },
    {
      "constant": true,
      "inputs": [
        {
          "name": "purchase",
          "type": "address"
        },
        {
          "name": "name",
          "type": "string"
        }
      ],
      "name": "getSensor",
      "outputs": [
        {
          "name": "threshold",
          "type": "int256"
        },
        {
          "name": "warning",
          "type": "bool"
        },
        {
          "name": "provider",
          "type": "address"
        },
        {
          "name": "set",
          "type": "bool"
        }
      ],
      "payable": false,
      "stateMutability": "view",
      "type": "function"
    },
    {
      "constant": false,
      "inputs": [
        {
          "name": "purchase",
          "type": "address"
        },
        {
          "name": "sensorType",
          "type": "string"
        },
        {
          "name": "_provider",
          "type": "address"
        }
      ],
      "name": "setProvider",
      "outputs": [],
      "payable": false,
      "stateMutability": "nonpayable",
      "type": "function"
    },
    {
      "inputs": [
        {
          "name": "_contract1",
          "type": "address"
        },
        {
          "name": "_contract2",
          "type": "address"
        }
      ],
      "payable": false,
      "stateMutability": "nonpayable",
      "type": "constructor"
    },
    {
      "anonymous": false,
      "inputs": [
        {
          "indexed": false,
          "name": "from",
          "type": "address"
        }
      ],
      "name": "Proposed",
      "type": "event"
    },
    {
      "anonymous": false,
      "inputs": [
        {
          "indexed": false,
          "name": "from",
          "type": "address"
        }
      ],
      "name": "Declined",
      "type": "event"
    },
    {
      "anonymous": false,
      "inputs": [
        {
          "indexed": false,
          "name": "from",
          "type": "address"
        }
      ],
      "name": "Accepted",
      "type": "event"
    },
    {
      "anonymous": false,
      "inputs": [
        {
          "indexed": false,
          "name": "from",
          "type": "address"
        }
      ],
      "name": "Delivered",
      "type": "event"
    },
    {
      "anonymous": false,
      "inputs": [
        {
          "indexed": false,
          "name": "from",
          "type": "address"
        }
      ],
      "name": "Satisfied",
      "type": "event"
    },
    {
      "anonymous": false,
      "inputs": [
        {
          "indexed": false,
          "name": "from",
          "type": "address"
        }
      ],
      "name": "Dissatisfied",
      "type": "event"
    },
    {
      "anonymous": false,
      "inputs": [
        {
          "indexed": true,
          "name": "provider",
          "type": "address"
        }
      ],
      "name": "Request",
      "type": "event"
    }
  ],
  "bytecode": "0x606060405234156200001057600080fd5b60405160408062002ba783398101604052808051906020019091908051906020019091905050600a80548060010182816200004c9190620002a0565b9160005260206000209001600084909190916101000a81548173ffffffffffffffffffffffffffffffffffffffff021916908373ffffffffffffffffffffffffffffffffffffffff16021790555050600a8054806001018281620000b19190620002a0565b9160005260206000209001600083909190916101000a81548173ffffffffffffffffffffffffffffffffffffffff021916908373ffffffffffffffffffffffffffffffffffffffff160217905550508173ffffffffffffffffffffffffffffffffffffffff166373a847aa306000604051602001526040518263ffffffff167c0100000000000000000000000000000000000000000000000000000000028152600401808273ffffffffffffffffffffffffffffffffffffffff1673ffffffffffffffffffffffffffffffffffffffff168152602001915050602060405180830381600087803b1515620001a457600080fd5b6102c65a03f11515620001b657600080fd5b505050604051805190501515620001cc57600080fd5b8073ffffffffffffffffffffffffffffffffffffffff166373a847aa306000604051602001526040518263ffffffff167c0100000000000000000000000000000000000000000000000000000000028152600401808273ffffffffffffffffffffffffffffffffffffffff1673ffffffffffffffffffffffffffffffffffffffff168152602001915050602060405180830381600087803b15156200027057600080fd5b6102c65a03f115156200028257600080fd5b5050506040518051905015156200029857600080fd5b5050620002f7565b815481835581811511620002ca57818360005260206000209182019101620002c99190620002cf565b5b505050565b620002f491905b80821115620002f0576000816000905550600101620002d6565b5090565b90565b6128a080620003076000396000f30060606040526004361061011c576000357c0100000000000000000000000000000000000000000000000000000000900463ffffffff168062e4768b146101215780630e4092fc146101635780631040c19e146101a55780632421101f1461024957806327737d58146102fb57806331e658a51461034057806339b9c30c1461039b5780633d28bb9d146104145780634e0c3172146104e757806357c50931146105805780637b049d9e146105fc5780639452412a1461063e578063a15271a81461070f578063a2a432e0146107f1578063aea910781461087f578063b7748208146108cc578063d4887e7d14610945578063dbfab8f0146109c7578063e21a899114610a62578063f3b3102914610adb578063fd22e62814610bb4575b600080fd5b341561012c57600080fd5b610161600480803573ffffffffffffffffffffffffffffffffffffffff16906020019091908035906020019091905050610c4f565b005b341561016e57600080fd5b6101a3600480803573ffffffffffffffffffffffffffffffffffffffff16906020019091908035906020019091905050610e06565b005b34156101b057600080fd5b610247600480803573ffffffffffffffffffffffffffffffffffffffff1690602001909190803590602001908201803590602001908080601f0160208091040260200160405190810160405280939291908181526020018383808284378201915050505050509190803573ffffffffffffffffffffffffffffffffffffffff16906020019091908035906020019091905050610f86565b005b341561025457600080fd5b610280600480803573ffffffffffffffffffffffffffffffffffffffff169060200190919050506111d7565b6040518080602001828103825283818151815260200191508051906020019080838360005b838110156102c05780820151818401526020810190506102a5565b50505050905090810190601f1680156102ed5780820380516001836020036101000a031916815260200191505b509250505060405180910390f35b341561030657600080fd5b61033e600480803573ffffffffffffffffffffffffffffffffffffffff1690602001909190803560ff16906020019091905050611287565b005b341561034b57600080fd5b610377600480803573ffffffffffffffffffffffffffffffffffffffff169060200190919050506113d1565b6040518082600a81111561038757fe5b60ff16815260200191505060405180910390f35b34156103a657600080fd5b6103d2600480803573ffffffffffffffffffffffffffffffffffffffff169060200190919050506113f1565b604051808273ffffffffffffffffffffffffffffffffffffffff1673ffffffffffffffffffffffffffffffffffffffff16815260200191505060405180910390f35b341561041f57600080fd5b6104e5600480803573ffffffffffffffffffffffffffffffffffffffff1690602001909190803573ffffffffffffffffffffffffffffffffffffffff1690602001909190803590602001908201803590602001908080601f016020809104026020016040519081016040528093929190818152602001838380828437820191505050505050919080359060200190919080359060200190919080359060200190919080359060200190919080359060200190919080351515906020019091905050611424565b005b34156104f257600080fd5b61057e600480803573ffffffffffffffffffffffffffffffffffffffff1690602001909190803590602001909190803573ffffffffffffffffffffffffffffffffffffffff16906020019091908035906020019091908035906020019091908035906020019091908035906020019091908035906020019091908035151590602001909190505061180d565b005b341561058b57600080fd5b6105fa600480803573ffffffffffffffffffffffffffffffffffffffff1690602001909190803590602001908201803590602001908080601f01602080910402602001604051908101604052809392919081815260200183838082843782019150505050505091905050611aca565b005b341561060757600080fd5b61063c600480803573ffffffffffffffffffffffffffffffffffffffff16906020019091908035906020019091905050611bdf565b005b341561064957600080fd5b610694600480803573ffffffffffffffffffffffffffffffffffffffff1690602001909190803573ffffffffffffffffffffffffffffffffffffffff16906020019091905050611ee2565b6040518080602001828103825283818151815260200191508051906020019080838360005b838110156106d45780820151818401526020810190506106b9565b50505050905090810190601f1680156107015780820380516001836020036101000a031916815260200191505b509250505060405180910390f35b341561071a57600080fd5b610792600480803573ffffffffffffffffffffffffffffffffffffffff1690602001909190803590602001908201803590602001908080601f01602080910402602001604051908101604052809392919081815260200183838082843782019150505050505091908035906020019091905050611f9f565b60405180858152602001841515151581526020018373ffffffffffffffffffffffffffffffffffffffff1673ffffffffffffffffffffffffffffffffffffffff1681526020018215151515815260200194505050505060405180910390f35b34156107fc57600080fd5b610828600480803573ffffffffffffffffffffffffffffffffffffffff16906020019091905050612112565b6040518080602001828103825283818151815260200191508051906020019060200280838360005b8381101561086b578082015181840152602081019050610850565b505050509050019250505060405180910390f35b341561088a57600080fd5b6108b6600480803573ffffffffffffffffffffffffffffffffffffffff169060200190919050506121e5565b6040518082815260200191505060405180910390f35b34156108d757600080fd5b610903600480803573ffffffffffffffffffffffffffffffffffffffff169060200190919050506121fd565b604051808273ffffffffffffffffffffffffffffffffffffffff1673ffffffffffffffffffffffffffffffffffffffff16815260200191505060405180910390f35b341561095057600080fd5b610985600480803573ffffffffffffffffffffffffffffffffffffffff16906020019091908035906020019091905050612230565b604051808273ffffffffffffffffffffffffffffffffffffffff1673ffffffffffffffffffffffffffffffffffffffff16815260200191505060405180910390f35b34156109d257600080fd5b610a60600480803573ffffffffffffffffffffffffffffffffffffffff1690602001909190803573ffffffffffffffffffffffffffffffffffffffff1690602001909190803590602001908201803590602001908080601f0160208091040260200160405190810160405280939291908181526020018383808284378201915050505050509190505061227e565b005b3415610a6d57600080fd5b610a99600480803573ffffffffffffffffffffffffffffffffffffffff1690602001909190505061243b565b604051808273ffffffffffffffffffffffffffffffffffffffff1673ffffffffffffffffffffffffffffffffffffffff16815260200191505060405180910390f35b3415610ae657600080fd5b610b55600480803573ffffffffffffffffffffffffffffffffffffffff1690602001909190803590602001908201803590602001908080601f0160208091040260200160405190810160405280939291908181526020018383808284378201915050505050509190505061246e565b60405180858152602001841515151581526020018373ffffffffffffffffffffffffffffffffffffffff1673ffffffffffffffffffffffffffffffffffffffff1681526020018215151515815260200194505050505060405180910390f35b3415610bbf57600080fd5b610c4d600480803573ffffffffffffffffffffffffffffffffffffffff1690602001909190803590602001908201803590602001908080601f0160208091040260200160405190810160405280939291908181526020018383808284378201915050505050509190803573ffffffffffffffffffffffffffffffffffffffff169060200190919050506125d0565b005b600a6000815481101515610c5f57fe5b906000526020600020900160009054906101000a900473ffffffffffffffffffffffffffffffffffffffff1673ffffffffffffffffffffffffffffffffffffffff163373ffffffffffffffffffffffffffffffffffffffff161480610d2a5750600a6001815481101515610ccf57fe5b906000526020600020900160009054906101000a900473ffffffffffffffffffffffffffffffffffffffff1673ffffffffffffffffffffffffffffffffffffffff163373ffffffffffffffffffffffffffffffffffffffff16145b1515610d3557600080fd5b6020604051908101604052808373ffffffffffffffffffffffffffffffffffffffff1673ffffffffffffffffffffffffffffffffffffffff16815250600860008473ffffffffffffffffffffffffffffffffffffffff1673ffffffffffffffffffffffffffffffffffffffff168152602001908152602001600020906001610dbe9291906126c2565b50806000808473ffffffffffffffffffffffffffffffffffffffff1673ffffffffffffffffffffffffffffffffffffffff168152602001908152602001600020819055505050565b600a6000815481101515610e1657fe5b906000526020600020900160009054906101000a900473ffffffffffffffffffffffffffffffffffffffff1673ffffffffffffffffffffffffffffffffffffffff163373ffffffffffffffffffffffffffffffffffffffff161480610ee15750600a6001815481101515610e8657fe5b906000526020600020900160009054906101000a900473ffffffffffffffffffffffffffffffffffffffff1673ffffffffffffffffffffffffffffffffffffffff163373ffffffffffffffffffffffffffffffffffffffff16145b1515610eec57600080fd5b81600860008473ffffffffffffffffffffffffffffffffffffffff1673ffffffffffffffffffffffffffffffffffffffff16815260200190815260200160002082815481101515610f3957fe5b906000526020600020900160006101000a81548173ffffffffffffffffffffffffffffffffffffffff021916908373ffffffffffffffffffffffffffffffffffffffff1602179055505050565b600a6000815481101515610f9657fe5b906000526020600020900160009054906101000a900473ffffffffffffffffffffffffffffffffffffffff1673ffffffffffffffffffffffffffffffffffffffff163373ffffffffffffffffffffffffffffffffffffffff1614806110615750600a600181548110151561100657fe5b906000526020600020900160009054906101000a900473ffffffffffffffffffffffffffffffffffffffff1673ffffffffffffffffffffffffffffffffffffffff163373ffffffffffffffffffffffffffffffffffffffff16145b151561106c57600080fd5b73__SensorLibrary_________________________63e9f30f5f600760008773ffffffffffffffffffffffffffffffffffffffff1673ffffffffffffffffffffffffffffffffffffffff1681526020019081526020016000208585856040518563ffffffff167c010000000000000000000000000000000000000000000000000000000002815260040180858152602001806020018473ffffffffffffffffffffffffffffffffffffffff1673ffffffffffffffffffffffffffffffffffffffff168152602001838152602001828103825285818151815260200191508051906020019080838360005b83811015611171578082015181840152602081019050611156565b50505050905090810190601f16801561119e5780820380516001836020036101000a031916815260200191505b509550505050505060006040518083038186803b15156111bd57600080fd5b6102c65a03f415156111ce57600080fd5b50505050505050565b60036020528060005260406000206000915090508054600181600116156101000203166002900480601f01602080910402602001604051908101604052809291908181526020018280546001816001161561010002031660029004801561127f5780601f106112545761010080835404028352916020019161127f565b820191906000526020600020905b81548152906001019060200180831161126257829003601f168201915b505050505081565b600a600081548110151561129757fe5b906000526020600020900160009054906101000a900473ffffffffffffffffffffffffffffffffffffffff1673ffffffffffffffffffffffffffffffffffffffff163373ffffffffffffffffffffffffffffffffffffffff1614806113625750600a600181548110151561130757fe5b906000526020600020900160009054906101000a900473ffffffffffffffffffffffffffffffffffffffff1673ffffffffffffffffffffffffffffffffffffffff163373ffffffffffffffffffffffffffffffffffffffff16145b151561136d57600080fd5b80600160008473ffffffffffffffffffffffffffffffffffffffff1673ffffffffffffffffffffffffffffffffffffffff16815260200190815260200160002060006101000a81548160ff0219169083600a8111156113c857fe5b02179055505050565b60016020528060005260406000206000915054906101000a900460ff1681565b60026020528060005260406000206000915054906101000a900473ffffffffffffffffffffffffffffffffffffffff1681565b6000600a600081548110151561143657fe5b906000526020600020900160009054906101000a900473ffffffffffffffffffffffffffffffffffffffff1673ffffffffffffffffffffffffffffffffffffffff163373ffffffffffffffffffffffffffffffffffffffff1614806115015750600a60018154811015156114a657fe5b906000526020600020900160009054906101000a900473ffffffffffffffffffffffffffffffffffffffff1673ffffffffffffffffffffffffffffffffffffffff163373ffffffffffffffffffffffffffffffffffffffff16145b151561150c57600080fd5b600860008b73ffffffffffffffffffffffffffffffffffffffff1673ffffffffffffffffffffffffffffffffffffffff168152602001908152602001600020805490509050600860008b73ffffffffffffffffffffffffffffffffffffffff1673ffffffffffffffffffffffffffffffffffffffff16815260200190815260200160002080548060010182816115a2919061274c565b916000526020600020900160008b909190916101000a81548173ffffffffffffffffffffffffffffffffffffffff021916908373ffffffffffffffffffffffffffffffffffffffff1602179055505087600660008c73ffffffffffffffffffffffffffffffffffffffff1673ffffffffffffffffffffffffffffffffffffffff16815260200190815260200160002060008b73ffffffffffffffffffffffffffffffffffffffff1673ffffffffffffffffffffffffffffffffffffffff1681526020019081526020016000209080519060200190611681929190612778565b5073__SensorLibrary_________________________631d6c248a600960008d73ffffffffffffffffffffffffffffffffffffffff1673ffffffffffffffffffffffffffffffffffffffff16815260200190815260200160002060008481526020019081526020016000208989898989896000604051602001526040518863ffffffff167c0100000000000000000000000000000000000000000000000000000000028152600401808881526020018781526020018681526020018581526020018481526020018381526020018215151515815260200197505050505050505060206040518083038186803b151561177857600080fd5b6102c65a03f4151561178957600080fd5b50505060405180519050151561179e57600080fd5b7facf29ad8d63913d38e7e1176963a4afb76bf0918516051da68408ecb6f98065d33604051808273ffffffffffffffffffffffffffffffffffffffff1673ffffffffffffffffffffffffffffffffffffffff16815260200191505060405180910390a150505050505050505050565b600a600081548110151561181d57fe5b906000526020600020900160009054906101000a900473ffffffffffffffffffffffffffffffffffffffff1673ffffffffffffffffffffffffffffffffffffffff163373ffffffffffffffffffffffffffffffffffffffff1614806118e85750600a600181548110151561188d57fe5b906000526020600020900160009054906101000a900473ffffffffffffffffffffffffffffffffffffffff1673ffffffffffffffffffffffffffffffffffffffff163373ffffffffffffffffffffffffffffffffffffffff16145b15156118f357600080fd5b876000808b73ffffffffffffffffffffffffffffffffffffffff1673ffffffffffffffffffffffffffffffffffffffff1681526020019081526020016000208190555086600260008b73ffffffffffffffffffffffffffffffffffffffff1673ffffffffffffffffffffffffffffffffffffffff16815260200190815260200160002060006101000a81548173ffffffffffffffffffffffffffffffffffffffff021916908373ffffffffffffffffffffffffffffffffffffffff16021790555073__SensorLibrary_________________________631d6c248a600760008c73ffffffffffffffffffffffffffffffffffffffff1673ffffffffffffffffffffffffffffffffffffffff1681526020019081526020016000208888888888886000604051602001526040518863ffffffff167c0100000000000000000000000000000000000000000000000000000000028152600401808881526020018781526020018681526020018581526020018481526020018381526020018215151515815260200197505050505050505060206040518083038186803b1515611a9957600080fd5b6102c65a03f41515611aaa57600080fd5b505050604051805190501515611abf57600080fd5b505050505050505050565b600760008373ffffffffffffffffffffffffffffffffffffffff1673ffffffffffffffffffffffffffffffffffffffff168152602001908152602001600020600001816040518082805190602001908083835b602083101515611b425780518252602082019150602081019050602083039250611b1d565b6001836020036101000a038019825116818451168082178552505050505050905001915050908152602001604051809103902060010160019054906101000a900473ffffffffffffffffffffffffffffffffffffffff1673ffffffffffffffffffffffffffffffffffffffff167f9a26a1f9def08abe958f09f08b27ca5d3dcc90dc0bd84ac65a66e096560f307160405160405180910390a25050565b600a6000815481101515611bef57fe5b906000526020600020900160009054906101000a900473ffffffffffffffffffffffffffffffffffffffff1673ffffffffffffffffffffffffffffffffffffffff163373ffffffffffffffffffffffffffffffffffffffff161480611cba5750600a6001815481101515611c5f57fe5b906000526020600020900160009054906101000a900473ffffffffffffffffffffffffffffffffffffffff1673ffffffffffffffffffffffffffffffffffffffff163373ffffffffffffffffffffffffffffffffffffffff16145b1515611cc557600080fd5b600860008373ffffffffffffffffffffffffffffffffffffffff1673ffffffffffffffffffffffffffffffffffffffff16815260200190815260200160002081815481101515611d1157fe5b906000526020600020900160009054906101000a900473ffffffffffffffffffffffffffffffffffffffff16600460008473ffffffffffffffffffffffffffffffffffffffff1673ffffffffffffffffffffffffffffffffffffffff16815260200190815260200160002060006101000a81548173ffffffffffffffffffffffffffffffffffffffff021916908373ffffffffffffffffffffffffffffffffffffffff16021790555073__SensorLibrary_________________________635a4751d5600760008573ffffffffffffffffffffffffffffffffffffffff1673ffffffffffffffffffffffffffffffffffffffff168152602001908152602001600020600960008673ffffffffffffffffffffffffffffffffffffffff1673ffffffffffffffffffffffffffffffffffffffff16815260200190815260200160002060008581526020019081526020016000206000604051602001526040518363ffffffff167c0100000000000000000000000000000000000000000000000000000000028152600401808381526020018281526020019250505060206040518083038186803b1515611ec257600080fd5b6102c65a03f41515611ed357600080fd5b50505060405180519050505050565b6006602052816000526040600020602052806000526040600020600091509150508054600181600116156101000203166002900480601f016020809104026020016040519081016040528092919081815260200182805460018160011615610100020316600290048015611f975780601f10611f6c57610100808354040283529160200191611f97565b820191906000526020600020905b815481529060010190602001808311611f7a57829003601f168201915b505050505081565b60008060008073__SensorLibrary_________________________63ef3179c7600960008a73ffffffffffffffffffffffffffffffffffffffff1673ffffffffffffffffffffffffffffffffffffffff1681526020019081526020016000206000888152602001908152602001600020886000604051608001526040518363ffffffff167c01000000000000000000000000000000000000000000000000000000000281526004018083815260200180602001828103825283818151815260200191508051906020019080838360005b8381101561208a57808201518184015260208101905061206f565b50505050905090810190601f1680156120b75780820380516001836020036101000a031916815260200191505b50935050505060806040518083038186803b15156120d457600080fd5b6102c65a03f415156120e557600080fd5b50505060405180519060200180519060200180519060200180519050935093509350935093509350935093565b61211a6127f8565b600860008373ffffffffffffffffffffffffffffffffffffffff1673ffffffffffffffffffffffffffffffffffffffff1681526020019081526020016000208054806020026020016040519081016040528092919081815260200182805480156121d957602002820191906000526020600020905b8160009054906101000a900473ffffffffffffffffffffffffffffffffffffffff1673ffffffffffffffffffffffffffffffffffffffff168152602001906001019080831161218f575b50505050509050919050565b60006020528060005260406000206000915090505481565b60046020528060005260406000206000915054906101000a900473ffffffffffffffffffffffffffffffffffffffff1681565b60086020528160005260406000208181548110151561224b57fe5b90600052602060002090016000915091509054906101000a900473ffffffffffffffffffffffffffffffffffffffff1681565b600a600081548110151561228e57fe5b906000526020600020900160009054906101000a900473ffffffffffffffffffffffffffffffffffffffff1673ffffffffffffffffffffffffffffffffffffffff163373ffffffffffffffffffffffffffffffffffffffff1614806123595750600a60018154811015156122fe57fe5b906000526020600020900160009054906101000a900473ffffffffffffffffffffffffffffffffffffffff1673ffffffffffffffffffffffffffffffffffffffff163373ffffffffffffffffffffffffffffffffffffffff16145b151561236457600080fd5b81600560008573ffffffffffffffffffffffffffffffffffffffff1673ffffffffffffffffffffffffffffffffffffffff16815260200190815260200160002060006101000a81548173ffffffffffffffffffffffffffffffffffffffff021916908373ffffffffffffffffffffffffffffffffffffffff16021790555080600360008573ffffffffffffffffffffffffffffffffffffffff1673ffffffffffffffffffffffffffffffffffffffff1681526020019081526020016000209080519060200190612435929190612778565b50505050565b60056020528060005260406000206000915054906101000a900473ffffffffffffffffffffffffffffffffffffffff1681565b60008060008073__SensorLibrary_________________________63ef3179c7600760008973ffffffffffffffffffffffffffffffffffffffff1673ffffffffffffffffffffffffffffffffffffffff168152602001908152602001600020876000604051608001526040518363ffffffff167c01000000000000000000000000000000000000000000000000000000000281526004018083815260200180602001828103825283818151815260200191508051906020019080838360005b8381101561254857808201518184015260208101905061252d565b50505050905090810190601f1680156125755780820380516001836020036101000a031916815260200191505b50935050505060806040518083038186803b151561259257600080fd5b6102c65a03f415156125a357600080fd5b50505060405180519060200180519060200180519060200180519050935093509350935092959194509250565b80600760008573ffffffffffffffffffffffffffffffffffffffff1673ffffffffffffffffffffffffffffffffffffffff168152602001908152602001600020600001836040518082805190602001908083835b6020831015156126495780518252602082019150602081019050602083039250612624565b6001836020036101000a038019825116818451168082178552505050505050905001915050908152602001604051809103902060010160016101000a81548173ffffffffffffffffffffffffffffffffffffffff021916908373ffffffffffffffffffffffffffffffffffffffff160217905550505050565b82805482825590600052602060002090810192821561273b579160200282015b8281111561273a5782518260006101000a81548173ffffffffffffffffffffffffffffffffffffffff021916908373ffffffffffffffffffffffffffffffffffffffff160217905550916020019190600101906126e2565b5b509050612748919061280c565b5090565b81548183558181151161277357818360005260206000209182019101612772919061284f565b5b505050565b828054600181600116156101000203166002900490600052602060002090601f016020900481019282601f106127b957805160ff19168380011785556127e7565b828001600101855582156127e7579182015b828111156127e65782518255916020019190600101906127cb565b5b5090506127f4919061284f565b5090565b602060405190810160405280600081525090565b61284c91905b8082111561284857600081816101000a81549073ffffffffffffffffffffffffffffffffffffffff021916905550600101612812565b5090565b90565b61287191905b8082111561286d576000816000905550600101612855565b5090565b905600a165627a7a72305820b1c14fcc0893922cbd6d7612a705d49ffb7cf8c6460b4909001d82513e9412b90029",
  "source": "pragma solidity ^0.4.0;\r\n\r\nimport \"../Token/Token.sol\";\r\nimport \"./SensorLibrary.sol\";\r\nimport \"./Purchase.sol\";\r\nimport \"./Purchase2.sol\";\r\n\r\ncontract PurchaseData {\r\n  enum State { Created, Locked, Transit, Confirm, Dissatisfied, Return, Returned, Review, Clerk, Appeal, Inactive }\r\n\r\n  mapping(address => uint) public price;\r\n  mapping(address => State) public state;\r\n  mapping(address => address) public seller;\r\n  mapping(address => string) public returnAddress;\r\n  mapping(address => address) public buyer;\r\n  mapping(address => address) public deliveryCompany;\r\n  mapping(address => mapping(address => string)) public deliveryAddress;\r\n  mapping(address => SensorLibrary.Sensors) terms;\r\n  mapping(address => address[]) public potentialBuyers;\r\n  mapping(address => mapping(uint => SensorLibrary.Sensors)) proposals;\r\n\r\n  event Proposed(address from);\r\n  event Declined(address from);\r\n  event Accepted(address from);\r\n  event Delivered(address from);\r\n  event Satisfied(address from);\r\n  event Dissatisfied(address from);\r\n  event Request(address indexed provider);\r\n\r\n  address[] purchaseContracts;\r\n\r\n  modifier onlyPurchaseContract() {\r\n    require(msg.sender == purchaseContracts[0] || msg.sender == purchaseContracts[1]);\r\n    _;\r\n  }\r\n\r\n  function PurchaseData(address _contract1, address _contract2) public {\r\n    purchaseContracts.push(_contract1);\r\n    purchaseContracts.push(_contract2);\r\n    require(Purchase(_contract1).setPurchaseData(this));\r\n    require(Purchase2(_contract2).setPurchaseData(this));\r\n  }\r\n\r\n  ///////////////////\r\n  ///---Setters---///\r\n  ///////////////////\r\n\r\n  function newPurchase\r\n  (\r\n    address purchase,\r\n    uint _price,\r\n    address _seller,\r\n    int maxTemp,\r\n    int minTemp,\r\n    int acceleration,\r\n    int humidity,\r\n    int pressure,\r\n    bool gps\r\n  )\r\n    public\r\n    onlyPurchaseContract()\r\n  {\r\n    price[purchase] = _price;\r\n    seller[purchase] = _seller;\r\n    require(SensorLibrary.setSensors(terms[purchase], maxTemp, minTemp, acceleration, humidity, pressure, gps));\r\n  }\r\n\r\n  function setState(address purchase, State _state)\r\n    public\r\n    onlyPurchaseContract()\r\n  {\r\n    state[purchase] = _state;\r\n  }\r\n\r\n  function requestData(address purchase, string sensorType) public {\r\n    Request(terms[purchase].sensors[sensorType].provider);\r\n  }\r\n\r\n  function sensorData(address purchase, string sensorType, address sender, int value)\r\n    public\r\n    onlyPurchaseContract()\r\n  {\r\n    SensorLibrary.sensorData(terms[purchase], sensorType, sender, value);\r\n  }\r\n\r\n  function setBuyer(address purchase, uint _buyer)\r\n    public\r\n    onlyPurchaseContract()\r\n  {\r\n    buyer[purchase] = potentialBuyers[purchase][_buyer];\r\n    SensorLibrary.combineTerms(terms[purchase], proposals[purchase][_buyer]);\r\n  }\r\n\r\n  function setDeliveryCompany(address purchase, address _deliveryCompany, string _returnAddress)\r\n    public\r\n    onlyPurchaseContract()\r\n  {\r\n    deliveryCompany[purchase] = _deliveryCompany;\r\n    returnAddress[purchase] = _returnAddress;\r\n  }\r\n\r\n  function deleteBuyer(address purchase, uint _buyer)\r\n    public\r\n    onlyPurchaseContract()\r\n  {\r\n    potentialBuyers[purchase][_buyer] = purchase;\r\n  }\r\n\r\n  function addPotentialBuyer\r\n  (\r\n    address purchase,\r\n    address _buyer,\r\n    string _deliveryAddress,\r\n    int maxTemp,\r\n    int minTemp,\r\n    int acceleration,\r\n    int humidity,\r\n    int pressure,\r\n    bool gps\r\n  )\r\n    public\r\n    onlyPurchaseContract()\r\n  {\r\n    uint i =  potentialBuyers[purchase].length;\r\n    potentialBuyers[purchase].push(_buyer);\r\n    deliveryAddress[purchase][_buyer] = _deliveryAddress;\r\n    require(SensorLibrary.setSensors(proposals[purchase][i], maxTemp, minTemp, acceleration, humidity, pressure, gps));\r\n    Proposed(msg.sender);\r\n  }\r\n\r\n  function setPrice(address purchase, uint _price)\r\n    public\r\n    onlyPurchaseContract()\r\n  {\r\n    potentialBuyers[purchase] = [purchase];\r\n    price[purchase] = _price;\r\n  }\r\n\r\n  function setProvider(address purchase, string sensorType, address _provider)\r\n    public\r\n  {\r\n   terms[purchase].sensors[sensorType].provider = _provider;\r\n  }\r\n\r\n  ///////////////////\r\n  ///---Getters---///\r\n  ///////////////////\r\n\r\n  function getSensor(address purchase, string name)\r\n    public\r\n    constant\r\n    returns(int threshold, bool warning, address provider, bool set)\r\n  {\r\n    return(SensorLibrary.getSensor(terms[purchase], name));\r\n  }\r\n\r\n  function getProposedTerms(address purchase, string name, uint _buyer)\r\n    public\r\n    constant\r\n    returns(int threshold, bool warning, address provider, bool set)\r\n  {\r\n    return(SensorLibrary.getSensor(proposals[purchase][_buyer], name));\r\n  }\r\n\r\n  function getPotentialBuyers(address purchase)\r\n    public\r\n    constant\r\n    returns(address[])\r\n  {\r\n    return potentialBuyers[purchase];\r\n  }\r\n\r\n}\r\n",
  "sourcePath": "C:\\Users\\axevalli\\IdeaProjects\\smart-package-2\\smart-package\\contracts\\Purchase\\PurchaseData.sol",
  "compiler": {
    "name": "solc",
    "version": "0.4.18+commit.9cf6e910.Emscripten.clang"
  },
  "schemaVersion": "1.0.1",
  "updatedAt": "2018-04-17T14:01:51.571Z"
}