{
  "contractName": "Purchase",
  "abi": [
    {
      "constant": false,
      "inputs": [
        {
          "name": "purchase",
          "type": "address"
        },
        {
          "name": "_price",
          "type": "uint256"
        }
      ],
      "name": "setPrice",
      "outputs": [],
      "payable": false,
      "stateMutability": "nonpayable",
      "type": "function"
    },
    {
      "constant": false,
      "inputs": [
        {
          "name": "purchase",
          "type": "address"
        },
        {
          "name": "returnAddress",
          "type": "string"
        }
      ],
      "name": "transport",
      "outputs": [],
      "payable": false,
      "stateMutability": "nonpayable",
      "type": "function"
    },
    {
      "constant": false,
      "inputs": [
        {
          "name": "purchase",
          "type": "address"
        },
        {
          "name": "sensorType",
          "type": "string"
        }
      ],
      "name": "setProvider",
      "outputs": [],
      "payable": false,
      "stateMutability": "nonpayable",
      "type": "function"
    },
    {
      "constant": false,
      "inputs": [
        {
          "name": "purchase",
          "type": "address"
        }
      ],
      "name": "success",
      "outputs": [],
      "payable": false,
      "stateMutability": "nonpayable",
      "type": "function"
    },
    {
      "constant": false,
      "inputs": [
        {
          "name": "purchase",
          "type": "address"
        },
        {
          "name": "_price",
          "type": "uint256"
        },
        {
          "name": "_seller",
          "type": "address"
        },
        {
          "name": "maxTemp",
          "type": "int256"
        },
        {
          "name": "minTemp",
          "type": "int256"
        },
        {
          "name": "acceleration",
          "type": "int256"
        },
        {
          "name": "humidity",
          "type": "int256"
        },
        {
          "name": "pressure",
          "type": "int256"
        },
        {
          "name": "gps",
          "type": "bool"
        }
      ],
      "name": "newPurchase",
      "outputs": [],
      "payable": false,
      "stateMutability": "nonpayable",
      "type": "function"
    },
    {
      "constant": false,
      "inputs": [
        {
          "name": "purchase",
          "type": "address"
        },
        {
          "name": "sensorType",
          "type": "string"
        }
      ],
      "name": "requestData",
      "outputs": [],
      "payable": false,
      "stateMutability": "nonpayable",
      "type": "function"
    },
    {
      "constant": false,
      "inputs": [
        {
          "name": "purchase",
          "type": "address"
        },
        {
          "name": "deliveryAddress",
          "type": "string"
        },
        {
          "name": "maxTemp",
          "type": "int256"
        },
        {
          "name": "minTemp",
          "type": "int256"
        },
        {
          "name": "acceleration",
          "type": "int256"
        },
        {
          "name": "humidity",
          "type": "int256"
        },
        {
          "name": "pressure",
          "type": "int256"
        },
        {
          "name": "gps",
          "type": "bool"
        }
      ],
      "name": "propose",
      "outputs": [],
      "payable": false,
      "stateMutability": "nonpayable",
      "type": "function"
    },
    {
      "constant": false,
      "inputs": [
        {
          "name": "_purchaseData",
          "type": "address"
        }
      ],
      "name": "setPurchaseData",
      "outputs": [
        {
          "name": "",
          "type": "bool"
        }
      ],
      "payable": false,
      "stateMutability": "nonpayable",
      "type": "function"
    },
    {
      "constant": false,
      "inputs": [
        {
          "name": "purchase",
          "type": "address"
        }
      ],
      "name": "abort",
      "outputs": [],
      "payable": false,
      "stateMutability": "nonpayable",
      "type": "function"
    },
    {
      "constant": false,
      "inputs": [
        {
          "name": "purchase",
          "type": "address"
        }
      ],
      "name": "dissatisfied",
      "outputs": [],
      "payable": false,
      "stateMutability": "nonpayable",
      "type": "function"
    },
    {
      "constant": false,
      "inputs": [
        {
          "name": "purchase",
          "type": "address"
        },
        {
          "name": "buyer",
          "type": "uint256"
        }
      ],
      "name": "decline",
      "outputs": [],
      "payable": false,
      "stateMutability": "nonpayable",
      "type": "function"
    },
    {
      "constant": false,
      "inputs": [
        {
          "name": "purchase",
          "type": "address"
        },
        {
          "name": "sensorType",
          "type": "string"
        },
        {
          "name": "value",
          "type": "int256"
        }
      ],
      "name": "sensorData",
      "outputs": [],
      "payable": false,
      "stateMutability": "nonpayable",
      "type": "function"
    },
    {
      "constant": false,
      "inputs": [
        {
          "name": "purchase",
          "type": "address"
        },
        {
          "name": "_buyer",
          "type": "uint256"
        }
      ],
      "name": "accept",
      "outputs": [],
      "payable": false,
      "stateMutability": "nonpayable",
      "type": "function"
    },
    {
      "constant": false,
      "inputs": [
        {
          "name": "purchase",
          "type": "address"
        }
      ],
      "name": "deliver",
      "outputs": [],
      "payable": false,
      "stateMutability": "nonpayable",
      "type": "function"
    },
    {
      "inputs": [
        {
          "name": "_token",
          "type": "address"
        }
      ],
      "payable": false,
      "stateMutability": "nonpayable",
      "type": "constructor"
    },
    {
      "anonymous": false,
      "inputs": [
        {
          "indexed": false,
          "name": "from",
          "type": "address"
        }
      ],
      "name": "Proposed",
      "type": "event"
    },
    {
      "anonymous": false,
      "inputs": [
        {
          "indexed": false,
          "name": "from",
          "type": "address"
        }
      ],
      "name": "Declined",
      "type": "event"
    },
    {
      "anonymous": false,
      "inputs": [
        {
          "indexed": false,
          "name": "from",
          "type": "address"
        }
      ],
      "name": "Accepted",
      "type": "event"
    },
    {
      "anonymous": false,
      "inputs": [
        {
          "indexed": false,
          "name": "from",
          "type": "address"
        }
      ],
      "name": "Delivered",
      "type": "event"
    },
    {
      "anonymous": false,
      "inputs": [
        {
          "indexed": false,
          "name": "from",
          "type": "address"
        }
      ],
      "name": "Satisfied",
      "type": "event"
    },
    {
      "anonymous": false,
      "inputs": [
        {
          "indexed": false,
          "name": "from",
          "type": "address"
        }
      ],
      "name": "Dissatisfied",
      "type": "event"
    }
  ],
  "bytecode": "0x6060604052341561000f57600080fd5b60405160208061398d83398101604052808051906020019091905050806000806101000a81548173ffffffffffffffffffffffffffffffffffffffff021916908373ffffffffffffffffffffffffffffffffffffffff160217905550506139128061007b6000396000f3006060604052600436106100cf576000357c0100000000000000000000000000000000000000000000000000000000900463ffffffff168062e4768b146100d457806305eeb56414610116578063083fca3d1461019257806326e4baae1461020e5780634e0c31721461024757806357c50931146102e05780636f1d20831461035c57806373a847aa1461041057806390cbfa1914610461578063911d2ead1461049a57806392635c59146104d3578063cb4d9cd314610515578063cd67571c1461059a578063e515cd38146105dc575b600080fd5b34156100df57600080fd5b610114600480803573ffffffffffffffffffffffffffffffffffffffff16906020019091908035906020019091905050610615565b005b341561012157600080fd5b610190600480803573ffffffffffffffffffffffffffffffffffffffff1690602001909190803590602001908201803590602001908080601f01602080910402602001604051908101604052809392919081815260200183838082843782019150505050505091905050610911565b005b341561019d57600080fd5b61020c600480803573ffffffffffffffffffffffffffffffffffffffff1690602001909190803590602001908201803590602001908080601f01602080910402602001604051908101604052809392919081815260200183838082843782019150505050505091905050610e0a565b005b341561021957600080fd5b610245600480803573ffffffffffffffffffffffffffffffffffffffff16906020019091905050611185565b005b341561025257600080fd5b6102de600480803573ffffffffffffffffffffffffffffffffffffffff1690602001909190803590602001909190803573ffffffffffffffffffffffffffffffffffffffff16906020019091908035906020019091908035906020019091908035906020019091908035906020019091908035906020019091908035151590602001909190505061183a565b005b34156102eb57600080fd5b61035a600480803573ffffffffffffffffffffffffffffffffffffffff1690602001909190803590602001908201803590602001908080601f01602080910402602001604051908101604052809392919081815260200183838082843782019150505050505091905050611985565b005b341561036757600080fd5b61040e600480803573ffffffffffffffffffffffffffffffffffffffff1690602001909190803590602001908201803590602001908080601f016020809104026020016040519081016040528093929190818152602001838380828437820191505050505050919080359060200190919080359060200190919080359060200190919080359060200190919080359060200190919080351515906020019091905050611ccc565b005b341561041b57600080fd5b610447600480803573ffffffffffffffffffffffffffffffffffffffff1690602001909190505061209f565b604051808215151515815260200191505060405180910390f35b341561046c57600080fd5b610498600480803573ffffffffffffffffffffffffffffffffffffffff16906020019091905050612123565b005b34156104a557600080fd5b6104d1600480803573ffffffffffffffffffffffffffffffffffffffff16906020019091905050612430565b005b34156104de57600080fd5b610513600480803573ffffffffffffffffffffffffffffffffffffffff169060200190919080359060200190919050506127f2565b005b341561052057600080fd5b610598600480803573ffffffffffffffffffffffffffffffffffffffff1690602001909190803590602001908201803590602001908080601f01602080910402602001604051908101604052809392919081815260200183838082843782019150505050505091908035906020019091905050612af1565b005b34156105a557600080fd5b6105da600480803573ffffffffffffffffffffffffffffffffffffffff16906020019091908035906020019091905050612e75565b005b34156105e757600080fd5b610613600480803573ffffffffffffffffffffffffffffffffffffffff16906020019091905050613532565b005b813373ffffffffffffffffffffffffffffffffffffffff16600160009054906101000a900473ffffffffffffffffffffffffffffffffffffffff1673ffffffffffffffffffffffffffffffffffffffff166339b9c30c836000604051602001526040518263ffffffff167c0100000000000000000000000000000000000000000000000000000000028152600401808273ffffffffffffffffffffffffffffffffffffffff1673ffffffffffffffffffffffffffffffffffffffff168152602001915050602060405180830381600087803b15156106f257600080fd5b6102c65a03f1151561070357600080fd5b5050506040518051905073ffffffffffffffffffffffffffffffffffffffff1614151561072f57600080fd5b6000600a81111561073c57fe5b600160009054906101000a900473ffffffffffffffffffffffffffffffffffffffff1673ffffffffffffffffffffffffffffffffffffffff166331e658a5856000604051602001526040518263ffffffff167c0100000000000000000000000000000000000000000000000000000000028152600401808273ffffffffffffffffffffffffffffffffffffffff1673ffffffffffffffffffffffffffffffffffffffff168152602001915050602060405180830381600087803b151561080157600080fd5b6102c65a03f1151561081257600080fd5b50505060405180519050600a81111561082757fe5b1480151561083457600080fd5b600160009054906101000a900473ffffffffffffffffffffffffffffffffffffffff1673ffffffffffffffffffffffffffffffffffffffff1662e4768b85856040518363ffffffff167c0100000000000000000000000000000000000000000000000000000000028152600401808373ffffffffffffffffffffffffffffffffffffffff1673ffffffffffffffffffffffffffffffffffffffff16815260200182815260200192505050600060405180830381600087803b15156108f757600080fd5b6102c65a03f1151561090857600080fd5b50505050505050565b81600180600a81111561092057fe5b600160009054906101000a900473ffffffffffffffffffffffffffffffffffffffff1673ffffffffffffffffffffffffffffffffffffffff166331e658a5846000604051602001526040518263ffffffff167c0100000000000000000000000000000000000000000000000000000000028152600401808273ffffffffffffffffffffffffffffffffffffffff1673ffffffffffffffffffffffffffffffffffffffff168152602001915050602060405180830381600087803b15156109e557600080fd5b6102c65a03f115156109f657600080fd5b50505060405180519050600a811115610a0b57fe5b141515610a1757600080fd5b600160009054906101000a900473ffffffffffffffffffffffffffffffffffffffff1673ffffffffffffffffffffffffffffffffffffffff166327737d588560026040518363ffffffff167c0100000000000000000000000000000000000000000000000000000000028152600401808373ffffffffffffffffffffffffffffffffffffffff1673ffffffffffffffffffffffffffffffffffffffff16815260200182600a811115610ac557fe5b60ff16815260200192505050600060405180830381600087803b1515610aea57600080fd5b6102c65a03f11515610afb57600080fd5b505050600160009054906101000a900473ffffffffffffffffffffffffffffffffffffffff1673ffffffffffffffffffffffffffffffffffffffff1663dbfab8f08533866040518463ffffffff167c0100000000000000000000000000000000000000000000000000000000028152600401808473ffffffffffffffffffffffffffffffffffffffff1673ffffffffffffffffffffffffffffffffffffffff1681526020018373ffffffffffffffffffffffffffffffffffffffff1673ffffffffffffffffffffffffffffffffffffffff16815260200180602001828103825283818151815260200191508051906020019080838360005b83811015610c0e578082015181840152602081019050610bf3565b50505050905090810190601f168015610c3b5780820380516001836020036101000a031916815260200191505b50945050505050600060405180830381600087803b1515610c5b57600080fd5b6102c65a03f11515610c6c57600080fd5b5050508373ffffffffffffffffffffffffffffffffffffffff166301c6adc333600160009054906101000a900473ffffffffffffffffffffffffffffffffffffffff1673ffffffffffffffffffffffffffffffffffffffff1663aea91078886000604051602001526040518263ffffffff167c0100000000000000000000000000000000000000000000000000000000028152600401808273ffffffffffffffffffffffffffffffffffffffff1673ffffffffffffffffffffffffffffffffffffffff168152602001915050602060405180830381600087803b1515610d5157600080fd5b6102c65a03f11515610d6257600080fd5b505050604051805190506040518363ffffffff167c0100000000000000000000000000000000000000000000000000000000028152600401808373ffffffffffffffffffffffffffffffffffffffff1673ffffffffffffffffffffffffffffffffffffffff16815260200182815260200192505050600060405180830381600087803b1515610df057600080fd5b6102c65a03f11515610e0157600080fd5b50505050505050565b6001600a811115610e1757fe5b600160009054906101000a900473ffffffffffffffffffffffffffffffffffffffff1673ffffffffffffffffffffffffffffffffffffffff166331e658a5846000604051602001526040518263ffffffff167c0100000000000000000000000000000000000000000000000000000000028152600401808273ffffffffffffffffffffffffffffffffffffffff1673ffffffffffffffffffffffffffffffffffffffff168152602001915050602060405180830381600087803b1515610edc57600080fd5b6102c65a03f11515610eed57600080fd5b50505060405180519050600a811115610f0257fe5b148061100357506004600a811115610f1657fe5b600160009054906101000a900473ffffffffffffffffffffffffffffffffffffffff1673ffffffffffffffffffffffffffffffffffffffff166331e658a5846000604051602001526040518263ffffffff167c0100000000000000000000000000000000000000000000000000000000028152600401808273ffffffffffffffffffffffffffffffffffffffff1673ffffffffffffffffffffffffffffffffffffffff168152602001915050602060405180830381600087803b1515610fdb57600080fd5b6102c65a03f11515610fec57600080fd5b50505060405180519050600a81111561100157fe5b145b80151561100f57600080fd5b600160009054906101000a900473ffffffffffffffffffffffffffffffffffffffff1673ffffffffffffffffffffffffffffffffffffffff1663fd22e6288484336040518463ffffffff167c0100000000000000000000000000000000000000000000000000000000028152600401808473ffffffffffffffffffffffffffffffffffffffff1673ffffffffffffffffffffffffffffffffffffffff168152602001806020018373ffffffffffffffffffffffffffffffffffffffff1673ffffffffffffffffffffffffffffffffffffffff168152602001828103825284818151815260200191508051906020019080838360005b8381101561111f578082015181840152602081019050611104565b50505050905090810190601f16801561114c5780820380516001836020036101000a031916815260200191505b50945050505050600060405180830381600087803b151561116c57600080fd5b6102c65a03f1151561117d57600080fd5b505050505050565b600060028060008473ffffffffffffffffffffffffffffffffffffffff1673ffffffffffffffffffffffffffffffffffffffff168152602001908152602001600020540142118015156111d757600080fd5b82600380600a8111156111e657fe5b600160009054906101000a900473ffffffffffffffffffffffffffffffffffffffff1673ffffffffffffffffffffffffffffffffffffffff166331e658a5846000604051602001526040518263ffffffff167c0100000000000000000000000000000000000000000000000000000000028152600401808273ffffffffffffffffffffffffffffffffffffffff1673ffffffffffffffffffffffffffffffffffffffff168152602001915050602060405180830381600087803b15156112ab57600080fd5b6102c65a03f115156112bc57600080fd5b50505060405180519050600a8111156112d157fe5b1415156112dd57600080fd5b600160009054906101000a900473ffffffffffffffffffffffffffffffffffffffff1673ffffffffffffffffffffffffffffffffffffffff166327737d5886600a6040518363ffffffff167c0100000000000000000000000000000000000000000000000000000000028152600401808373ffffffffffffffffffffffffffffffffffffffff1673ffffffffffffffffffffffffffffffffffffffff16815260200182600a81111561138b57fe5b60ff16815260200192505050600060405180830381600087803b15156113b057600080fd5b6102c65a03f115156113c157600080fd5b505050600160009054906101000a900473ffffffffffffffffffffffffffffffffffffffff1673ffffffffffffffffffffffffffffffffffffffff1663aea91078866000604051602001526040518263ffffffff167c0100000000000000000000000000000000000000000000000000000000028152600401808273ffffffffffffffffffffffffffffffffffffffff1673ffffffffffffffffffffffffffffffffffffffff168152602001915050602060405180830381600087803b151561148957600080fd5b6102c65a03f1151561149a57600080fd5b5050506040518051905093508473ffffffffffffffffffffffffffffffffffffffff1663095ea7b3600160009054906101000a900473ffffffffffffffffffffffffffffffffffffffff1673ffffffffffffffffffffffffffffffffffffffff166339b9c30c886000604051602001526040518263ffffffff167c0100000000000000000000000000000000000000000000000000000000028152600401808273ffffffffffffffffffffffffffffffffffffffff1673ffffffffffffffffffffffffffffffffffffffff168152602001915050602060405180830381600087803b151561158757600080fd5b6102c65a03f1151561159857600080fd5b50505060405180519050866040518363ffffffff167c0100000000000000000000000000000000000000000000000000000000028152600401808373ffffffffffffffffffffffffffffffffffffffff1673ffffffffffffffffffffffffffffffffffffffff16815260200182815260200192505050600060405180830381600087803b151561162757600080fd5b6102c65a03f1151561163857600080fd5b5050508473ffffffffffffffffffffffffffffffffffffffff1663095ea7b3600160009054906101000a900473ffffffffffffffffffffffffffffffffffffffff1673ffffffffffffffffffffffffffffffffffffffff1663e21a8991886000604051602001526040518263ffffffff167c0100000000000000000000000000000000000000000000000000000000028152600401808273ffffffffffffffffffffffffffffffffffffffff1673ffffffffffffffffffffffffffffffffffffffff168152602001915050602060405180830381600087803b151561171c57600080fd5b6102c65a03f1151561172d57600080fd5b50505060405180519050866040518363ffffffff167c0100000000000000000000000000000000000000000000000000000000028152600401808373ffffffffffffffffffffffffffffffffffffffff1673ffffffffffffffffffffffffffffffffffffffff16815260200182815260200192505050600060405180830381600087803b15156117bc57600080fd5b6102c65a03f115156117cd57600080fd5b5050507f9ec7b216d0d49c831803147af7d867a1d83edb2f405644e662c5618196dd666933604051808273ffffffffffffffffffffffffffffffffffffffff1673ffffffffffffffffffffffffffffffffffffffff16815260200191505060405180910390a15050505050565b600160009054906101000a900473ffffffffffffffffffffffffffffffffffffffff1673ffffffffffffffffffffffffffffffffffffffff16634e0c31728a8a8a8a8a8a8a8a8a6040518a63ffffffff167c0100000000000000000000000000000000000000000000000000000000028152600401808a73ffffffffffffffffffffffffffffffffffffffff1673ffffffffffffffffffffffffffffffffffffffff1681526020018981526020018873ffffffffffffffffffffffffffffffffffffffff1673ffffffffffffffffffffffffffffffffffffffff168152602001878152602001868152602001858152602001848152602001838152602001821515151581526020019950505050505050505050600060405180830381600087803b151561196657600080fd5b6102c65a03f1151561197757600080fd5b505050505050505050505050565b6002600a81111561199257fe5b600160009054906101000a900473ffffffffffffffffffffffffffffffffffffffff1673ffffffffffffffffffffffffffffffffffffffff166331e658a5846000604051602001526040518263ffffffff167c0100000000000000000000000000000000000000000000000000000000028152600401808273ffffffffffffffffffffffffffffffffffffffff1673ffffffffffffffffffffffffffffffffffffffff168152602001915050602060405180830381600087803b1515611a5757600080fd5b6102c65a03f11515611a6857600080fd5b50505060405180519050600a811115611a7d57fe5b1480611b7e57506005600a811115611a9157fe5b600160009054906101000a900473ffffffffffffffffffffffffffffffffffffffff1673ffffffffffffffffffffffffffffffffffffffff166331e658a5846000604051602001526040518263ffffffff167c0100000000000000000000000000000000000000000000000000000000028152600401808273ffffffffffffffffffffffffffffffffffffffff1673ffffffffffffffffffffffffffffffffffffffff168152602001915050602060405180830381600087803b1515611b5657600080fd5b6102c65a03f11515611b6757600080fd5b50505060405180519050600a811115611b7c57fe5b145b801515611b8a57600080fd5b600160009054906101000a900473ffffffffffffffffffffffffffffffffffffffff1673ffffffffffffffffffffffffffffffffffffffff166357c5093184846040518363ffffffff167c0100000000000000000000000000000000000000000000000000000000028152600401808373ffffffffffffffffffffffffffffffffffffffff1673ffffffffffffffffffffffffffffffffffffffff16815260200180602001828103825283818151815260200191508051906020019080838360005b83811015611c67578082015181840152602081019050611c4c565b50505050905090810190601f168015611c945780820380516001836020036101000a031916815260200191505b509350505050600060405180830381600087803b1515611cb357600080fd5b6102c65a03f11515611cc457600080fd5b505050505050565b873373ffffffffffffffffffffffffffffffffffffffff16600160009054906101000a900473ffffffffffffffffffffffffffffffffffffffff1673ffffffffffffffffffffffffffffffffffffffff166339b9c30c836000604051602001526040518263ffffffff167c0100000000000000000000000000000000000000000000000000000000028152600401808273ffffffffffffffffffffffffffffffffffffffff1673ffffffffffffffffffffffffffffffffffffffff168152602001915050602060405180830381600087803b1515611da957600080fd5b6102c65a03f11515611dba57600080fd5b5050506040518051905073ffffffffffffffffffffffffffffffffffffffff1614151515611de757600080fd5b88600080600a811115611df657fe5b600160009054906101000a900473ffffffffffffffffffffffffffffffffffffffff1673ffffffffffffffffffffffffffffffffffffffff166331e658a5846000604051602001526040518263ffffffff167c0100000000000000000000000000000000000000000000000000000000028152600401808273ffffffffffffffffffffffffffffffffffffffff1673ffffffffffffffffffffffffffffffffffffffff168152602001915050602060405180830381600087803b1515611ebb57600080fd5b6102c65a03f11515611ecc57600080fd5b50505060405180519050600a811115611ee157fe5b141515611eed57600080fd5b600160009054906101000a900473ffffffffffffffffffffffffffffffffffffffff1673ffffffffffffffffffffffffffffffffffffffff16633d28bb9d8c338d8d8d8d8d8d8d6040518a63ffffffff167c0100000000000000000000000000000000000000000000000000000000028152600401808a73ffffffffffffffffffffffffffffffffffffffff1673ffffffffffffffffffffffffffffffffffffffff1681526020018973ffffffffffffffffffffffffffffffffffffffff1673ffffffffffffffffffffffffffffffffffffffff1681526020018060200188815260200187815260200186815260200185815260200184815260200183151515158152602001828103825289818151815260200191508051906020019080838360005b8381101561202b578082015181840152602081019050612010565b50505050905090810190601f1680156120585780820380516001836020036101000a031916815260200191505b509a5050505050505050505050600060405180830381600087803b151561207e57600080fd5b6102c65a03f1151561208f57600080fd5b5050505050505050505050505050565b6000600160149054906101000a900460ff16158015156120be57600080fd5b60018060146101000a81548160ff02191690831515021790555082600160006101000a81548173ffffffffffffffffffffffffffffffffffffffff021916908373ffffffffffffffffffffffffffffffffffffffff1602179055506001915050919050565b803373ffffffffffffffffffffffffffffffffffffffff16600160009054906101000a900473ffffffffffffffffffffffffffffffffffffffff1673ffffffffffffffffffffffffffffffffffffffff166339b9c30c836000604051602001526040518263ffffffff167c0100000000000000000000000000000000000000000000000000000000028152600401808273ffffffffffffffffffffffffffffffffffffffff1673ffffffffffffffffffffffffffffffffffffffff168152602001915050602060405180830381600087803b151561220057600080fd5b6102c65a03f1151561221157600080fd5b5050506040518051905073ffffffffffffffffffffffffffffffffffffffff1614151561223d57600080fd5b81600080600a81111561224c57fe5b600160009054906101000a900473ffffffffffffffffffffffffffffffffffffffff1673ffffffffffffffffffffffffffffffffffffffff166331e658a5846000604051602001526040518263ffffffff167c0100000000000000000000000000000000000000000000000000000000028152600401808273ffffffffffffffffffffffffffffffffffffffff1673ffffffffffffffffffffffffffffffffffffffff168152602001915050602060405180830381600087803b151561231157600080fd5b6102c65a03f1151561232257600080fd5b50505060405180519050600a81111561233757fe5b14151561234357600080fd5b600160009054906101000a900473ffffffffffffffffffffffffffffffffffffffff1673ffffffffffffffffffffffffffffffffffffffff166327737d5885600a6040518363ffffffff167c0100000000000000000000000000000000000000000000000000000000028152600401808373ffffffffffffffffffffffffffffffffffffffff1673ffffffffffffffffffffffffffffffffffffffff16815260200182600a8111156123f157fe5b60ff16815260200192505050600060405180830381600087803b151561241657600080fd5b6102c65a03f1151561242757600080fd5b50505050505050565b803373ffffffffffffffffffffffffffffffffffffffff16600160009054906101000a900473ffffffffffffffffffffffffffffffffffffffff1673ffffffffffffffffffffffffffffffffffffffff1663b7748208836000604051602001526040518263ffffffff167c0100000000000000000000000000000000000000000000000000000000028152600401808273ffffffffffffffffffffffffffffffffffffffff1673ffffffffffffffffffffffffffffffffffffffff168152602001915050602060405180830381600087803b151561250d57600080fd5b6102c65a03f1151561251e57600080fd5b5050506040518051905073ffffffffffffffffffffffffffffffffffffffff1614151561254a57600080fd5b81600380600a81111561255957fe5b600160009054906101000a900473ffffffffffffffffffffffffffffffffffffffff1673ffffffffffffffffffffffffffffffffffffffff166331e658a5846000604051602001526040518263ffffffff167c0100000000000000000000000000000000000000000000000000000000028152600401808273ffffffffffffffffffffffffffffffffffffffff1673ffffffffffffffffffffffffffffffffffffffff168152602001915050602060405180830381600087803b151561261e57600080fd5b6102c65a03f1151561262f57600080fd5b50505060405180519050600a81111561264457fe5b14151561265057600080fd5b60028060008673ffffffffffffffffffffffffffffffffffffffff1673ffffffffffffffffffffffffffffffffffffffff16815260200190815260200160002054014211158015156126a157600080fd5b600160009054906101000a900473ffffffffffffffffffffffffffffffffffffffff1673ffffffffffffffffffffffffffffffffffffffff166327737d588660046040518363ffffffff167c0100000000000000000000000000000000000000000000000000000000028152600401808373ffffffffffffffffffffffffffffffffffffffff1673ffffffffffffffffffffffffffffffffffffffff16815260200182600a81111561274f57fe5b60ff16815260200192505050600060405180830381600087803b151561277457600080fd5b6102c65a03f1151561278557600080fd5b5050507f94e153ca59e1a836d1088fae9a0acbe26f443d461ce85486281c43293541c8b933604051808273ffffffffffffffffffffffffffffffffffffffff1673ffffffffffffffffffffffffffffffffffffffff16815260200191505060405180910390a15050505050565b813373ffffffffffffffffffffffffffffffffffffffff16600160009054906101000a900473ffffffffffffffffffffffffffffffffffffffff1673ffffffffffffffffffffffffffffffffffffffff166339b9c30c836000604051602001526040518263ffffffff167c0100000000000000000000000000000000000000000000000000000000028152600401808273ffffffffffffffffffffffffffffffffffffffff1673ffffffffffffffffffffffffffffffffffffffff168152602001915050602060405180830381600087803b15156128cf57600080fd5b6102c65a03f115156128e057600080fd5b5050506040518051905073ffffffffffffffffffffffffffffffffffffffff1614151561290c57600080fd5b82600080600a81111561291b57fe5b600160009054906101000a900473ffffffffffffffffffffffffffffffffffffffff1673ffffffffffffffffffffffffffffffffffffffff166331e658a5846000604051602001526040518263ffffffff167c0100000000000000000000000000000000000000000000000000000000028152600401808273ffffffffffffffffffffffffffffffffffffffff1673ffffffffffffffffffffffffffffffffffffffff168152602001915050602060405180830381600087803b15156129e057600080fd5b6102c65a03f115156129f157600080fd5b50505060405180519050600a811115612a0657fe5b141515612a1257600080fd5b600160009054906101000a900473ffffffffffffffffffffffffffffffffffffffff1673ffffffffffffffffffffffffffffffffffffffff16630e4092fc86866040518363ffffffff167c0100000000000000000000000000000000000000000000000000000000028152600401808373ffffffffffffffffffffffffffffffffffffffff1673ffffffffffffffffffffffffffffffffffffffff16815260200182815260200192505050600060405180830381600087803b1515612ad657600080fd5b6102c65a03f11515612ae757600080fd5b5050505050505050565b6002600a811115612afe57fe5b600160009054906101000a900473ffffffffffffffffffffffffffffffffffffffff1673ffffffffffffffffffffffffffffffffffffffff166331e658a5856000604051602001526040518263ffffffff167c0100000000000000000000000000000000000000000000000000000000028152600401808273ffffffffffffffffffffffffffffffffffffffff1673ffffffffffffffffffffffffffffffffffffffff168152602001915050602060405180830381600087803b1515612bc357600080fd5b6102c65a03f11515612bd457600080fd5b50505060405180519050600a811115612be957fe5b1480612cea57506005600a811115612bfd57fe5b600160009054906101000a900473ffffffffffffffffffffffffffffffffffffffff1673ffffffffffffffffffffffffffffffffffffffff166331e658a5856000604051602001526040518263ffffffff167c0100000000000000000000000000000000000000000000000000000000028152600401808273ffffffffffffffffffffffffffffffffffffffff1673ffffffffffffffffffffffffffffffffffffffff168152602001915050602060405180830381600087803b1515612cc257600080fd5b6102c65a03f11515612cd357600080fd5b50505060405180519050600a811115612ce857fe5b145b801515612cf657600080fd5b600160009054906101000a900473ffffffffffffffffffffffffffffffffffffffff1673ffffffffffffffffffffffffffffffffffffffff16631040c19e858533866040518563ffffffff167c0100000000000000000000000000000000000000000000000000000000028152600401808573ffffffffffffffffffffffffffffffffffffffff1673ffffffffffffffffffffffffffffffffffffffff168152602001806020018473ffffffffffffffffffffffffffffffffffffffff1673ffffffffffffffffffffffffffffffffffffffff168152602001838152602001828103825285818151815260200191508051906020019080838360005b83811015612e0d578082015181840152602081019050612df2565b50505050905090810190601f168015612e3a5780820380516001836020036101000a031916815260200191505b5095505050505050600060405180830381600087803b1515612e5b57600080fd5b6102c65a03f11515612e6c57600080fd5b50505050505050565b813373ffffffffffffffffffffffffffffffffffffffff16600160009054906101000a900473ffffffffffffffffffffffffffffffffffffffff1673ffffffffffffffffffffffffffffffffffffffff166339b9c30c836000604051602001526040518263ffffffff167c0100000000000000000000000000000000000000000000000000000000028152600401808273ffffffffffffffffffffffffffffffffffffffff1673ffffffffffffffffffffffffffffffffffffffff168152602001915050602060405180830381600087803b1515612f5257600080fd5b6102c65a03f11515612f6357600080fd5b5050506040518051905073ffffffffffffffffffffffffffffffffffffffff16141515612f8f57600080fd5b82600080600a811115612f9e57fe5b600160009054906101000a900473ffffffffffffffffffffffffffffffffffffffff1673ffffffffffffffffffffffffffffffffffffffff166331e658a5846000604051602001526040518263ffffffff167c0100000000000000000000000000000000000000000000000000000000028152600401808273ffffffffffffffffffffffffffffffffffffffff1673ffffffffffffffffffffffffffffffffffffffff168152602001915050602060405180830381600087803b151561306357600080fd5b6102c65a03f1151561307457600080fd5b50505060405180519050600a81111561308957fe5b14151561309557600080fd5b600160009054906101000a900473ffffffffffffffffffffffffffffffffffffffff1673ffffffffffffffffffffffffffffffffffffffff16637b049d9e86866040518363ffffffff167c0100000000000000000000000000000000000000000000000000000000028152600401808373ffffffffffffffffffffffffffffffffffffffff1673ffffffffffffffffffffffffffffffffffffffff16815260200182815260200192505050600060405180830381600087803b151561315957600080fd5b6102c65a03f1151561316a57600080fd5b5050508473ffffffffffffffffffffffffffffffffffffffff166301c6adc3600160009054906101000a900473ffffffffffffffffffffffffffffffffffffffff1673ffffffffffffffffffffffffffffffffffffffff1663b7748208886000604051602001526040518263ffffffff167c0100000000000000000000000000000000000000000000000000000000028152600401808273ffffffffffffffffffffffffffffffffffffffff1673ffffffffffffffffffffffffffffffffffffffff168152602001915050602060405180830381600087803b151561324e57600080fd5b6102c65a03f1151561325f57600080fd5b50505060405180519050600160009054906101000a900473ffffffffffffffffffffffffffffffffffffffff1673ffffffffffffffffffffffffffffffffffffffff1663aea91078896000604051602001526040518263ffffffff167c0100000000000000000000000000000000000000000000000000000000028152600401808273ffffffffffffffffffffffffffffffffffffffff1673ffffffffffffffffffffffffffffffffffffffff168152602001915050602060405180830381600087803b151561332e57600080fd5b6102c65a03f1151561333f57600080fd5b505050604051805190506040518363ffffffff167c0100000000000000000000000000000000000000000000000000000000028152600401808373ffffffffffffffffffffffffffffffffffffffff1673ffffffffffffffffffffffffffffffffffffffff16815260200182815260200192505050600060405180830381600087803b15156133cd57600080fd5b6102c65a03f115156133de57600080fd5b505050600160009054906101000a900473ffffffffffffffffffffffffffffffffffffffff1673ffffffffffffffffffffffffffffffffffffffff166327737d588660016040518363ffffffff167c0100000000000000000000000000000000000000000000000000000000028152600401808373ffffffffffffffffffffffffffffffffffffffff1673ffffffffffffffffffffffffffffffffffffffff16815260200182600a81111561348f57fe5b60ff16815260200192505050600060405180830381600087803b15156134b457600080fd5b6102c65a03f115156134c557600080fd5b5050507f2e7bcc1a1a1c1bea0ff9a677c29b43662d6560afbebd99c213389fc15a6279d233604051808273ffffffffffffffffffffffffffffffffffffffff1673ffffffffffffffffffffffffffffffffffffffff16815260200191505060405180910390a15050505050565b80600280600a81111561354157fe5b600160009054906101000a900473ffffffffffffffffffffffffffffffffffffffff1673ffffffffffffffffffffffffffffffffffffffff166331e658a5846000604051602001526040518263ffffffff167c0100000000000000000000000000000000000000000000000000000000028152600401808273ffffffffffffffffffffffffffffffffffffffff1673ffffffffffffffffffffffffffffffffffffffff168152602001915050602060405180830381600087803b151561360657600080fd5b6102c65a03f1151561361757600080fd5b50505060405180519050600a81111561362c57fe5b14151561363857600080fd5b823373ffffffffffffffffffffffffffffffffffffffff16600160009054906101000a900473ffffffffffffffffffffffffffffffffffffffff1673ffffffffffffffffffffffffffffffffffffffff1663e21a8991836000604051602001526040518263ffffffff167c0100000000000000000000000000000000000000000000000000000000028152600401808273ffffffffffffffffffffffffffffffffffffffff1673ffffffffffffffffffffffffffffffffffffffff168152602001915050602060405180830381600087803b151561371557600080fd5b6102c65a03f1151561372657600080fd5b5050506040518051905073ffffffffffffffffffffffffffffffffffffffff1614151561375257600080fd5b42600260008673ffffffffffffffffffffffffffffffffffffffff1673ffffffffffffffffffffffffffffffffffffffff16815260200190815260200160002081905550600160009054906101000a900473ffffffffffffffffffffffffffffffffffffffff1673ffffffffffffffffffffffffffffffffffffffff166327737d588560036040518363ffffffff167c0100000000000000000000000000000000000000000000000000000000028152600401808373ffffffffffffffffffffffffffffffffffffffff1673ffffffffffffffffffffffffffffffffffffffff16815260200182600a81111561384457fe5b60ff16815260200192505050600060405180830381600087803b151561386957600080fd5b6102c65a03f1151561387a57600080fd5b5050507ffedf826d9b4a1fe2a221dc900337fc72788ddb41c7ae6600c110ca2858365da433604051808273ffffffffffffffffffffffffffffffffffffffff1673ffffffffffffffffffffffffffffffffffffffff16815260200191505060405180910390a1505050505600a165627a7a72305820a09b0610f54bc847023f6045e6bb0b3aca163bf5517312014289006fcf6da6640029",
  "source": "\r\npragma solidity ^0.4.0;\r\n\r\nimport \"../Token/Token.sol\";\r\nimport \"./SensorLibrary.sol\";\r\nimport \"./PurchaseData.sol\";\r\nimport \"./MinimalPurchase.sol\";\r\n\r\ncontract Purchase {\r\n\r\n  uint constant day = 2;\r\n\r\n  Token t;\r\n  PurchaseData p;\r\n  bool purchaseDataSet;\r\n  mapping(address => uint) arrivalTime;\r\n\r\n  modifier condition(bool _condition) {\r\n    require(_condition);\r\n    _;\r\n  }\r\n\r\n  modifier onlyBuyer(address purchase) {\r\n    require(p.buyer(purchase) == msg.sender);\r\n    _;\r\n  }\r\n\r\n  modifier onlySeller(address purchase) {\r\n    require(p.seller(purchase) == msg.sender);\r\n    _;\r\n  }\r\n\r\n  modifier onlyDeliveryCompany(address purchase) {\r\n    require(p.deliveryCompany(purchase) == msg.sender);\r\n    _;\r\n  }\r\n\r\n  modifier notSeller(address purchase) {\r\n    require(!(p.seller(purchase) == msg.sender));\r\n    _;\r\n  }\r\n\r\n  modifier inState(address purchase, PurchaseData.State _state) {\r\n    require(p.state(purchase) == _state);\r\n    _;\r\n  }\r\n\r\n  event Proposed(address from);\r\n  event Declined(address from);\r\n  event Accepted(address from);\r\n  event Delivered(address from);\r\n  event Satisfied(address from);\r\n  event Dissatisfied(address from);\r\n\r\n  function Purchase(address _token) public {\r\n    t = Token(_token);\r\n  }\r\n\r\n  function setPurchaseData(address _purchaseData)\r\n    public\r\n    condition(!purchaseDataSet)\r\n    returns(bool)\r\n  {\r\n    purchaseDataSet = true;\r\n    p = PurchaseData(_purchaseData);\r\n    return true;\r\n  }\r\n\r\n  function newPurchase\r\n  (\r\n    address purchase,\r\n    uint _price,\r\n    address _seller,\r\n    int maxTemp,\r\n    int minTemp,\r\n    int acceleration,\r\n    int humidity,\r\n    int pressure,\r\n    bool gps\r\n  )\r\n  {\r\n    p.newPurchase(purchase, _price, _seller, maxTemp, minTemp, acceleration, humidity, pressure, gps);\r\n  }\r\n\r\n  ///////////////////\r\n  ///---Created---///\r\n  ///////////////////\r\n\r\n  function setPrice(address purchase, uint _price)\r\n    public\r\n    onlySeller(purchase)\r\n    condition(p.state(purchase) == PurchaseData.State.Created)\r\n  {\r\n    p.setPrice(purchase, _price);\r\n  }\r\n\r\n  function abort(address purchase)\r\n    public\r\n    onlySeller(purchase)\r\n    inState(purchase, PurchaseData.State.Created)\r\n  {\r\n    p.setState(purchase, PurchaseData.State.Inactive);\r\n  }\r\n\r\n  function propose\r\n  (\r\n    address purchase,\r\n    string deliveryAddress,\r\n    int maxTemp,\r\n    int minTemp,\r\n    int acceleration,\r\n    int humidity,\r\n    int pressure,\r\n    bool gps\r\n  )\r\n    public\r\n    notSeller(purchase)\r\n    inState(purchase, PurchaseData.State.Created)\r\n  {\r\n    p.addPotentialBuyer(purchase, msg.sender, deliveryAddress, maxTemp, minTemp, acceleration, humidity, pressure, gps);\r\n  }\r\n\r\n  function decline(address purchase, uint buyer)\r\n    public\r\n    onlySeller(purchase)\r\n    inState(purchase, PurchaseData.State.Created)\r\n  {\r\n    p.deleteBuyer(purchase, buyer);\r\n  }\r\n\r\n  function accept(address purchase, uint _buyer)\r\n    public\r\n    onlySeller(purchase)\r\n    inState(purchase, PurchaseData.State.Created)\r\n  {\r\n    p.setBuyer(purchase, _buyer);\r\n    MinimalPurchase(purchase).transferFrom(p.buyer(purchase), p.price(purchase));\r\n    p.setState(purchase, PurchaseData.State.Locked);\r\n    Accepted(msg.sender);\r\n  }\r\n\r\n  //////////////////\r\n  ///---Locked---///\r\n  //////////////////\r\n\r\n  function setProvider(address purchase, string sensorType)\r\n    public\r\n    condition(p.state(purchase) == PurchaseData.State.Locked || p.state(purchase) == PurchaseData.State.Dissatisfied)\r\n  {\r\n    p.setProvider(purchase, sensorType, msg.sender);\r\n  }\r\n\r\n  function transport(address purchase, string returnAddress)\r\n    public\r\n    inState(purchase, PurchaseData.State.Locked)\r\n  {\r\n    p.setState(purchase, PurchaseData.State.Transit);\r\n    p.setDeliveryCompany(purchase, msg.sender, returnAddress);\r\n    MinimalPurchase(purchase).transferFrom(msg.sender, p.price(purchase));\r\n  }\r\n\r\n  ///////////////////\r\n  ///---Transit---///\r\n  ///////////////////\r\n\r\n  function sensorData(address purchase, string sensorType, int value)\r\n    public\r\n    condition(p.state(purchase) == PurchaseData.State.Transit || p.state(purchase) == PurchaseData.State.Return)\r\n  {\r\n    p.sensorData(purchase, sensorType, msg.sender, value);\r\n  }\r\n\r\n  function requestData(address purchase, string sensorType)\r\n    public\r\n    condition(p.state(purchase) == PurchaseData.State.Transit || p.state(purchase) == PurchaseData.State.Return)\r\n  {\r\n    p.requestData(purchase, sensorType);\r\n  }\r\n\r\n  function deliver(address purchase)\r\n    public\r\n    inState(purchase, PurchaseData.State.Transit)\r\n    onlyDeliveryCompany(purchase)\r\n  {\r\n    arrivalTime[purchase] = now;\r\n    p.setState(purchase, PurchaseData.State.Confirm);\r\n    Delivered(msg.sender);\r\n  }\r\n\r\n  ///////////////////\r\n  ///---Confirm---///\r\n  ///////////////////\r\n\r\n  function success(address purchase)\r\n    public\r\n    condition(now > arrivalTime[purchase] + day)\r\n    inState(purchase, PurchaseData.State.Confirm)\r\n  {\r\n    p.setState(purchase, PurchaseData.State.Inactive);\r\n    uint _price = p.price(purchase);\r\n    MinimalPurchase(purchase).approve(p.seller(purchase), _price);\r\n    MinimalPurchase(purchase).approve(p.deliveryCompany(purchase), _price);\r\n    Satisfied(msg.sender);\r\n  }\r\n\r\n  function dissatisfied(address purchase)\r\n    public\r\n    onlyBuyer(purchase)\r\n    inState(purchase, PurchaseData.State.Confirm)\r\n    condition(now <= arrivalTime[purchase] + day)\r\n  {\r\n    p.setState(purchase, PurchaseData.State.Dissatisfied);\r\n    Dissatisfied(msg.sender);\r\n  }\r\n}\r\n\r\n",
  "sourcePath": "C:\\Users\\axevalli\\IdeaProjects\\smart-package-2\\smart-package\\contracts\\Purchase\\Purchase.sol",
  "compiler": {
    "name": "solc",
    "version": "0.4.18+commit.9cf6e910.Emscripten.clang"
  },
  "schemaVersion": "1.0.1",
  "updatedAt": "2018-04-17T14:01:51.547Z"
}